{
  "_format": "hh-sol-artifact-1",
  "contractName": "UsdtSafeboxV2",
  "sourceName": "contracts/UsdtSafeboxV2.sol",
  "abi": [
    {
      "inputs": [
        {
          "internalType": "address",
          "name": "usdtAddress",
          "type": "address"
        },
        {
          "internalType": "address",
          "name": "routerAddress",
          "type": "address"
        },
        {
          "internalType": "address",
          "name": "wbnbAddress",
          "type": "address"
        },
        {
          "internalType": "address",
          "name": "cakeAddress",
          "type": "address"
        }
      ],
      "stateMutability": "nonpayable",
      "type": "constructor"
    },
    {
      "anonymous": false,
      "inputs": [
        {
          "indexed": true,
          "internalType": "address",
          "name": "user",
          "type": "address"
        },
        {
          "indexed": false,
          "internalType": "uint256",
          "name": "amount",
          "type": "uint256"
        }
      ],
      "name": "Deposited",
      "type": "event"
    },
    {
      "anonymous": false,
      "inputs": [
        {
          "indexed": true,
          "internalType": "address",
          "name": "previousOwner",
          "type": "address"
        },
        {
          "indexed": true,
          "internalType": "address",
          "name": "newOwner",
          "type": "address"
        }
      ],
      "name": "OwnershipTransferred",
      "type": "event"
    },
    {
      "anonymous": false,
      "inputs": [
        {
          "indexed": true,
          "internalType": "address",
          "name": "user",
          "type": "address"
        },
        {
          "indexed": true,
          "internalType": "address",
          "name": "tokenOut",
          "type": "address"
        },
        {
          "indexed": false,
          "internalType": "uint256",
          "name": "usdtIn",
          "type": "uint256"
        },
        {
          "indexed": false,
          "internalType": "uint256",
          "name": "amountOut",
          "type": "uint256"
        }
      ],
      "name": "Swapped",
      "type": "event"
    },
    {
      "anonymous": false,
      "inputs": [
        {
          "indexed": true,
          "internalType": "address",
          "name": "user",
          "type": "address"
        },
        {
          "indexed": true,
          "internalType": "address",
          "name": "to",
          "type": "address"
        },
        {
          "indexed": false,
          "internalType": "uint256",
          "name": "amount",
          "type": "uint256"
        }
      ],
      "name": "Withdrawn",
      "type": "event"
    },
    {
      "inputs": [],
      "name": "CAKE",
      "outputs": [
        {
          "internalType": "address",
          "name": "",
          "type": "address"
        }
      ],
      "stateMutability": "view",
      "type": "function"
    },
    {
      "inputs": [],
      "name": "WBNB",
      "outputs": [
        {
          "internalType": "address",
          "name": "",
          "type": "address"
        }
      ],
      "stateMutability": "view",
      "type": "function"
    },
    {
      "inputs": [
        {
          "internalType": "address",
          "name": "",
          "type": "address"
        }
      ],
      "name": "balances",
      "outputs": [
        {
          "internalType": "uint256",
          "name": "",
          "type": "uint256"
        }
      ],
      "stateMutability": "view",
      "type": "function"
    },
    {
      "inputs": [
        {
          "internalType": "uint256",
          "name": "amount",
          "type": "uint256"
        }
      ],
      "name": "deposit",
      "outputs": [],
      "stateMutability": "nonpayable",
      "type": "function"
    },
    {
      "inputs": [],
      "name": "owner",
      "outputs": [
        {
          "internalType": "address",
          "name": "",
          "type": "address"
        }
      ],
      "stateMutability": "view",
      "type": "function"
    },
    {
      "inputs": [
        {
          "internalType": "uint256",
          "name": "usdtAmount",
          "type": "uint256"
        }
      ],
      "name": "previewUsdtToBNB",
      "outputs": [
        {
          "internalType": "uint256",
          "name": "outBNB",
          "type": "uint256"
        }
      ],
      "stateMutability": "view",
      "type": "function"
    },
    {
      "inputs": [
        {
          "internalType": "uint256",
          "name": "usdtAmount",
          "type": "uint256"
        }
      ],
      "name": "previewUsdtToCAKE",
      "outputs": [
        {
          "internalType": "uint256",
          "name": "outCAKE",
          "type": "uint256"
        }
      ],
      "stateMutability": "view",
      "type": "function"
    },
    {
      "inputs": [],
      "name": "renounceOwnership",
      "outputs": [],
      "stateMutability": "nonpayable",
      "type": "function"
    },
    {
      "inputs": [],
      "name": "router",
      "outputs": [
        {
          "internalType": "contract IPancakeRouter02",
          "name": "",
          "type": "address"
        }
      ],
      "stateMutability": "view",
      "type": "function"
    },
    {
      "inputs": [
        {
          "internalType": "uint256",
          "name": "usdtAmount",
          "type": "uint256"
        },
        {
          "internalType": "uint256",
          "name": "amountOutMin",
          "type": "uint256"
        },
        {
          "internalType": "uint256",
          "name": "deadline",
          "type": "uint256"
        }
      ],
      "name": "swapFromWalletToBNB",
      "outputs": [],
      "stateMutability": "nonpayable",
      "type": "function"
    },
    {
      "inputs": [
        {
          "internalType": "uint256",
          "name": "usdtAmount",
          "type": "uint256"
        },
        {
          "internalType": "uint256",
          "name": "amountOutMin",
          "type": "uint256"
        },
        {
          "internalType": "uint256",
          "name": "deadline",
          "type": "uint256"
        }
      ],
      "name": "swapFromWalletToCAKE",
      "outputs": [],
      "stateMutability": "nonpayable",
      "type": "function"
    },
    {
      "inputs": [
        {
          "internalType": "uint256",
          "name": "usdtAmount",
          "type": "uint256"
        },
        {
          "internalType": "uint256",
          "name": "amountOutMin",
          "type": "uint256"
        },
        {
          "internalType": "uint256",
          "name": "deadline",
          "type": "uint256"
        }
      ],
      "name": "swapUsdtToBNB",
      "outputs": [],
      "stateMutability": "nonpayable",
      "type": "function"
    },
    {
      "inputs": [
        {
          "internalType": "uint256",
          "name": "usdtAmount",
          "type": "uint256"
        },
        {
          "internalType": "uint256",
          "name": "amountOutMin",
          "type": "uint256"
        },
        {
          "internalType": "uint256",
          "name": "deadline",
          "type": "uint256"
        }
      ],
      "name": "swapUsdtToCAKE",
      "outputs": [],
      "stateMutability": "nonpayable",
      "type": "function"
    },
    {
      "inputs": [
        {
          "internalType": "address",
          "name": "token",
          "type": "address"
        },
        {
          "internalType": "address",
          "name": "to",
          "type": "address"
        }
      ],
      "name": "sweep",
      "outputs": [],
      "stateMutability": "nonpayable",
      "type": "function"
    },
    {
      "inputs": [],
      "name": "totalUsdt",
      "outputs": [
        {
          "internalType": "uint256",
          "name": "",
          "type": "uint256"
        }
      ],
      "stateMutability": "view",
      "type": "function"
    },
    {
      "inputs": [
        {
          "internalType": "address",
          "name": "newOwner",
          "type": "address"
        }
      ],
      "name": "transferOwnership",
      "outputs": [],
      "stateMutability": "nonpayable",
      "type": "function"
    },
    {
      "inputs": [],
      "name": "usdt",
      "outputs": [
        {
          "internalType": "contract IERC20",
          "name": "",
          "type": "address"
        }
      ],
      "stateMutability": "view",
      "type": "function"
    },
    {
      "inputs": [
        {
          "internalType": "uint256",
          "name": "amount",
          "type": "uint256"
        }
      ],
      "name": "withdraw",
      "outputs": [],
      "stateMutability": "nonpayable",
      "type": "function"
    },
    {
      "inputs": [
        {
          "internalType": "uint256",
          "name": "amount",
          "type": "uint256"
        },
        {
          "internalType": "address",
          "name": "to",
          "type": "address"
        }
      ],
      "name": "withdrawTo",
      "outputs": [],
      "stateMutability": "nonpayable",
      "type": "function"
    },
    {
      "stateMutability": "payable",
      "type": "receive"
    }
  ],
  "bytecode": "0x6101006040523480156200001257600080fd5b506040516200404a3803806200404a83398181016040528101906200003891906200043a565b600160008190555062000060620000546200030260201b60201c565b6200030a60201b60201c565b600073ffffffffffffffffffffffffffffffffffffffff168473ffffffffffffffffffffffffffffffffffffffff1603620000d2576040517f08c379a0000000000000000000000000000000000000000000000000000000008152600401620000c9906200050d565b60405180910390fd5b600073ffffffffffffffffffffffffffffffffffffffff168373ffffffffffffffffffffffffffffffffffffffff160362000144576040517f08c379a00000000000000000000000000000000000000000000000000000000081526004016200013b906200057f565b60405180910390fd5b600073ffffffffffffffffffffffffffffffffffffffff168273ffffffffffffffffffffffffffffffffffffffff1603620001b6576040517f08c379a0000000000000000000000000000000000000000000000000000000008152600401620001ad90620005f1565b60405180910390fd5b600073ffffffffffffffffffffffffffffffffffffffff168173ffffffffffffffffffffffffffffffffffffffff160362000228576040517f08c379a00000000000000000000000000000000000000000000000000000000081526004016200021f9062000663565b60405180910390fd5b8373ffffffffffffffffffffffffffffffffffffffff1660808173ffffffffffffffffffffffffffffffffffffffff16815250508273ffffffffffffffffffffffffffffffffffffffff1660a08173ffffffffffffffffffffffffffffffffffffffff16815250508173ffffffffffffffffffffffffffffffffffffffff1660c08173ffffffffffffffffffffffffffffffffffffffff16815250508073ffffffffffffffffffffffffffffffffffffffff1660e08173ffffffffffffffffffffffffffffffffffffffff16815250505050505062000685565b600033905090565b6000600160009054906101000a900473ffffffffffffffffffffffffffffffffffffffff16905081600160006101000a81548173ffffffffffffffffffffffffffffffffffffffff021916908373ffffffffffffffffffffffffffffffffffffffff1602179055508173ffffffffffffffffffffffffffffffffffffffff168173ffffffffffffffffffffffffffffffffffffffff167f8be0079c531659141344cd1fd0a4f28419497f9722a3daafe3b4186f6b6457e060405160405180910390a35050565b600080fd5b600073ffffffffffffffffffffffffffffffffffffffff82169050919050565b60006200040282620003d5565b9050919050565b6200041481620003f5565b81146200042057600080fd5b50565b600081519050620004348162000409565b92915050565b60008060008060808587031215620004575762000456620003d0565b5b6000620004678782880162000423565b94505060206200047a8782880162000423565b93505060406200048d8782880162000423565b9250506060620004a08782880162000423565b91505092959194509250565b600082825260208201905092915050565b7f555344543d300000000000000000000000000000000000000000000000000000600082015250565b6000620004f5600683620004ac565b91506200050282620004bd565b602082019050919050565b600060208201905081810360008301526200052881620004e6565b9050919050565b7f524f555445523d30000000000000000000000000000000000000000000000000600082015250565b600062000567600883620004ac565b915062000574826200052f565b602082019050919050565b600060208201905081810360008301526200059a8162000558565b9050919050565b7f57424e423d300000000000000000000000000000000000000000000000000000600082015250565b6000620005d9600683620004ac565b9150620005e682620005a1565b602082019050919050565b600060208201905081810360008301526200060c81620005ca565b9050919050565b7f43414b453d300000000000000000000000000000000000000000000000000000600082015250565b60006200064b600683620004ac565b9150620006588262000613565b602082019050919050565b600060208201905081810360008301526200067e816200063c565b9050919050565b60805160a05160c05160e051613850620007fa6000396000818161075b0152818161087701528181610934015281816110610152818161117d01526113f90152600081816106ec01528181610b8401528181610ff2015281816112650152818161138a015281816119820152611eda01526000818161055b015281816105c7015281816107cc015281816109f301528181610a5f01528181610bf501528181610e6101528181610ecd015281816110d20152818161146a015281816119f301528181611d4901528181611db501528181611f4b015261210c01526000818161049c015281816105110152818161057e015281816105e90152818161067d015281816109a901528181610a1601528181610a8101528181610b1501528181610e8401528181610eef01528181610f830152818161131b015281816115c80152818161173d0152818161191301528181611b0201528181611d6c01528181611dd701528181611e6b015261229401526138506000f3fe6080604052600436106101185760003560e01c80638dd95002116100a0578063c40cb85411610064578063c40cb85414610394578063c86283c8146103bf578063dfd3d0be146103e8578063f2fde38b14610411578063f887ea401461043a5761011f565b80638dd950021461029d578063a1d52c99146102c8578063b6b55f2514610305578063b8dc491b1461032e578063bd5f99fc146103575761011f565b80634ca6ef28116100e75780634ca6ef28146101de5780636cdce68014610209578063715018a61461023257806379d60f28146102495780638da5cb5b146102725761011f565b806327e235e3146101245780632e1a7d4d146101615780632f48ab7d1461018a578063330ab73f146101b55761011f565b3661011f57005b600080fd5b34801561013057600080fd5b5061014b600480360381019061014691906129fd565b610465565b6040516101589190612a43565b60405180910390f35b34801561016d57600080fd5b5061018860048036038101906101839190612a8a565b61047d565b005b34801561019657600080fd5b5061019f61049a565b6040516101ac9190612b16565b60405180910390f35b3480156101c157600080fd5b506101dc60048036038101906101d79190612b31565b6104be565b005b3480156101ea57600080fd5b506101f3610932565b6040516102009190612b93565b60405180910390f35b34801561021557600080fd5b50610230600480360381019061022b9190612b31565b610956565b005b34801561023e57600080fd5b50610247610d30565b005b34801561025557600080fd5b50610270600480360381019061026b9190612b31565b610d44565b005b34801561027e57600080fd5b50610287611239565b6040516102949190612b93565b60405180910390f35b3480156102a957600080fd5b506102b2611263565b6040516102bf9190612b93565b60405180910390f35b3480156102d457600080fd5b506102ef60048036038101906102ea9190612a8a565b611287565b6040516102fc9190612a43565b60405180910390f35b34801561031157600080fd5b5061032c60048036038101906103279190612a8a565b611575565b005b34801561033a57600080fd5b5061035560048036038101906103509190612bae565b6116bc565b005b34801561036357600080fd5b5061037e60048036038101906103799190612a8a565b61187f565b60405161038b9190612a43565b60405180910390f35b3480156103a057600080fd5b506103a9611afe565b6040516103b69190612a43565b60405180910390f35b3480156103cb57600080fd5b506103e660048036038101906103e19190612bee565b611b9f565b005b3480156103f457600080fd5b5061040f600480360381019061040a9190612b31565b611c2c565b005b34801561041d57600080fd5b50610438600480360381019061043391906129fd565b612087565b005b34801561044657600080fd5b5061044f61210a565b60405161045c9190612c4f565b60405180910390f35b60026020528060005260406000206000915090505481565b61048561212e565b61048f813361217d565b610497612342565b50565b7f000000000000000000000000000000000000000000000000000000000000000081565b6104c661212e565b60008311610509576040517f08c379a000000000000000000000000000000000000000000000000000000000815260040161050090612cc7565b60405180910390fd5b6105563330857f000000000000000000000000000000000000000000000000000000000000000073ffffffffffffffffffffffffffffffffffffffff1661234c909392919063ffffffff16565b6105c27f000000000000000000000000000000000000000000000000000000000000000060007f000000000000000000000000000000000000000000000000000000000000000073ffffffffffffffffffffffffffffffffffffffff166123d59092919063ffffffff16565b61062d7f0000000000000000000000000000000000000000000000000000000000000000847f000000000000000000000000000000000000000000000000000000000000000073ffffffffffffffffffffffffffffffffffffffff166123d59092919063ffffffff16565b6000600367ffffffffffffffff81111561064a57610649612ce7565b5b6040519080825280602002602001820160405280156106785781602001602082028036833780820191505090505b5090507f0000000000000000000000000000000000000000000000000000000000000000816000815181106106b0576106af612d16565b5b602002602001019073ffffffffffffffffffffffffffffffffffffffff16908173ffffffffffffffffffffffffffffffffffffffff16815250507f00000000000000000000000000000000000000000000000000000000000000008160018151811061071f5761071e612d16565b5b602002602001019073ffffffffffffffffffffffffffffffffffffffff16908173ffffffffffffffffffffffffffffffffffffffff16815250507f00000000000000000000000000000000000000000000000000000000000000008160028151811061078e5761078d612d16565b5b602002602001019073ffffffffffffffffffffffffffffffffffffffff16908173ffffffffffffffffffffffffffffffffffffffff168152505060007f000000000000000000000000000000000000000000000000000000000000000073ffffffffffffffffffffffffffffffffffffffff166338ed173986868533886040518663ffffffff1660e01b815260040161082b959493929190612e03565b6000604051808303816000875af115801561084a573d6000803e3d6000fd5b505050506040513d6000823e3d601f19601f820116820180604052508101906108739190612f9c565b90507f000000000000000000000000000000000000000000000000000000000000000073ffffffffffffffffffffffffffffffffffffffff163373ffffffffffffffffffffffffffffffffffffffff167fa078c4190abe07940190effc1846be0ccf03ad6007bc9e93f9697d0b460befbb8784600186516108f49190613014565b8151811061090557610904612d16565b5b602002602001015160405161091b929190613048565b60405180910390a3505061092d612342565b505050565b7f000000000000000000000000000000000000000000000000000000000000000081565b61095e61212e565b600083116109a1576040517f08c379a000000000000000000000000000000000000000000000000000000000815260040161099890612cc7565b60405180910390fd5b6109ee3330857f000000000000000000000000000000000000000000000000000000000000000073ffffffffffffffffffffffffffffffffffffffff1661234c909392919063ffffffff16565b610a5a7f000000000000000000000000000000000000000000000000000000000000000060007f000000000000000000000000000000000000000000000000000000000000000073ffffffffffffffffffffffffffffffffffffffff166123d59092919063ffffffff16565b610ac57f0000000000000000000000000000000000000000000000000000000000000000847f000000000000000000000000000000000000000000000000000000000000000073ffffffffffffffffffffffffffffffffffffffff166123d59092919063ffffffff16565b6000600267ffffffffffffffff811115610ae257610ae1612ce7565b5b604051908082528060200260200182016040528015610b105781602001602082028036833780820191505090505b5090507f000000000000000000000000000000000000000000000000000000000000000081600081518110610b4857610b47612d16565b5b602002602001019073ffffffffffffffffffffffffffffffffffffffff16908173ffffffffffffffffffffffffffffffffffffffff16815250507f000000000000000000000000000000000000000000000000000000000000000081600181518110610bb757610bb6612d16565b5b602002602001019073ffffffffffffffffffffffffffffffffffffffff16908173ffffffffffffffffffffffffffffffffffffffff168152505060007f000000000000000000000000000000000000000000000000000000000000000073ffffffffffffffffffffffffffffffffffffffff166318cbafe586868533886040518663ffffffff1660e01b8152600401610c54959493929190612e03565b6000604051808303816000875af1158015610c73573d6000803e3d6000fd5b505050506040513d6000823e3d601f19601f82011682018060405250810190610c9c9190612f9c565b9050600073ffffffffffffffffffffffffffffffffffffffff163373ffffffffffffffffffffffffffffffffffffffff167fa078c4190abe07940190effc1846be0ccf03ad6007bc9e93f9697d0b460befbb8784600181518110610d0357610d02612d16565b5b6020026020010151604051610d19929190613048565b60405180910390a35050610d2b612342565b505050565b610d38612524565b610d4260006125a2565b565b610d4c61212e565b60008311610d8f576040517f08c379a0000000000000000000000000000000000000000000000000000000008152600401610d8690612cc7565b60405180910390fd5b6000600260003373ffffffffffffffffffffffffffffffffffffffff1673ffffffffffffffffffffffffffffffffffffffff16815260200190815260200160002054905083811015610e16576040517f08c379a0000000000000000000000000000000000000000000000000000000008152600401610e0d906130bd565b60405180910390fd5b838103600260003373ffffffffffffffffffffffffffffffffffffffff1673ffffffffffffffffffffffffffffffffffffffff16815260200190815260200160002081905550610ec87f000000000000000000000000000000000000000000000000000000000000000060007f000000000000000000000000000000000000000000000000000000000000000073ffffffffffffffffffffffffffffffffffffffff166123d59092919063ffffffff16565b610f337f0000000000000000000000000000000000000000000000000000000000000000857f000000000000000000000000000000000000000000000000000000000000000073ffffffffffffffffffffffffffffffffffffffff166123d59092919063ffffffff16565b6000600367ffffffffffffffff811115610f5057610f4f612ce7565b5b604051908082528060200260200182016040528015610f7e5781602001602082028036833780820191505090505b5090507f000000000000000000000000000000000000000000000000000000000000000081600081518110610fb657610fb5612d16565b5b602002602001019073ffffffffffffffffffffffffffffffffffffffff16908173ffffffffffffffffffffffffffffffffffffffff16815250507f00000000000000000000000000000000000000000000000000000000000000008160018151811061102557611024612d16565b5b602002602001019073ffffffffffffffffffffffffffffffffffffffff16908173ffffffffffffffffffffffffffffffffffffffff16815250507f00000000000000000000000000000000000000000000000000000000000000008160028151811061109457611093612d16565b5b602002602001019073ffffffffffffffffffffffffffffffffffffffff16908173ffffffffffffffffffffffffffffffffffffffff168152505060007f000000000000000000000000000000000000000000000000000000000000000073ffffffffffffffffffffffffffffffffffffffff166338ed173987878533896040518663ffffffff1660e01b8152600401611131959493929190612e03565b6000604051808303816000875af1158015611150573d6000803e3d6000fd5b505050506040513d6000823e3d601f19601f820116820180604052508101906111799190612f9c565b90507f000000000000000000000000000000000000000000000000000000000000000073ffffffffffffffffffffffffffffffffffffffff163373ffffffffffffffffffffffffffffffffffffffff167fa078c4190abe07940190effc1846be0ccf03ad6007bc9e93f9697d0b460befbb8884600186516111fa9190613014565b8151811061120b5761120a612d16565b5b6020026020010151604051611221929190613048565b60405180910390a3505050611234612342565b505050565b6000600160009054906101000a900473ffffffffffffffffffffffffffffffffffffffff16905090565b7f000000000000000000000000000000000000000000000000000000000000000081565b60008082116112cb576040517f08c379a00000000000000000000000000000000000000000000000000000000081526004016112c290612cc7565b60405180910390fd5b6000600367ffffffffffffffff8111156112e8576112e7612ce7565b5b6040519080825280602002602001820160405280156113165781602001602082028036833780820191505090505b5090507f00000000000000000000000000000000000000000000000000000000000000008160008151811061134e5761134d612d16565b5b602002602001019073ffffffffffffffffffffffffffffffffffffffff16908173ffffffffffffffffffffffffffffffffffffffff16815250507f0000000000000000000000000000000000000000000000000000000000000000816001815181106113bd576113bc612d16565b5b602002602001019073ffffffffffffffffffffffffffffffffffffffff16908173ffffffffffffffffffffffffffffffffffffffff16815250507f00000000000000000000000000000000000000000000000000000000000000008160028151811061142c5761142b612d16565b5b602002602001019073ffffffffffffffffffffffffffffffffffffffff16908173ffffffffffffffffffffffffffffffffffffffff168152505060007f000000000000000000000000000000000000000000000000000000000000000073ffffffffffffffffffffffffffffffffffffffff1663d06ca61f85846040518363ffffffff1660e01b81526004016114c39291906130dd565b600060405180830381865afa1580156114e0573d6000803e3d6000fd5b505050506040513d6000823e3d601f19601f820116820180604052508101906115099190612f9c565b9050600381511015611550576040517f08c379a000000000000000000000000000000000000000000000000000000000815260040161154790613159565b60405180910390fd5b8060028151811061156457611563612d16565b5b602002602001015192505050919050565b61157d61212e565b600081116115c0576040517f08c379a00000000000000000000000000000000000000000000000000000000081526004016115b790612cc7565b60405180910390fd5b61160d3330837f000000000000000000000000000000000000000000000000000000000000000073ffffffffffffffffffffffffffffffffffffffff1661234c909392919063ffffffff16565b80600260003373ffffffffffffffffffffffffffffffffffffffff1673ffffffffffffffffffffffffffffffffffffffff168152602001908152602001600020600082825461165c9190613179565b925050819055503373ffffffffffffffffffffffffffffffffffffffff167f2da466a7b24304f47e87fa2e1e5a81b9831ce54fec19055ce277ca2f39ba42c4826040516116a99190612a43565b60405180910390a26116b9612342565b50565b6116c4612524565b6116cc61212e565b600073ffffffffffffffffffffffffffffffffffffffff168173ffffffffffffffffffffffffffffffffffffffff160361173b576040517f08c379a0000000000000000000000000000000000000000000000000000000008152600401611732906131f9565b60405180910390fd5b7f000000000000000000000000000000000000000000000000000000000000000073ffffffffffffffffffffffffffffffffffffffff168273ffffffffffffffffffffffffffffffffffffffff16036117c9576040517f08c379a00000000000000000000000000000000000000000000000000000000081526004016117c090613265565b60405180910390fd5b60008273ffffffffffffffffffffffffffffffffffffffff166370a08231306040518263ffffffff1660e01b81526004016118049190612b93565b602060405180830381865afa158015611821573d6000803e3d6000fd5b505050506040513d601f19601f820116820180604052508101906118459190613285565b905061187282828573ffffffffffffffffffffffffffffffffffffffff166126689092919063ffffffff16565b5061187b612342565b5050565b60008082116118c3576040517f08c379a00000000000000000000000000000000000000000000000000000000081526004016118ba90612cc7565b60405180910390fd5b6000600267ffffffffffffffff8111156118e0576118df612ce7565b5b60405190808252806020026020018201604052801561190e5781602001602082028036833780820191505090505b5090507f00000000000000000000000000000000000000000000000000000000000000008160008151811061194657611945612d16565b5b602002602001019073ffffffffffffffffffffffffffffffffffffffff16908173ffffffffffffffffffffffffffffffffffffffff16815250507f0000000000000000000000000000000000000000000000000000000000000000816001815181106119b5576119b4612d16565b5b602002602001019073ffffffffffffffffffffffffffffffffffffffff16908173ffffffffffffffffffffffffffffffffffffffff168152505060007f000000000000000000000000000000000000000000000000000000000000000073ffffffffffffffffffffffffffffffffffffffff1663d06ca61f85846040518363ffffffff1660e01b8152600401611a4c9291906130dd565b600060405180830381865afa158015611a69573d6000803e3d6000fd5b505050506040513d6000823e3d601f19601f82011682018060405250810190611a929190612f9c565b9050600281511015611ad9576040517f08c379a0000000000000000000000000000000000000000000000000000000008152600401611ad090613159565b60405180910390fd5b80600181518110611aed57611aec612d16565b5b602002602001015192505050919050565b60007f000000000000000000000000000000000000000000000000000000000000000073ffffffffffffffffffffffffffffffffffffffff166370a08231306040518263ffffffff1660e01b8152600401611b599190612b93565b602060405180830381865afa158015611b76573d6000803e3d6000fd5b505050506040513d601f19601f82011682018060405250810190611b9a9190613285565b905090565b611ba761212e565b600073ffffffffffffffffffffffffffffffffffffffff168173ffffffffffffffffffffffffffffffffffffffff1603611c16576040517f08c379a0000000000000000000000000000000000000000000000000000000008152600401611c0d906131f9565b60405180910390fd5b611c20828261217d565b611c28612342565b5050565b611c3461212e565b60008311611c77576040517f08c379a0000000000000000000000000000000000000000000000000000000008152600401611c6e90612cc7565b60405180910390fd5b6000600260003373ffffffffffffffffffffffffffffffffffffffff1673ffffffffffffffffffffffffffffffffffffffff16815260200190815260200160002054905083811015611cfe576040517f08c379a0000000000000000000000000000000000000000000000000000000008152600401611cf5906130bd565b60405180910390fd5b838103600260003373ffffffffffffffffffffffffffffffffffffffff1673ffffffffffffffffffffffffffffffffffffffff16815260200190815260200160002081905550611db07f000000000000000000000000000000000000000000000000000000000000000060007f000000000000000000000000000000000000000000000000000000000000000073ffffffffffffffffffffffffffffffffffffffff166123d59092919063ffffffff16565b611e1b7f0000000000000000000000000000000000000000000000000000000000000000857f000000000000000000000000000000000000000000000000000000000000000073ffffffffffffffffffffffffffffffffffffffff166123d59092919063ffffffff16565b6000600267ffffffffffffffff811115611e3857611e37612ce7565b5b604051908082528060200260200182016040528015611e665781602001602082028036833780820191505090505b5090507f000000000000000000000000000000000000000000000000000000000000000081600081518110611e9e57611e9d612d16565b5b602002602001019073ffffffffffffffffffffffffffffffffffffffff16908173ffffffffffffffffffffffffffffffffffffffff16815250507f000000000000000000000000000000000000000000000000000000000000000081600181518110611f0d57611f0c612d16565b5b602002602001019073ffffffffffffffffffffffffffffffffffffffff16908173ffffffffffffffffffffffffffffffffffffffff168152505060007f000000000000000000000000000000000000000000000000000000000000000073ffffffffffffffffffffffffffffffffffffffff166318cbafe587878533896040518663ffffffff1660e01b8152600401611faa959493929190612e03565b6000604051808303816000875af1158015611fc9573d6000803e3d6000fd5b505050506040513d6000823e3d601f19601f82011682018060405250810190611ff29190612f9c565b9050600073ffffffffffffffffffffffffffffffffffffffff163373ffffffffffffffffffffffffffffffffffffffff167fa078c4190abe07940190effc1846be0ccf03ad6007bc9e93f9697d0b460befbb888460018151811061205957612058612d16565b5b602002602001015160405161206f929190613048565b60405180910390a3505050612082612342565b505050565b61208f612524565b600073ffffffffffffffffffffffffffffffffffffffff168173ffffffffffffffffffffffffffffffffffffffff16036120fe576040517f08c379a00000000000000000000000000000000000000000000000000000000081526004016120f590613324565b60405180910390fd5b612107816125a2565b50565b7f000000000000000000000000000000000000000000000000000000000000000081565b600260005403612173576040517f08c379a000000000000000000000000000000000000000000000000000000000815260040161216a90613390565b60405180910390fd5b6002600081905550565b600082116121c0576040517f08c379a00000000000000000000000000000000000000000000000000000000081526004016121b790612cc7565b60405180910390fd5b6000600260003373ffffffffffffffffffffffffffffffffffffffff1673ffffffffffffffffffffffffffffffffffffffff16815260200190815260200160002054905082811015612247576040517f08c379a000000000000000000000000000000000000000000000000000000000815260040161223e906130bd565b60405180910390fd5b828103600260003373ffffffffffffffffffffffffffffffffffffffff1673ffffffffffffffffffffffffffffffffffffffff168152602001908152602001600020819055506122d882847f000000000000000000000000000000000000000000000000000000000000000073ffffffffffffffffffffffffffffffffffffffff166126689092919063ffffffff16565b8173ffffffffffffffffffffffffffffffffffffffff163373ffffffffffffffffffffffffffffffffffffffff167fd1c19fbcd4551a5edfb66d43d2e337c04837afda3482b42bdf569a8fccdae5fb856040516123359190612a43565b60405180910390a3505050565b6001600081905550565b6123cf846323b872dd60e01b85858560405160240161236d939291906133b0565b604051602081830303815290604052907bffffffffffffffffffffffffffffffffffffffffffffffffffffffff19166020820180517bffffffffffffffffffffffffffffffffffffffffffffffffffffffff83818316178352505050506126ee565b50505050565b600081148061245f575060008373ffffffffffffffffffffffffffffffffffffffff1663dd62ed3e30856040518363ffffffff1660e01b815260040161241c9291906133e7565b602060405180830381865afa158015612439573d6000803e3d6000fd5b505050506040513d601f19601f8201168201806040525081019061245d9190613285565b145b61249e576040517f08c379a000000000000000000000000000000000000000000000000000000000815260040161249590613482565b60405180910390fd5b61251f8363095ea7b360e01b84846040516024016124bd9291906134a2565b604051602081830303815290604052907bffffffffffffffffffffffffffffffffffffffffffffffffffffffff19166020820180517bffffffffffffffffffffffffffffffffffffffffffffffffffffffff83818316178352505050506126ee565b505050565b61252c6127b6565b73ffffffffffffffffffffffffffffffffffffffff1661254a611239565b73ffffffffffffffffffffffffffffffffffffffff16146125a0576040517f08c379a000000000000000000000000000000000000000000000000000000000815260040161259790613517565b60405180910390fd5b565b6000600160009054906101000a900473ffffffffffffffffffffffffffffffffffffffff16905081600160006101000a81548173ffffffffffffffffffffffffffffffffffffffff021916908373ffffffffffffffffffffffffffffffffffffffff1602179055508173ffffffffffffffffffffffffffffffffffffffff168173ffffffffffffffffffffffffffffffffffffffff167f8be0079c531659141344cd1fd0a4f28419497f9722a3daafe3b4186f6b6457e060405160405180910390a35050565b6126e98363a9059cbb60e01b84846040516024016126879291906134a2565b604051602081830303815290604052907bffffffffffffffffffffffffffffffffffffffffffffffffffffffff19166020820180517bffffffffffffffffffffffffffffffffffffffffffffffffffffffff83818316178352505050506126ee565b505050565b6000612750826040518060400160405280602081526020017f5361666545524332303a206c6f772d6c6576656c2063616c6c206661696c65648152508573ffffffffffffffffffffffffffffffffffffffff166127be9092919063ffffffff16565b9050600081511480612772575080806020019051810190612771919061356f565b5b6127b1576040517f08c379a00000000000000000000000000000000000000000000000000000000081526004016127a89061360e565b60405180910390fd5b505050565b600033905090565b60606127cd84846000856127d6565b90509392505050565b60608247101561281b576040517f08c379a0000000000000000000000000000000000000000000000000000000008152600401612812906136a0565b60405180910390fd5b6000808673ffffffffffffffffffffffffffffffffffffffff1685876040516128449190613731565b60006040518083038185875af1925050503d8060008114612881576040519150601f19603f3d011682016040523d82523d6000602084013e612886565b606091505b5091509150612897878383876128a3565b92505050949350505050565b606083156129055760008351036128fd576128bd85612918565b6128fc576040517f08c379a00000000000000000000000000000000000000000000000000000000081526004016128f390613794565b60405180910390fd5b5b829050612910565b61290f838361293b565b5b949350505050565b6000808273ffffffffffffffffffffffffffffffffffffffff163b119050919050565b60008251111561294e5781518083602001fd5b806040517f08c379a000000000000000000000000000000000000000000000000000000000815260040161298291906137f8565b60405180910390fd5b6000604051905090565b600080fd5b600080fd5b600073ffffffffffffffffffffffffffffffffffffffff82169050919050565b60006129ca8261299f565b9050919050565b6129da816129bf565b81146129e557600080fd5b50565b6000813590506129f7816129d1565b92915050565b600060208284031215612a1357612a12612995565b5b6000612a21848285016129e8565b91505092915050565b6000819050919050565b612a3d81612a2a565b82525050565b6000602082019050612a586000830184612a34565b92915050565b612a6781612a2a565b8114612a7257600080fd5b50565b600081359050612a8481612a5e565b92915050565b600060208284031215612aa057612a9f612995565b5b6000612aae84828501612a75565b91505092915050565b6000819050919050565b6000612adc612ad7612ad28461299f565b612ab7565b61299f565b9050919050565b6000612aee82612ac1565b9050919050565b6000612b0082612ae3565b9050919050565b612b1081612af5565b82525050565b6000602082019050612b2b6000830184612b07565b92915050565b600080600060608486031215612b4a57612b49612995565b5b6000612b5886828701612a75565b9350506020612b6986828701612a75565b9250506040612b7a86828701612a75565b9150509250925092565b612b8d816129bf565b82525050565b6000602082019050612ba86000830184612b84565b92915050565b60008060408385031215612bc557612bc4612995565b5b6000612bd3858286016129e8565b9250506020612be4858286016129e8565b9150509250929050565b60008060408385031215612c0557612c04612995565b5b6000612c1385828601612a75565b9250506020612c24858286016129e8565b9150509250929050565b6000612c3982612ae3565b9050919050565b612c4981612c2e565b82525050565b6000602082019050612c646000830184612c40565b92915050565b600082825260208201905092915050565b7f616d6f756e743d30000000000000000000000000000000000000000000000000600082015250565b6000612cb1600883612c6a565b9150612cbc82612c7b565b602082019050919050565b60006020820190508181036000830152612ce081612ca4565b9050919050565b7f4e487b7100000000000000000000000000000000000000000000000000000000600052604160045260246000fd5b7f4e487b7100000000000000000000000000000000000000000000000000000000600052603260045260246000fd5b600081519050919050565b600082825260208201905092915050565b6000819050602082019050919050565b612d7a816129bf565b82525050565b6000612d8c8383612d71565b60208301905092915050565b6000602082019050919050565b6000612db082612d45565b612dba8185612d50565b9350612dc583612d61565b8060005b83811015612df6578151612ddd8882612d80565b9750612de883612d98565b925050600181019050612dc9565b5085935050505092915050565b600060a082019050612e186000830188612a34565b612e256020830187612a34565b8181036040830152612e378186612da5565b9050612e466060830185612b84565b612e536080830184612a34565b9695505050505050565b600080fd5b6000601f19601f8301169050919050565b612e7c82612e62565b810181811067ffffffffffffffff82111715612e9b57612e9a612ce7565b5b80604052505050565b6000612eae61298b565b9050612eba8282612e73565b919050565b600067ffffffffffffffff821115612eda57612ed9612ce7565b5b602082029050602081019050919050565b600080fd5b600081519050612eff81612a5e565b92915050565b6000612f18612f1384612ebf565b612ea4565b90508083825260208201905060208402830185811115612f3b57612f3a612eeb565b5b835b81811015612f645780612f508882612ef0565b845260208401935050602081019050612f3d565b5050509392505050565b600082601f830112612f8357612f82612e5d565b5b8151612f93848260208601612f05565b91505092915050565b600060208284031215612fb257612fb1612995565b5b600082015167ffffffffffffffff811115612fd057612fcf61299a565b5b612fdc84828501612f6e565b91505092915050565b7f4e487b7100000000000000000000000000000000000000000000000000000000600052601160045260246000fd5b600061301f82612a2a565b915061302a83612a2a565b925082820390508181111561304257613041612fe5565b5b92915050565b600060408201905061305d6000830185612a34565b61306a6020830184612a34565b9392505050565b7f696e73756666696369656e740000000000000000000000000000000000000000600082015250565b60006130a7600c83612c6a565b91506130b282613071565b602082019050919050565b600060208201905081810360008301526130d68161309a565b9050919050565b60006040820190506130f26000830185612a34565b81810360208301526131048184612da5565b90509392505050565b7f696e76616c696420616d6f756e7473206c656e67746800000000000000000000600082015250565b6000613143601683612c6a565b915061314e8261310d565b602082019050919050565b6000602082019050818103600083015261317281613136565b9050919050565b600061318482612a2a565b915061318f83612a2a565b92508282019050808211156131a7576131a6612fe5565b5b92915050565b7f746f3d3000000000000000000000000000000000000000000000000000000000600082015250565b60006131e3600483612c6a565b91506131ee826131ad565b602082019050919050565b60006020820190508181036000830152613212816131d6565b9050919050565b7f6e6f207377656570205553445400000000000000000000000000000000000000600082015250565b600061324f600d83612c6a565b915061325a82613219565b602082019050919050565b6000602082019050818103600083015261327e81613242565b9050919050565b60006020828403121561329b5761329a612995565b5b60006132a984828501612ef0565b91505092915050565b7f4f776e61626c653a206e6577206f776e657220697320746865207a65726f206160008201527f6464726573730000000000000000000000000000000000000000000000000000602082015250565b600061330e602683612c6a565b9150613319826132b2565b604082019050919050565b6000602082019050818103600083015261333d81613301565b9050919050565b7f5265656e7472616e637947756172643a207265656e7472616e742063616c6c00600082015250565b600061337a601f83612c6a565b915061338582613344565b602082019050919050565b600060208201905081810360008301526133a98161336d565b9050919050565b60006060820190506133c56000830186612b84565b6133d26020830185612b84565b6133df6040830184612a34565b949350505050565b60006040820190506133fc6000830185612b84565b6134096020830184612b84565b9392505050565b7f5361666545524332303a20617070726f76652066726f6d206e6f6e2d7a65726f60008201527f20746f206e6f6e2d7a65726f20616c6c6f77616e636500000000000000000000602082015250565b600061346c603683612c6a565b915061347782613410565b604082019050919050565b6000602082019050818103600083015261349b8161345f565b9050919050565b60006040820190506134b76000830185612b84565b6134c46020830184612a34565b9392505050565b7f4f776e61626c653a2063616c6c6572206973206e6f7420746865206f776e6572600082015250565b6000613501602083612c6a565b915061350c826134cb565b602082019050919050565b60006020820190508181036000830152613530816134f4565b9050919050565b60008115159050919050565b61354c81613537565b811461355757600080fd5b50565b60008151905061356981613543565b92915050565b60006020828403121561358557613584612995565b5b60006135938482850161355a565b91505092915050565b7f5361666545524332303a204552433230206f7065726174696f6e20646964206e60008201527f6f74207375636365656400000000000000000000000000000000000000000000602082015250565b60006135f8602a83612c6a565b91506136038261359c565b604082019050919050565b60006020820190508181036000830152613627816135eb565b9050919050565b7f416464726573733a20696e73756666696369656e742062616c616e636520666f60008201527f722063616c6c0000000000000000000000000000000000000000000000000000602082015250565b600061368a602683612c6a565b91506136958261362e565b604082019050919050565b600060208201905081810360008301526136b98161367d565b9050919050565b600081519050919050565b600081905092915050565b60005b838110156136f45780820151818401526020810190506136d9565b60008484015250505050565b600061370b826136c0565b61371581856136cb565b93506137258185602086016136d6565b80840191505092915050565b600061373d8284613700565b915081905092915050565b7f416464726573733a2063616c6c20746f206e6f6e2d636f6e7472616374000000600082015250565b600061377e601d83612c6a565b915061378982613748565b602082019050919050565b600060208201905081810360008301526137ad81613771565b9050919050565b600081519050919050565b60006137ca826137b4565b6137d48185612c6a565b93506137e48185602086016136d6565b6137ed81612e62565b840191505092915050565b6000602082019050818103600083015261381281846137bf565b90509291505056fea264697066735822122047bbd396dfb438581dae2282c565e51789bc7f80c1aab2016726675f57b42c8964736f6c63430008180033",
  "linkReferences": {},
  "deployedLinkReferences": {}
}