{"contracts/UsdtSafeboxV3.sol":{"UsdtSafeboxV3":{"abi":[{"inputs":[{"internalType":"address","name":"usdtAddress","type":"address"},{"internalType":"address","name":"routerAddress","type":"address"},{"internalType":"address","name":"wbnbAddress","type":"address"},{"internalType":"address","name":"cakeAddress","type":"address"},{"internalType":"address","name":"btcUsdFeedAddress","type":"address"}],"stateMutability":"nonpayable","type":"constructor"},{"anonymous":false,"inputs":[{"indexed":true,"internalType":"address","name":"user","type":"address"},{"indexed":true,"internalType":"address","name":"tokenOut","type":"address"},{"indexed":false,"internalType":"uint256","name":"usdtIn","type":"uint256"},{"indexed":false,"internalType":"uint256","name":"outAmount","type":"uint256"},{"indexed":false,"internalType":"int256","name":"base","type":"int256"},{"indexed":false,"internalType":"int256","name":"nowPx","type":"int256"},{"indexed":false,"internalType":"uint64","name":"at","type":"uint64"}],"name":"AutoSwapTriggered","type":"event"},{"anonymous":false,"inputs":[{"indexed":true,"internalType":"address","name":"user","type":"address"},{"indexed":false,"internalType":"int256","name":"price","type":"int256"},{"indexed":false,"internalType":"uint64","name":"at","type":"uint64"}],"name":"BaselineSet","type":"event"},{"anonymous":false,"inputs":[{"indexed":true,"internalType":"address","name":"user","type":"address"},{"indexed":false,"internalType":"uint256","name":"amount","type":"uint256"}],"name":"Deposited","type":"event"},{"anonymous":false,"inputs":[{"indexed":true,"internalType":"address","name":"previousOwner","type":"address"},{"indexed":true,"internalType":"address","name":"newOwner","type":"address"}],"name":"OwnershipTransferred","type":"event"},{"anonymous":false,"inputs":[{"indexed":true,"internalType":"address","name":"user","type":"address"},{"indexed":true,"internalType":"address","name":"tokenOut","type":"address"},{"indexed":false,"internalType":"uint256","name":"usdtIn","type":"uint256"},{"indexed":false,"internalType":"uint256","name":"amountOut","type":"uint256"}],"name":"Swapped","type":"event"},{"anonymous":false,"inputs":[{"indexed":true,"internalType":"address","name":"user","type":"address"},{"indexed":true,"internalType":"address","name":"to","type":"address"},{"indexed":false,"internalType":"uint256","name":"amount","type":"uint256"}],"name":"Withdrawn","type":"event"},{"inputs":[],"name":"CAKE","outputs":[{"internalType":"address","name":"","type":"address"}],"stateMutability":"view","type":"function"},{"inputs":[],"name":"DROP_BPS","outputs":[{"internalType":"uint16","name":"","type":"uint16"}],"stateMutability":"view","type":"function"},{"inputs":[],"name":"WBNB","outputs":[{"internalType":"address","name":"","type":"address"}],"stateMutability":"view","type":"function"},{"inputs":[{"internalType":"address","name":"","type":"address"}],"name":"balances","outputs":[{"internalType":"uint256","name":"","type":"uint256"}],"stateMutability":"view","type":"function"},{"inputs":[{"internalType":"address","name":"user","type":"address"}],"name":"baselineOf","outputs":[{"internalType":"int256","name":"price","type":"int256"},{"internalType":"uint64","name":"at","type":"uint64"}],"stateMutability":"view","type":"function"},{"inputs":[],"name":"btcUsdFeed","outputs":[{"internalType":"contract AggregatorV3Interface","name":"","type":"address"}],"stateMutability":"view","type":"function"},{"inputs":[{"internalType":"uint256","name":"amount","type":"uint256"}],"name":"deposit","outputs":[],"stateMutability":"nonpayable","type":"function"},{"inputs":[],"name":"owner","outputs":[{"internalType":"address","name":"","type":"address"}],"stateMutability":"view","type":"function"},{"inputs":[{"internalType":"address","name":"user","type":"address"},{"internalType":"uint16","name":"slipBps","type":"uint16"},{"internalType":"uint256","name":"deadline","type":"uint256"}],"name":"performAutoBNBFor","outputs":[],"stateMutability":"nonpayable","type":"function"},{"inputs":[{"internalType":"address","name":"user","type":"address"},{"internalType":"uint16","name":"slipBps","type":"uint16"},{"internalType":"uint256","name":"deadline","type":"uint256"}],"name":"performAutoCAKEFor","outputs":[],"stateMutability":"nonpayable","type":"function"},{"inputs":[{"internalType":"uint256","name":"usdtAmount","type":"uint256"}],"name":"previewUsdtToBNB","outputs":[{"internalType":"uint256","name":"outBNB","type":"uint256"}],"stateMutability":"view","type":"function"},{"inputs":[{"internalType":"uint256","name":"usdtAmount","type":"uint256"}],"name":"previewUsdtToCAKE","outputs":[{"internalType":"uint256","name":"outCAKE","type":"uint256"}],"stateMutability":"view","type":"function"},{"inputs":[],"name":"renounceOwnership","outputs":[],"stateMutability":"nonpayable","type":"function"},{"inputs":[],"name":"resetBaseline","outputs":[],"stateMutability":"nonpayable","type":"function"},{"inputs":[],"name":"router","outputs":[{"internalType":"contract IPancakeRouter02","name":"","type":"address"}],"stateMutability":"view","type":"function"},{"inputs":[{"internalType":"address","name":"user","type":"address"}],"name":"shouldTrigger","outputs":[{"internalType":"bool","name":"ready","type":"bool"},{"internalType":"uint256","name":"dropBps","type":"uint256"},{"internalType":"int256","name":"basePrice","type":"int256"},{"internalType":"int256","name":"nowPrice","type":"int256"},{"internalType":"uint8","name":"feedDecimals","type":"uint8"},{"internalType":"uint256","name":"userVault","type":"uint256"}],"stateMutability":"view","type":"function"},{"inputs":[{"internalType":"uint256","name":"usdtAmount","type":"uint256"},{"internalType":"uint256","name":"amountOutMin","type":"uint256"},{"internalType":"uint256","name":"deadline","type":"uint256"}],"name":"swapUsdtToBNB","outputs":[],"stateMutability":"nonpayable","type":"function"},{"inputs":[{"internalType":"uint256","name":"usdtAmount","type":"uint256"},{"internalType":"uint256","name":"amountOutMin","type":"uint256"},{"internalType":"uint256","name":"deadline","type":"uint256"}],"name":"swapUsdtToCAKE","outputs":[],"stateMutability":"nonpayable","type":"function"},{"inputs":[],"name":"totalUsdt","outputs":[{"internalType":"uint256","name":"","type":"uint256"}],"stateMutability":"view","type":"function"},{"inputs":[{"internalType":"address","name":"newOwner","type":"address"}],"name":"transferOwnership","outputs":[],"stateMutability":"nonpayable","type":"function"},{"inputs":[],"name":"usdt","outputs":[{"internalType":"contract IERC20","name":"","type":"address"}],"stateMutability":"view","type":"function"},{"inputs":[{"internalType":"address","name":"","type":"address"}],"name":"userBaseline","outputs":[{"internalType":"int256","name":"price","type":"int256"},{"internalType":"uint64","name":"setAt","type":"uint64"}],"stateMutability":"view","type":"function"},{"inputs":[{"internalType":"uint256","name":"amount","type":"uint256"}],"name":"withdraw","outputs":[],"stateMutability":"nonpayable","type":"function"},{"inputs":[{"internalType":"uint256","name":"amount","type":"uint256"},{"internalType":"address","name":"to","type":"address"}],"name":"withdrawTo","outputs":[],"stateMutability":"nonpayable","type":"function"},{"stateMutability":"payable","type":"receive"}],"evm":{"bytecode":{"linkReferences":{},"object":"6101206040523480156200001257600080fd5b50604051620052c2380380620052c28339818101604052810190620000389190620004e2565b60016000819055506200006062000054620003aa60201b60201c565b620003b260201b60201c565b600073ffffffffffffffffffffffffffffffffffffffff168573ffffffffffffffffffffffffffffffffffffffff1603620000d2576040517f08c379a0000000000000000000000000000000000000000000000000000000008152600401620000c990620005cb565b60405180910390fd5b600073ffffffffffffffffffffffffffffffffffffffff168473ffffffffffffffffffffffffffffffffffffffff160362000144576040517f08c379a00000000000000000000000000000000000000000000000000000000081526004016200013b906200063d565b60405180910390fd5b600073ffffffffffffffffffffffffffffffffffffffff168373ffffffffffffffffffffffffffffffffffffffff1603620001b6576040517f08c379a0000000000000000000000000000000000000000000000000000000008152600401620001ad90620006af565b60405180910390fd5b600073ffffffffffffffffffffffffffffffffffffffff168273ffffffffffffffffffffffffffffffffffffffff160362000228576040517f08c379a00000000000000000000000000000000000000000000000000000000081526004016200021f9062000721565b60405180910390fd5b600073ffffffffffffffffffffffffffffffffffffffff168173ffffffffffffffffffffffffffffffffffffffff16036200029a576040517f08c379a0000000000000000000000000000000000000000000000000000000008152600401620002919062000793565b60405180910390fd5b8473ffffffffffffffffffffffffffffffffffffffff1660808173ffffffffffffffffffffffffffffffffffffffff16815250508373ffffffffffffffffffffffffffffffffffffffff1660a08173ffffffffffffffffffffffffffffffffffffffff16815250508273ffffffffffffffffffffffffffffffffffffffff1660c08173ffffffffffffffffffffffffffffffffffffffff16815250508173ffffffffffffffffffffffffffffffffffffffff1660e08173ffffffffffffffffffffffffffffffffffffffff16815250508073ffffffffffffffffffffffffffffffffffffffff166101008173ffffffffffffffffffffffffffffffffffffffff16815250505050505050620007b5565b600033905090565b6000600160009054906101000a900473ffffffffffffffffffffffffffffffffffffffff16905081600160006101000a81548173ffffffffffffffffffffffffffffffffffffffff021916908373ffffffffffffffffffffffffffffffffffffffff1602179055508173ffffffffffffffffffffffffffffffffffffffff168173ffffffffffffffffffffffffffffffffffffffff167f8be0079c531659141344cd1fd0a4f28419497f9722a3daafe3b4186f6b6457e060405160405180910390a35050565b600080fd5b600073ffffffffffffffffffffffffffffffffffffffff82169050919050565b6000620004aa826200047d565b9050919050565b620004bc816200049d565b8114620004c857600080fd5b50565b600081519050620004dc81620004b1565b92915050565b600080600080600060a0868803121562000501576200050062000478565b5b60006200051188828901620004cb565b95505060206200052488828901620004cb565b94505060406200053788828901620004cb565b93505060606200054a88828901620004cb565b92505060806200055d88828901620004cb565b9150509295509295909350565b600082825260208201905092915050565b7f555344543d300000000000000000000000000000000000000000000000000000600082015250565b6000620005b36006836200056a565b9150620005c0826200057b565b602082019050919050565b60006020820190508181036000830152620005e681620005a4565b9050919050565b7f524f555445523d30000000000000000000000000000000000000000000000000600082015250565b6000620006256008836200056a565b91506200063282620005ed565b602082019050919050565b60006020820190508181036000830152620006588162000616565b9050919050565b7f57424e423d300000000000000000000000000000000000000000000000000000600082015250565b6000620006976006836200056a565b9150620006a4826200065f565b602082019050919050565b60006020820190508181036000830152620006ca8162000688565b9050919050565b7f43414b453d300000000000000000000000000000000000000000000000000000600082015250565b6000620007096006836200056a565b91506200071682620006d1565b602082019050919050565b600060208201905081810360008301526200073c81620006fa565b9050919050565b7f464545443d300000000000000000000000000000000000000000000000000000600082015250565b60006200077b6006836200056a565b9150620007888262000743565b602082019050919050565b60006020820190508181036000830152620007ae816200076c565b9050919050565b60805160a05160c05160e051610100516149866200093c6000396000818161248f0152818161306a01526131420152600081816109e001528181610c2f01528181610d5d015281816116c8015281816118290152611b4601526000818161097101528181611047015281816116590152818161191101528181611ad70152818161203c015261275f0152600081816107e00152818161084c01528181610a5101528181610b3f01528181610eb601528181610f22015281816110b8015281816111a6015281816114c8015281816115340152818161173901528181611bb7015281816120ad015281816125ce0152818161263a015281816127d001526129d6015260008181610687015281816108030152818161086e0152818161090201528181610ed901528181610f4401528181610fd8015281816114eb01528181611556015281816115ea01528181611a6801528181611d1501528181611fcd015281816122b6015281816125f10152818161265c015281816126f00152612c8f01526149866000f3fe60806040526004361061014f5760003560e01c8063a1d52c99116100b6578063c86283c81161006f578063c86283c81461048b578063d310d14d146104b4578063dfd3d0be146104df578063f2fde38b14610508578063f887ea4014610531578063fd165f531461055c57610156565b8063a1d52c9914610368578063b6b55f25146103a5578063bcae7eac146103ce578063bd5f99fc1461040c578063c352710c14610449578063c40cb8541461046057610156565b8063637d3fdb11610108578063637d3fdb1461026b578063715018a61461029457806379d60f28146102ab5780638da5cb5b146102d45780638dd95002146102ff57806391352bbb1461032a57610156565b80630be1d8af1461015b57806327e235e3146101865780632e1a7d4d146101c35780632f48ab7d146101ec5780634675fed9146102175780634ca6ef281461024057610156565b3661015657005b600080fd5b34801561016757600080fd5b5061017061059e565b60405161017d919061357c565b60405180910390f35b34801561019257600080fd5b506101ad60048036038101906101a89190613609565b6105a3565b6040516101ba919061364f565b60405180910390f35b3480156101cf57600080fd5b506101ea60048036038101906101e59190613696565b6105bb565b005b3480156101f857600080fd5b50610201610685565b60405161020e9190613722565b60405180910390f35b34801561022357600080fd5b5061023e60048036038101906102399190613769565b6106a9565b005b34801561024c57600080fd5b50610255610d5b565b60405161026291906137cb565b60405180910390f35b34801561027757600080fd5b50610292600480360381019061028d9190613769565b610d7f565b005b3480156102a057600080fd5b506102a9611397565b005b3480156102b757600080fd5b506102d260048036038101906102cd91906137e6565b6113ab565b005b3480156102e057600080fd5b506102e96118e5565b6040516102f691906137cb565b60405180910390f35b34801561030b57600080fd5b5061031461190f565b60405161032191906137cb565b60405180910390f35b34801561033657600080fd5b50610351600480360381019061034c9190613609565b611933565b60405161035f929190613875565b60405180910390f35b34801561037457600080fd5b5061038f600480360381019061038a9190613696565b6119d4565b60405161039c919061364f565b60405180910390f35b3480156103b157600080fd5b506103cc60048036038101906103c79190613696565b611cc2565b005b3480156103da57600080fd5b506103f560048036038101906103f09190613609565b611f01565b604051610403929190613875565b60405180910390f35b34801561041857600080fd5b50610433600480360381019061042e9190613696565b611f39565b604051610440919061364f565b60405180910390f35b34801561045557600080fd5b5061045e6121b8565b005b34801561046c57600080fd5b506104756122b2565b604051610482919061364f565b60405180910390f35b34801561049757600080fd5b506104b260048036038101906104ad919061389e565b612353565b005b3480156104c057600080fd5b506104c961248d565b6040516104d691906138ff565b60405180910390f35b3480156104eb57600080fd5b50610506600480360381019061050191906137e6565b6124b1565b005b34801561051457600080fd5b5061052f600480360381019061052a9190613609565b612951565b005b34801561053d57600080fd5b506105466129d4565b604051610553919061393b565b60405180910390f35b34801561056857600080fd5b50610583600480360381019061057e9190613609565b6129f8565b6040516105959695949392919061398d565b60405180910390f35b603281565b60026020528060005260406000206000915090505481565b6105c3612b29565b6105cd8133612b78565b6000600260003373ffffffffffffffffffffffffffffffffffffffff1673ffffffffffffffffffffffffffffffffffffffff168152602001908152602001600020540361067a57600360003373ffffffffffffffffffffffffffffffffffffffff1673ffffffffffffffffffffffffffffffffffffffff1681526020019081526020016000206000808201600090556001820160006101000a81549067ffffffffffffffff021916905550505b610682612d3d565b50565b7f000000000000000000000000000000000000000000000000000000000000000081565b6106b1612b29565b6000806000806106c0876129f8565b955050945094505093508361070a576040517f08c379a000000000000000000000000000000000000000000000000000000000815260040161070190613a4b565b60405180910390fd5b6103e88661ffff161115610753576040517f08c379a000000000000000000000000000000000000000000000000000000000815260040161074a90613ab7565b60405180910390fd5b60008111610796576040517f08c379a000000000000000000000000000000000000000000000000000000000815260040161078d90613b23565b60405180910390fd5b6000600260008973ffffffffffffffffffffffffffffffffffffffff1673ffffffffffffffffffffffffffffffffffffffff168152602001908152602001600020819055506108477f000000000000000000000000000000000000000000000000000000000000000060007f000000000000000000000000000000000000000000000000000000000000000073ffffffffffffffffffffffffffffffffffffffff16612d479092919063ffffffff16565b6108b27f0000000000000000000000000000000000000000000000000000000000000000827f000000000000000000000000000000000000000000000000000000000000000073ffffffffffffffffffffffffffffffffffffffff16612d479092919063ffffffff16565b6000600367ffffffffffffffff8111156108cf576108ce613b43565b5b6040519080825280602002602001820160405280156108fd5781602001602082028036833780820191505090505b5090507f00000000000000000000000000000000000000000000000000000000000000008160008151811061093557610934613b72565b5b602002602001019073ffffffffffffffffffffffffffffffffffffffff16908173ffffffffffffffffffffffffffffffffffffffff16815250507f0000000000000000000000000000000000000000000000000000000000000000816001815181106109a4576109a3613b72565b5b602002602001019073ffffffffffffffffffffffffffffffffffffffff16908173ffffffffffffffffffffffffffffffffffffffff16815250507f000000000000000000000000000000000000000000000000000000000000000081600281518110610a1357610a12613b72565b5b602002602001019073ffffffffffffffffffffffffffffffffffffffff16908173ffffffffffffffffffffffffffffffffffffffff168152505060007f000000000000000000000000000000000000000000000000000000000000000073ffffffffffffffffffffffffffffffffffffffff1663d06ca61f84846040518363ffffffff1660e01b8152600401610aaa929190613c5f565b600060405180830381865afa158015610ac7573d6000803e3d6000fd5b505050506040513d6000823e3d601f19601f82011682018060405250810190610af09190613dce565b905060006127108961ffff16612710610b099190613e46565b83600281518110610b1d57610b1c613b72565b5b6020026020010151610b2f9190613e7a565b610b399190613eeb565b905060007f000000000000000000000000000000000000000000000000000000000000000073ffffffffffffffffffffffffffffffffffffffff166338ed17398684878f8e6040518663ffffffff1660e01b8152600401610b9e959493929190613f1c565b6000604051808303816000875af1158015610bbd573d6000803e3d6000fd5b505050506040513d6000823e3d601f19601f82011682018060405250810190610be69190613dce565b9050600381511015610c2d576040517f08c379a0000000000000000000000000000000000000000000000000000000008152600401610c2490613fc2565b60405180910390fd5b7f000000000000000000000000000000000000000000000000000000000000000073ffffffffffffffffffffffffffffffffffffffff168b73ffffffffffffffffffffffffffffffffffffffff167fa0c29cbc03a94ee377a9b2cb21978307a58a2588cecb8cabf9a1efe263a2df7a878460018651610cac9190613e46565b81518110610cbd57610cbc613b72565b5b60200260200101518b8b42604051610cd9959493929190613fe2565b60405180910390a3600360008c73ffffffffffffffffffffffffffffffffffffffff1673ffffffffffffffffffffffffffffffffffffffff1681526020019081526020016000206000808201600090556001820160006101000a81549067ffffffffffffffff021916905550505050505050505050610d56612d3d565b505050565b7f000000000000000000000000000000000000000000000000000000000000000081565b610d87612b29565b600080600080610d96876129f8565b9550509450945050935083610de0576040517f08c379a0000000000000000000000000000000000000000000000000000000008152600401610dd790613a4b565b60405180910390fd5b6103e88661ffff161115610e29576040517f08c379a0000000000000000000000000000000000000000000000000000000008152600401610e2090613ab7565b60405180910390fd5b60008111610e6c576040517f08c379a0000000000000000000000000000000000000000000000000000000008152600401610e6390613b23565b60405180910390fd5b6000600260008973ffffffffffffffffffffffffffffffffffffffff1673ffffffffffffffffffffffffffffffffffffffff16815260200190815260200160002081905550610f1d7f000000000000000000000000000000000000000000000000000000000000000060007f000000000000000000000000000000000000000000000000000000000000000073ffffffffffffffffffffffffffffffffffffffff16612d479092919063ffffffff16565b610f887f0000000000000000000000000000000000000000000000000000000000000000827f000000000000000000000000000000000000000000000000000000000000000073ffffffffffffffffffffffffffffffffffffffff16612d479092919063ffffffff16565b6000600267ffffffffffffffff811115610fa557610fa4613b43565b5b604051908082528060200260200182016040528015610fd35781602001602082028036833780820191505090505b5090507f00000000000000000000000000000000000000000000000000000000000000008160008151811061100b5761100a613b72565b5b602002602001019073ffffffffffffffffffffffffffffffffffffffff16908173ffffffffffffffffffffffffffffffffffffffff16815250507f00000000000000000000000000000000000000000000000000000000000000008160018151811061107a57611079613b72565b5b602002602001019073ffffffffffffffffffffffffffffffffffffffff16908173ffffffffffffffffffffffffffffffffffffffff168152505060007f000000000000000000000000000000000000000000000000000000000000000073ffffffffffffffffffffffffffffffffffffffff1663d06ca61f84846040518363ffffffff1660e01b8152600401611111929190613c5f565b600060405180830381865afa15801561112e573d6000803e3d6000fd5b505050506040513d6000823e3d601f19601f820116820180604052508101906111579190613dce565b905060006127108961ffff166127106111709190613e46565b8360018151811061118457611183613b72565b5b60200260200101516111969190613e7a565b6111a09190613eeb565b905060007f000000000000000000000000000000000000000000000000000000000000000073ffffffffffffffffffffffffffffffffffffffff166318cbafe58684878f8e6040518663ffffffff1660e01b8152600401611205959493929190613f1c565b6000604051808303816000875af1158015611224573d6000803e3d6000fd5b505050506040513d6000823e3d601f19601f8201168201806040525081019061124d9190613dce565b9050600281511015611294576040517f08c379a000000000000000000000000000000000000000000000000000000000815260040161128b90613fc2565b60405180910390fd5b600073ffffffffffffffffffffffffffffffffffffffff168b73ffffffffffffffffffffffffffffffffffffffff167fa0c29cbc03a94ee377a9b2cb21978307a58a2588cecb8cabf9a1efe263a2df7a87846001815181106112f9576112f8613b72565b5b60200260200101518b8b42604051611315959493929190613fe2565b60405180910390a3600360008c73ffffffffffffffffffffffffffffffffffffffff1673ffffffffffffffffffffffffffffffffffffffff1681526020019081526020016000206000808201600090556001820160006101000a81549067ffffffffffffffff021916905550505050505050505050611392612d3d565b505050565b61139f612e96565b6113a96000612f14565b565b6113b3612b29565b600083116113f6576040517f08c379a00000000000000000000000000000000000000000000000000000000081526004016113ed90614081565b60405180910390fd5b6000600260003373ffffffffffffffffffffffffffffffffffffffff1673ffffffffffffffffffffffffffffffffffffffff1681526020019081526020016000205490508381101561147d576040517f08c379a0000000000000000000000000000000000000000000000000000000008152600401611474906140ed565b60405180910390fd5b838103600260003373ffffffffffffffffffffffffffffffffffffffff1673ffffffffffffffffffffffffffffffffffffffff1681526020019081526020016000208190555061152f7f000000000000000000000000000000000000000000000000000000000000000060007f000000000000000000000000000000000000000000000000000000000000000073ffffffffffffffffffffffffffffffffffffffff16612d479092919063ffffffff16565b61159a7f0000000000000000000000000000000000000000000000000000000000000000857f000000000000000000000000000000000000000000000000000000000000000073ffffffffffffffffffffffffffffffffffffffff16612d479092919063ffffffff16565b6000600367ffffffffffffffff8111156115b7576115b6613b43565b5b6040519080825280602002602001820160405280156115e55781602001602082028036833780820191505090505b5090507f00000000000000000000000000000000000000000000000000000000000000008160008151811061161d5761161c613b72565b5b602002602001019073ffffffffffffffffffffffffffffffffffffffff16908173ffffffffffffffffffffffffffffffffffffffff16815250507f00000000000000000000000000000000000000000000000000000000000000008160018151811061168c5761168b613b72565b5b602002602001019073ffffffffffffffffffffffffffffffffffffffff16908173ffffffffffffffffffffffffffffffffffffffff16815250507f0000000000000000000000000000000000000000000000000000000000000000816002815181106116fb576116fa613b72565b5b602002602001019073ffffffffffffffffffffffffffffffffffffffff16908173ffffffffffffffffffffffffffffffffffffffff168152505060007f000000000000000000000000000000000000000000000000000000000000000073ffffffffffffffffffffffffffffffffffffffff166338ed173987878533896040518663ffffffff1660e01b8152600401611798959493929190613f1c565b6000604051808303816000875af11580156117b7573d6000803e3d6000fd5b505050506040513d6000823e3d601f19601f820116820180604052508101906117e09190613dce565b9050600381511015611827576040517f08c379a000000000000000000000000000000000000000000000000000000000815260040161181e90613fc2565b60405180910390fd5b7f000000000000000000000000000000000000000000000000000000000000000073ffffffffffffffffffffffffffffffffffffffff163373ffffffffffffffffffffffffffffffffffffffff167fa078c4190abe07940190effc1846be0ccf03ad6007bc9e93f9697d0b460befbb8884600186516118a69190613e46565b815181106118b7576118b6613b72565b5b60200260200101516040516118cd92919061410d565b60405180910390a35050506118e0612d3d565b505050565b6000600160009054906101000a900473ffffffffffffffffffffffffffffffffffffffff16905090565b7f000000000000000000000000000000000000000000000000000000000000000081565b6000806000600360008573ffffffffffffffffffffffffffffffffffffffff1673ffffffffffffffffffffffffffffffffffffffff168152602001908152602001600020604051806040016040529081600082015481526020016001820160009054906101000a900467ffffffffffffffff1667ffffffffffffffff1667ffffffffffffffff16815250509050806000015181602001519250925050915091565b6000808211611a18576040517f08c379a0000000000000000000000000000000000000000000000000000000008152600401611a0f90614081565b60405180910390fd5b6000600367ffffffffffffffff811115611a3557611a34613b43565b5b604051908082528060200260200182016040528015611a635781602001602082028036833780820191505090505b5090507f000000000000000000000000000000000000000000000000000000000000000081600081518110611a9b57611a9a613b72565b5b602002602001019073ffffffffffffffffffffffffffffffffffffffff16908173ffffffffffffffffffffffffffffffffffffffff16815250507f000000000000000000000000000000000000000000000000000000000000000081600181518110611b0a57611b09613b72565b5b602002602001019073ffffffffffffffffffffffffffffffffffffffff16908173ffffffffffffffffffffffffffffffffffffffff16815250507f000000000000000000000000000000000000000000000000000000000000000081600281518110611b7957611b78613b72565b5b602002602001019073ffffffffffffffffffffffffffffffffffffffff16908173ffffffffffffffffffffffffffffffffffffffff168152505060007f000000000000000000000000000000000000000000000000000000000000000073ffffffffffffffffffffffffffffffffffffffff1663d06ca61f85846040518363ffffffff1660e01b8152600401611c10929190613c5f565b600060405180830381865afa158015611c2d573d6000803e3d6000fd5b505050506040513d6000823e3d601f19601f82011682018060405250810190611c569190613dce565b9050600381511015611c9d576040517f08c379a0000000000000000000000000000000000000000000000000000000008152600401611c9490613fc2565b60405180910390fd5b80600281518110611cb157611cb0613b72565b5b602002602001015192505050919050565b611cca612b29565b60008111611d0d576040517f08c379a0000000000000000000000000000000000000000000000000000000008152600401611d0490614081565b60405180910390fd5b611d5a3330837f000000000000000000000000000000000000000000000000000000000000000073ffffffffffffffffffffffffffffffffffffffff16612fda909392919063ffffffff16565b80600260003373ffffffffffffffffffffffffffffffffffffffff1673ffffffffffffffffffffffffffffffffffffffff1681526020019081526020016000206000828254611da99190614136565b925050819055506000611dba613063565b50905060405180604001604052808281526020014267ffffffffffffffff16815250600360003373ffffffffffffffffffffffffffffffffffffffff1673ffffffffffffffffffffffffffffffffffffffff1681526020019081526020016000206000820151816000015560208201518160010160006101000a81548167ffffffffffffffff021916908367ffffffffffffffff1602179055509050503373ffffffffffffffffffffffffffffffffffffffff167fce584eb1deefcaed6cfaa5762bcb28a12ff7e564b0a1a75d80386083c0ac13f88242604051611e9f929190613875565b60405180910390a23373ffffffffffffffffffffffffffffffffffffffff167f2da466a7b24304f47e87fa2e1e5a81b9831ce54fec19055ce277ca2f39ba42c483604051611eed919061364f565b60405180910390a250611efe612d3d565b50565b60036020528060005260406000206000915090508060000154908060010160009054906101000a900467ffffffffffffffff16905082565b6000808211611f7d576040517f08c379a0000000000000000000000000000000000000000000000000000000008152600401611f7490614081565b60405180910390fd5b6000600267ffffffffffffffff811115611f9a57611f99613b43565b5b604051908082528060200260200182016040528015611fc85781602001602082028036833780820191505090505b5090507f00000000000000000000000000000000000000000000000000000000000000008160008151811061200057611fff613b72565b5b602002602001019073ffffffffffffffffffffffffffffffffffffffff16908173ffffffffffffffffffffffffffffffffffffffff16815250507f00000000000000000000000000000000000000000000000000000000000000008160018151811061206f5761206e613b72565b5b602002602001019073ffffffffffffffffffffffffffffffffffffffff16908173ffffffffffffffffffffffffffffffffffffffff168152505060007f000000000000000000000000000000000000000000000000000000000000000073ffffffffffffffffffffffffffffffffffffffff1663d06ca61f85846040518363ffffffff1660e01b8152600401612106929190613c5f565b600060405180830381865afa158015612123573d6000803e3d6000fd5b505050506040513d6000823e3d601f19601f8201168201806040525081019061214c9190613dce565b9050600281511015612193576040517f08c379a000000000000000000000000000000000000000000000000000000000815260040161218a90613fc2565b60405180910390fd5b806001815181106121a7576121a6613b72565b5b602002602001015192505050919050565b60006121c2613063565b50905060405180604001604052808281526020014267ffffffffffffffff16815250600360003373ffffffffffffffffffffffffffffffffffffffff1673ffffffffffffffffffffffffffffffffffffffff1681526020019081526020016000206000820151816000015560208201518160010160006101000a81548167ffffffffffffffff021916908367ffffffffffffffff1602179055509050503373ffffffffffffffffffffffffffffffffffffffff167fce584eb1deefcaed6cfaa5762bcb28a12ff7e564b0a1a75d80386083c0ac13f882426040516122a7929190613875565b60405180910390a250565b60007f000000000000000000000000000000000000000000000000000000000000000073ffffffffffffffffffffffffffffffffffffffff166370a08231306040518263ffffffff1660e01b815260040161230d91906137cb565b602060405180830381865afa15801561232a573d6000803e3d6000fd5b505050506040513d601f19601f8201168201806040525081019061234e919061416a565b905090565b61235b612b29565b600073ffffffffffffffffffffffffffffffffffffffff168173ffffffffffffffffffffffffffffffffffffffff16036123ca576040517f08c379a00000000000000000000000000000000000000000000000000000000081526004016123c1906141e3565b60405180910390fd5b6123d48282612b78565b6000600260003373ffffffffffffffffffffffffffffffffffffffff1673ffffffffffffffffffffffffffffffffffffffff168152602001908152602001600020540361248157600360003373ffffffffffffffffffffffffffffffffffffffff1673ffffffffffffffffffffffffffffffffffffffff1681526020019081526020016000206000808201600090556001820160006101000a81549067ffffffffffffffff021916905550505b612489612d3d565b5050565b7f000000000000000000000000000000000000000000000000000000000000000081565b6124b9612b29565b600083116124fc576040517f08c379a00000000000000000000000000000000000000000000000000000000081526004016124f390614081565b60405180910390fd5b6000600260003373ffffffffffffffffffffffffffffffffffffffff1673ffffffffffffffffffffffffffffffffffffffff16815260200190815260200160002054905083811015612583576040517f08c379a000000000000000000000000000000000000000000000000000000000815260040161257a906140ed565b60405180910390fd5b838103600260003373ffffffffffffffffffffffffffffffffffffffff1673ffffffffffffffffffffffffffffffffffffffff168152602001908152602001600020819055506126357f000000000000000000000000000000000000000000000000000000000000000060007f000000000000000000000000000000000000000000000000000000000000000073ffffffffffffffffffffffffffffffffffffffff16612d479092919063ffffffff16565b6126a07f0000000000000000000000000000000000000000000000000000000000000000857f000000000000000000000000000000000000000000000000000000000000000073ffffffffffffffffffffffffffffffffffffffff16612d479092919063ffffffff16565b6000600267ffffffffffffffff8111156126bd576126bc613b43565b5b6040519080825280602002602001820160405280156126eb5781602001602082028036833780820191505090505b5090507f00000000000000000000000000000000000000000000000000000000000000008160008151811061272357612722613b72565b5b602002602001019073ffffffffffffffffffffffffffffffffffffffff16908173ffffffffffffffffffffffffffffffffffffffff16815250507f00000000000000000000000000000000000000000000000000000000000000008160018151811061279257612791613b72565b5b602002602001019073ffffffffffffffffffffffffffffffffffffffff16908173ffffffffffffffffffffffffffffffffffffffff168152505060007f000000000000000000000000000000000000000000000000000000000000000073ffffffffffffffffffffffffffffffffffffffff166318cbafe587878533896040518663ffffffff1660e01b815260040161282f959493929190613f1c565b6000604051808303816000875af115801561284e573d6000803e3d6000fd5b505050506040513d6000823e3d601f19601f820116820180604052508101906128779190613dce565b90506002815110156128be576040517f08c379a00000000000000000000000000000000000000000000000000000000081526004016128b590613fc2565b60405180910390fd5b600073ffffffffffffffffffffffffffffffffffffffff163373ffffffffffffffffffffffffffffffffffffffff167fa078c4190abe07940190effc1846be0ccf03ad6007bc9e93f9697d0b460befbb888460018151811061292357612922613b72565b5b602002602001015160405161293992919061410d565b60405180910390a350505061294c612d3d565b505050565b612959612e96565b600073ffffffffffffffffffffffffffffffffffffffff168173ffffffffffffffffffffffffffffffffffffffff16036129c8576040517f08c379a00000000000000000000000000000000000000000000000000000000081526004016129bf90614275565b60405180910390fd5b6129d181612f14565b50565b7f000000000000000000000000000000000000000000000000000000000000000081565b6000806000806000806000600360008973ffffffffffffffffffffffffffffffffffffffff1673ffffffffffffffffffffffffffffffffffffffff168152602001908152602001600020604051806040016040529081600082015481526020016001820160009054906101000a900467ffffffffffffffff1667ffffffffffffffff1667ffffffffffffffff1681525050905080600001519450600260008973ffffffffffffffffffffffffffffffffffffffff1673ffffffffffffffffffffffffffffffffffffffff168152602001908152602001600020549150612adc613063565b8094508195505050612aee85856131d9565b9550600082118015612b005750600085135b8015612b0c5750600084135b8015612b1d5750603261ffff168610155b96505091939550919395565b600260005403612b6e576040517f08c379a0000000000000000000000000000000000000000000000000000000008152600401612b65906142e1565b60405180910390fd5b6002600081905550565b60008211612bbb576040517f08c379a0000000000000000000000000000000000000000000000000000000008152600401612bb290614081565b60405180910390fd5b6000600260003373ffffffffffffffffffffffffffffffffffffffff1673ffffffffffffffffffffffffffffffffffffffff16815260200190815260200160002054905082811015612c42576040517f08c379a0000000000000000000000000000000000000000000000000000000008152600401612c39906140ed565b60405180910390fd5b828103600260003373ffffffffffffffffffffffffffffffffffffffff1673ffffffffffffffffffffffffffffffffffffffff16815260200190815260200160002081905550612cd382847f000000000000000000000000000000000000000000000000000000000000000073ffffffffffffffffffffffffffffffffffffffff1661323c9092919063ffffffff16565b8173ffffffffffffffffffffffffffffffffffffffff163373ffffffffffffffffffffffffffffffffffffffff167fd1c19fbcd4551a5edfb66d43d2e337c04837afda3482b42bdf569a8fccdae5fb85604051612d30919061364f565b60405180910390a3505050565b6001600081905550565b6000811480612dd1575060008373ffffffffffffffffffffffffffffffffffffffff1663dd62ed3e30856040518363ffffffff1660e01b8152600401612d8e929190614301565b602060405180830381865afa158015612dab573d6000803e3d6000fd5b505050506040513d601f19601f82011682018060405250810190612dcf919061416a565b145b612e10576040517f08c379a0000000000000000000000000000000000000000000000000000000008152600401612e079061439c565b60405180910390fd5b612e918363095ea7b360e01b8484604051602401612e2f9291906143bc565b604051602081830303815290604052907bffffffffffffffffffffffffffffffffffffffffffffffffffffffff19166020820180517bffffffffffffffffffffffffffffffffffffffffffffffffffffffff83818316178352505050506132c2565b505050565b612e9e61338a565b73ffffffffffffffffffffffffffffffffffffffff16612ebc6118e5565b73ffffffffffffffffffffffffffffffffffffffff1614612f12576040517f08c379a0000000000000000000000000000000000000000000000000000000008152600401612f0990614431565b60405180910390fd5b565b6000600160009054906101000a900473ffffffffffffffffffffffffffffffffffffffff16905081600160006101000a81548173ffffffffffffffffffffffffffffffffffffffff021916908373ffffffffffffffffffffffffffffffffffffffff1602179055508173ffffffffffffffffffffffffffffffffffffffff168173ffffffffffffffffffffffffffffffffffffffff167f8be0079c531659141344cd1fd0a4f28419497f9722a3daafe3b4186f6b6457e060405160405180910390a35050565b61305d846323b872dd60e01b858585604051602401612ffb93929190614451565b604051602081830303815290604052907bffffffffffffffffffffffffffffffffffffffffffffffffffffffff19166020820180517bffffffffffffffffffffffffffffffffffffffffffffffffffffffff83818316178352505050506132c2565b50505050565b60008060007f000000000000000000000000000000000000000000000000000000000000000073ffffffffffffffffffffffffffffffffffffffff1663feaf968c6040518163ffffffff1660e01b815260040160a060405180830381865afa1580156130d3573d6000803e3d6000fd5b505050506040513d601f19601f820116820180604052508101906130f791906144f6565b50505091505060008113613140576040517f08c379a0000000000000000000000000000000000000000000000000000000008152600401613137906145bd565b60405180910390fd5b7f000000000000000000000000000000000000000000000000000000000000000073ffffffffffffffffffffffffffffffffffffffff1663313ce5676040518163ffffffff1660e01b8152600401602060405180830381865afa1580156131ab573d6000803e3d6000fd5b505050506040513d601f19601f820116820180604052508101906131cf9190614609565b9150809250509091565b600080831315806131eb575060008213155b156131f95760009050613236565b8282126132095760009050613236565b600082846132179190614636565b905083612710826132289190613e7a565b6132329190613eeb565b9150505b92915050565b6132bd8363a9059cbb60e01b848460405160240161325b9291906143bc565b604051602081830303815290604052907bffffffffffffffffffffffffffffffffffffffffffffffffffffffff19166020820180517bffffffffffffffffffffffffffffffffffffffffffffffffffffffff83818316178352505050506132c2565b505050565b6000613324826040518060400160405280602081526020017f5361666545524332303a206c6f772d6c6576656c2063616c6c206661696c65648152508573ffffffffffffffffffffffffffffffffffffffff166133929092919063ffffffff16565b905060008151148061334657508080602001905181019061334591906146a5565b5b613385576040517f08c379a000000000000000000000000000000000000000000000000000000000815260040161337c90614744565b60405180910390fd5b505050565b600033905090565b60606133a184846000856133aa565b90509392505050565b6060824710156133ef576040517f08c379a00000000000000000000000000000000000000000000000000000000081526004016133e6906147d6565b60405180910390fd5b6000808673ffffffffffffffffffffffffffffffffffffffff1685876040516134189190614867565b60006040518083038185875af1925050503d8060008114613455576040519150601f19603f3d011682016040523d82523d6000602084013e61345a565b606091505b509150915061346b87838387613477565b92505050949350505050565b606083156134d95760008351036134d157613491856134ec565b6134d0576040517f08c379a00000000000000000000000000000000000000000000000000000000081526004016134c7906148ca565b60405180910390fd5b5b8290506134e4565b6134e3838361350f565b5b949350505050565b6000808273ffffffffffffffffffffffffffffffffffffffff163b119050919050565b6000825111156135225781518083602001fd5b806040517f08c379a0000000000000000000000000000000000000000000000000000000008152600401613556919061492e565b60405180910390fd5b600061ffff82169050919050565b6135768161355f565b82525050565b6000602082019050613591600083018461356d565b92915050565b6000604051905090565b600080fd5b600080fd5b600073ffffffffffffffffffffffffffffffffffffffff82169050919050565b60006135d6826135ab565b9050919050565b6135e6816135cb565b81146135f157600080fd5b50565b600081359050613603816135dd565b92915050565b60006020828403121561361f5761361e6135a1565b5b600061362d848285016135f4565b91505092915050565b6000819050919050565b61364981613636565b82525050565b60006020820190506136646000830184613640565b92915050565b61367381613636565b811461367e57600080fd5b50565b6000813590506136908161366a565b92915050565b6000602082840312156136ac576136ab6135a1565b5b60006136ba84828501613681565b91505092915050565b6000819050919050565b60006136e86136e36136de846135ab565b6136c3565b6135ab565b9050919050565b60006136fa826136cd565b9050919050565b600061370c826136ef565b9050919050565b61371c81613701565b82525050565b60006020820190506137376000830184613713565b92915050565b6137468161355f565b811461375157600080fd5b50565b6000813590506137638161373d565b92915050565b600080600060608486031215613782576137816135a1565b5b6000613790868287016135f4565b93505060206137a186828701613754565b92505060406137b286828701613681565b9150509250925092565b6137c5816135cb565b82525050565b60006020820190506137e060008301846137bc565b92915050565b6000806000606084860312156137ff576137fe6135a1565b5b600061380d86828701613681565b935050602061381e86828701613681565b925050604061382f86828701613681565b9150509250925092565b6000819050919050565b61384c81613839565b82525050565b600067ffffffffffffffff82169050919050565b61386f81613852565b82525050565b600060408201905061388a6000830185613843565b6138976020830184613866565b9392505050565b600080604083850312156138b5576138b46135a1565b5b60006138c385828601613681565b92505060206138d4858286016135f4565b9150509250929050565b60006138e9826136ef565b9050919050565b6138f9816138de565b82525050565b600060208201905061391460008301846138f0565b92915050565b6000613925826136ef565b9050919050565b6139358161391a565b82525050565b6000602082019050613950600083018461392c565b92915050565b60008115159050919050565b61396b81613956565b82525050565b600060ff82169050919050565b61398781613971565b82525050565b600060c0820190506139a26000830189613962565b6139af6020830188613640565b6139bc6040830187613843565b6139c96060830186613843565b6139d6608083018561397e565b6139e360a0830184613640565b979650505050505050565b600082825260208201905092915050565b7f6e6f742072656164790000000000000000000000000000000000000000000000600082015250565b6000613a356009836139ee565b9150613a40826139ff565b602082019050919050565b60006020820190508181036000830152613a6481613a28565b9050919050565b7f736c697020746f6f206869676800000000000000000000000000000000000000600082015250565b6000613aa1600d836139ee565b9150613aac82613a6b565b602082019050919050565b60006020820190508181036000830152613ad081613a94565b9050919050565b7f656d707479000000000000000000000000000000000000000000000000000000600082015250565b6000613b0d6005836139ee565b9150613b1882613ad7565b602082019050919050565b60006020820190508181036000830152613b3c81613b00565b9050919050565b7f4e487b7100000000000000000000000000000000000000000000000000000000600052604160045260246000fd5b7f4e487b7100000000000000000000000000000000000000000000000000000000600052603260045260246000fd5b600081519050919050565b600082825260208201905092915050565b6000819050602082019050919050565b613bd6816135cb565b82525050565b6000613be88383613bcd565b60208301905092915050565b6000602082019050919050565b6000613c0c82613ba1565b613c168185613bac565b9350613c2183613bbd565b8060005b83811015613c52578151613c398882613bdc565b9750613c4483613bf4565b925050600181019050613c25565b5085935050505092915050565b6000604082019050613c746000830185613640565b8181036020830152613c868184613c01565b90509392505050565b600080fd5b6000601f19601f8301169050919050565b613cae82613c94565b810181811067ffffffffffffffff82111715613ccd57613ccc613b43565b5b80604052505050565b6000613ce0613597565b9050613cec8282613ca5565b919050565b600067ffffffffffffffff821115613d0c57613d0b613b43565b5b602082029050602081019050919050565b600080fd5b600081519050613d318161366a565b92915050565b6000613d4a613d4584613cf1565b613cd6565b90508083825260208201905060208402830185811115613d6d57613d6c613d1d565b5b835b81811015613d965780613d828882613d22565b845260208401935050602081019050613d6f565b5050509392505050565b600082601f830112613db557613db4613c8f565b5b8151613dc5848260208601613d37565b91505092915050565b600060208284031215613de457613de36135a1565b5b600082015167ffffffffffffffff811115613e0257613e016135a6565b5b613e0e84828501613da0565b91505092915050565b7f4e487b7100000000000000000000000000000000000000000000000000000000600052601160045260246000fd5b6000613e5182613636565b9150613e5c83613636565b9250828203905081811115613e7457613e73613e17565b5b92915050565b6000613e8582613636565b9150613e9083613636565b9250828202613e9e81613636565b91508282048414831517613eb557613eb4613e17565b5b5092915050565b7f4e487b7100000000000000000000000000000000000000000000000000000000600052601260045260246000fd5b6000613ef682613636565b9150613f0183613636565b925082613f1157613f10613ebc565b5b828204905092915050565b600060a082019050613f316000830188613640565b613f3e6020830187613640565b8181036040830152613f508186613c01565b9050613f5f60608301856137bc565b613f6c6080830184613640565b9695505050505050565b7f62616420616d6f756e7473000000000000000000000000000000000000000000600082015250565b6000613fac600b836139ee565b9150613fb782613f76565b602082019050919050565b60006020820190508181036000830152613fdb81613f9f565b9050919050565b600060a082019050613ff76000830188613640565b6140046020830187613640565b6140116040830186613843565b61401e6060830185613843565b61402b6080830184613866565b9695505050505050565b7f616d6f756e743d30000000000000000000000000000000000000000000000000600082015250565b600061406b6008836139ee565b915061407682614035565b602082019050919050565b6000602082019050818103600083015261409a8161405e565b9050919050565b7f696e73756666696369656e740000000000000000000000000000000000000000600082015250565b60006140d7600c836139ee565b91506140e2826140a1565b602082019050919050565b60006020820190508181036000830152614106816140ca565b9050919050565b60006040820190506141226000830185613640565b61412f6020830184613640565b9392505050565b600061414182613636565b915061414c83613636565b925082820190508082111561416457614163613e17565b5b92915050565b6000602082840312156141805761417f6135a1565b5b600061418e84828501613d22565b91505092915050565b7f746f3d3000000000000000000000000000000000000000000000000000000000600082015250565b60006141cd6004836139ee565b91506141d882614197565b602082019050919050565b600060208201905081810360008301526141fc816141c0565b9050919050565b7f4f776e61626c653a206e6577206f776e657220697320746865207a65726f206160008201527f6464726573730000000000000000000000000000000000000000000000000000602082015250565b600061425f6026836139ee565b915061426a82614203565b604082019050919050565b6000602082019050818103600083015261428e81614252565b9050919050565b7f5265656e7472616e637947756172643a207265656e7472616e742063616c6c00600082015250565b60006142cb601f836139ee565b91506142d682614295565b602082019050919050565b600060208201905081810360008301526142fa816142be565b9050919050565b600060408201905061431660008301856137bc565b61432360208301846137bc565b9392505050565b7f5361666545524332303a20617070726f76652066726f6d206e6f6e2d7a65726f60008201527f20746f206e6f6e2d7a65726f20616c6c6f77616e636500000000000000000000602082015250565b60006143866036836139ee565b91506143918261432a565b604082019050919050565b600060208201905081810360008301526143b581614379565b9050919050565b60006040820190506143d160008301856137bc565b6143de6020830184613640565b9392505050565b7f4f776e61626c653a2063616c6c6572206973206e6f7420746865206f776e6572600082015250565b600061441b6020836139ee565b9150614426826143e5565b602082019050919050565b6000602082019050818103600083015261444a8161440e565b9050919050565b600060608201905061446660008301866137bc565b61447360208301856137bc565b6144806040830184613640565b949350505050565b600069ffffffffffffffffffff82169050919050565b6144a781614488565b81146144b257600080fd5b50565b6000815190506144c48161449e565b92915050565b6144d381613839565b81146144de57600080fd5b50565b6000815190506144f0816144ca565b92915050565b600080600080600060a08688031215614512576145116135a1565b5b6000614520888289016144b5565b9550506020614531888289016144e1565b945050604061454288828901613d22565b935050606061455388828901613d22565b9250506080614564888289016144b5565b9150509295509295909350565b7f70726963653c3d30000000000000000000000000000000000000000000000000600082015250565b60006145a76008836139ee565b91506145b282614571565b602082019050919050565b600060208201905081810360008301526145d68161459a565b9050919050565b6145e681613971565b81146145f157600080fd5b50565b600081519050614603816145dd565b92915050565b60006020828403121561461f5761461e6135a1565b5b600061462d848285016145f4565b91505092915050565b600061464182613839565b915061464c83613839565b925082820390508181126000841216828213600085121516171561467357614672613e17565b5b92915050565b61468281613956565b811461468d57600080fd5b50565b60008151905061469f81614679565b92915050565b6000602082840312156146bb576146ba6135a1565b5b60006146c984828501614690565b91505092915050565b7f5361666545524332303a204552433230206f7065726174696f6e20646964206e60008201527f6f74207375636365656400000000000000000000000000000000000000000000602082015250565b600061472e602a836139ee565b9150614739826146d2565b604082019050919050565b6000602082019050818103600083015261475d81614721565b9050919050565b7f416464726573733a20696e73756666696369656e742062616c616e636520666f60008201527f722063616c6c0000000000000000000000000000000000000000000000000000602082015250565b60006147c06026836139ee565b91506147cb82614764565b604082019050919050565b600060208201905081810360008301526147ef816147b3565b9050919050565b600081519050919050565b600081905092915050565b60005b8381101561482a57808201518184015260208101905061480f565b60008484015250505050565b6000614841826147f6565b61484b8185614801565b935061485b81856020860161480c565b80840191505092915050565b60006148738284614836565b915081905092915050565b7f416464726573733a2063616c6c20746f206e6f6e2d636f6e7472616374000000600082015250565b60006148b4601d836139ee565b91506148bf8261487e565b602082019050919050565b600060208201905081810360008301526148e3816148a7565b9050919050565b600081519050919050565b6000614900826148ea565b61490a81856139ee565b935061491a81856020860161480c565b61492381613c94565b840191505092915050565b6000602082019050818103600083015261494881846148f5565b90509291505056fea2646970667358221220c97d5e8c83b035d6c7121b269baf8e5534cc41c3feee00eeb7c180c2f0e1528464736f6c63430008180033","opcodes":"PUSH2 0x120 PUSH1 0x40 MSTORE CALLVALUE DUP1 ISZERO PUSH3 0x12 JUMPI PUSH1 0x0 DUP1 REVERT JUMPDEST POP PUSH1 0x40 MLOAD PUSH3 0x52C2 CODESIZE SUB DUP1 PUSH3 0x52C2 DUP4 CODECOPY DUP2 DUP2 ADD PUSH1 0x40 MSTORE DUP2 ADD SWAP1 PUSH3 0x38 SWAP2 SWAP1 PUSH3 0x4E2 JUMP JUMPDEST PUSH1 0x1 PUSH1 0x0 DUP2 SWAP1 SSTORE POP PUSH3 0x60 PUSH3 0x54 PUSH3 0x3AA PUSH1 0x20 SHL PUSH1 0x20 SHR JUMP JUMPDEST PUSH3 0x3B2 PUSH1 0x20 SHL PUSH1 0x20 SHR JUMP JUMPDEST PUSH1 0x0 PUSH20 0xFFFFFFFFFFFFFFFFFFFFFFFFFFFFFFFFFFFFFFFF AND DUP6 PUSH20 0xFFFFFFFFFFFFFFFFFFFFFFFFFFFFFFFFFFFFFFFF AND SUB PUSH3 0xD2 JUMPI PUSH1 0x40 MLOAD PUSH32 0x8C379A000000000000000000000000000000000000000000000000000000000 DUP2 MSTORE PUSH1 0x4 ADD PUSH3 0xC9 SWAP1 PUSH3 0x5CB JUMP JUMPDEST PUSH1 0x40 MLOAD DUP1 SWAP2 SUB SWAP1 REVERT JUMPDEST PUSH1 0x0 PUSH20 0xFFFFFFFFFFFFFFFFFFFFFFFFFFFFFFFFFFFFFFFF AND DUP5 PUSH20 0xFFFFFFFFFFFFFFFFFFFFFFFFFFFFFFFFFFFFFFFF AND SUB PUSH3 0x144 JUMPI PUSH1 0x40 MLOAD PUSH32 0x8C379A000000000000000000000000000000000000000000000000000000000 DUP2 MSTORE PUSH1 0x4 ADD PUSH3 0x13B SWAP1 PUSH3 0x63D JUMP JUMPDEST PUSH1 0x40 MLOAD DUP1 SWAP2 SUB SWAP1 REVERT JUMPDEST PUSH1 0x0 PUSH20 0xFFFFFFFFFFFFFFFFFFFFFFFFFFFFFFFFFFFFFFFF AND DUP4 PUSH20 0xFFFFFFFFFFFFFFFFFFFFFFFFFFFFFFFFFFFFFFFF AND SUB PUSH3 0x1B6 JUMPI PUSH1 0x40 MLOAD PUSH32 0x8C379A000000000000000000000000000000000000000000000000000000000 DUP2 MSTORE PUSH1 0x4 ADD PUSH3 0x1AD SWAP1 PUSH3 0x6AF JUMP JUMPDEST PUSH1 0x40 MLOAD DUP1 SWAP2 SUB SWAP1 REVERT JUMPDEST PUSH1 0x0 PUSH20 0xFFFFFFFFFFFFFFFFFFFFFFFFFFFFFFFFFFFFFFFF AND DUP3 PUSH20 0xFFFFFFFFFFFFFFFFFFFFFFFFFFFFFFFFFFFFFFFF AND SUB PUSH3 0x228 JUMPI PUSH1 0x40 MLOAD PUSH32 0x8C379A000000000000000000000000000000000000000000000000000000000 DUP2 MSTORE PUSH1 0x4 ADD PUSH3 0x21F SWAP1 PUSH3 0x721 JUMP JUMPDEST PUSH1 0x40 MLOAD DUP1 SWAP2 SUB SWAP1 REVERT JUMPDEST PUSH1 0x0 PUSH20 0xFFFFFFFFFFFFFFFFFFFFFFFFFFFFFFFFFFFFFFFF AND DUP2 PUSH20 0xFFFFFFFFFFFFFFFFFFFFFFFFFFFFFFFFFFFFFFFF AND SUB PUSH3 0x29A JUMPI PUSH1 0x40 MLOAD PUSH32 0x8C379A000000000000000000000000000000000000000000000000000000000 DUP2 MSTORE PUSH1 0x4 ADD PUSH3 0x291 SWAP1 PUSH3 0x793 JUMP JUMPDEST PUSH1 0x40 MLOAD DUP1 SWAP2 SUB SWAP1 REVERT JUMPDEST DUP5 PUSH20 0xFFFFFFFFFFFFFFFFFFFFFFFFFFFFFFFFFFFFFFFF AND PUSH1 0x80 DUP2 PUSH20 0xFFFFFFFFFFFFFFFFFFFFFFFFFFFFFFFFFFFFFFFF AND DUP2 MSTORE POP POP DUP4 PUSH20 0xFFFFFFFFFFFFFFFFFFFFFFFFFFFFFFFFFFFFFFFF AND PUSH1 0xA0 DUP2 PUSH20 0xFFFFFFFFFFFFFFFFFFFFFFFFFFFFFFFFFFFFFFFF AND DUP2 MSTORE POP POP DUP3 PUSH20 0xFFFFFFFFFFFFFFFFFFFFFFFFFFFFFFFFFFFFFFFF AND PUSH1 0xC0 DUP2 PUSH20 0xFFFFFFFFFFFFFFFFFFFFFFFFFFFFFFFFFFFFFFFF AND DUP2 MSTORE POP POP DUP2 PUSH20 0xFFFFFFFFFFFFFFFFFFFFFFFFFFFFFFFFFFFFFFFF AND PUSH1 0xE0 DUP2 PUSH20 0xFFFFFFFFFFFFFFFFFFFFFFFFFFFFFFFFFFFFFFFF AND DUP2 MSTORE POP POP DUP1 PUSH20 0xFFFFFFFFFFFFFFFFFFFFFFFFFFFFFFFFFFFFFFFF AND PUSH2 0x100 DUP2 PUSH20 0xFFFFFFFFFFFFFFFFFFFFFFFFFFFFFFFFFFFFFFFF AND DUP2 MSTORE POP POP POP POP POP POP POP PUSH3 0x7B5 JUMP JUMPDEST PUSH1 0x0 CALLER SWAP1 POP SWAP1 JUMP JUMPDEST PUSH1 0x0 PUSH1 0x1 PUSH1 0x0 SWAP1 SLOAD SWAP1 PUSH2 0x100 EXP SWAP1 DIV PUSH20 0xFFFFFFFFFFFFFFFFFFFFFFFFFFFFFFFFFFFFFFFF AND SWAP1 POP DUP2 PUSH1 0x1 PUSH1 0x0 PUSH2 0x100 EXP DUP2 SLOAD DUP2 PUSH20 0xFFFFFFFFFFFFFFFFFFFFFFFFFFFFFFFFFFFFFFFF MUL NOT AND SWAP1 DUP4 PUSH20 0xFFFFFFFFFFFFFFFFFFFFFFFFFFFFFFFFFFFFFFFF AND MUL OR SWAP1 SSTORE POP DUP2 PUSH20 0xFFFFFFFFFFFFFFFFFFFFFFFFFFFFFFFFFFFFFFFF AND DUP2 PUSH20 0xFFFFFFFFFFFFFFFFFFFFFFFFFFFFFFFFFFFFFFFF AND PUSH32 0x8BE0079C531659141344CD1FD0A4F28419497F9722A3DAAFE3B4186F6B6457E0 PUSH1 0x40 MLOAD PUSH1 0x40 MLOAD DUP1 SWAP2 SUB SWAP1 LOG3 POP POP JUMP JUMPDEST PUSH1 0x0 DUP1 REVERT JUMPDEST PUSH1 0x0 PUSH20 0xFFFFFFFFFFFFFFFFFFFFFFFFFFFFFFFFFFFFFFFF DUP3 AND SWAP1 POP SWAP2 SWAP1 POP JUMP JUMPDEST PUSH1 0x0 PUSH3 0x4AA DUP3 PUSH3 0x47D JUMP JUMPDEST SWAP1 POP SWAP2 SWAP1 POP JUMP JUMPDEST PUSH3 0x4BC DUP2 PUSH3 0x49D JUMP JUMPDEST DUP2 EQ PUSH3 0x4C8 JUMPI PUSH1 0x0 DUP1 REVERT JUMPDEST POP JUMP JUMPDEST PUSH1 0x0 DUP2 MLOAD SWAP1 POP PUSH3 0x4DC DUP2 PUSH3 0x4B1 JUMP JUMPDEST SWAP3 SWAP2 POP POP JUMP JUMPDEST PUSH1 0x0 DUP1 PUSH1 0x0 DUP1 PUSH1 0x0 PUSH1 0xA0 DUP7 DUP9 SUB SLT ISZERO PUSH3 0x501 JUMPI PUSH3 0x500 PUSH3 0x478 JUMP JUMPDEST JUMPDEST PUSH1 0x0 PUSH3 0x511 DUP9 DUP3 DUP10 ADD PUSH3 0x4CB JUMP JUMPDEST SWAP6 POP POP PUSH1 0x20 PUSH3 0x524 DUP9 DUP3 DUP10 ADD PUSH3 0x4CB JUMP JUMPDEST SWAP5 POP POP PUSH1 0x40 PUSH3 0x537 DUP9 DUP3 DUP10 ADD PUSH3 0x4CB JUMP JUMPDEST SWAP4 POP POP PUSH1 0x60 PUSH3 0x54A DUP9 DUP3 DUP10 ADD PUSH3 0x4CB JUMP JUMPDEST SWAP3 POP POP PUSH1 0x80 PUSH3 0x55D DUP9 DUP3 DUP10 ADD PUSH3 0x4CB JUMP JUMPDEST SWAP2 POP POP SWAP3 SWAP6 POP SWAP3 SWAP6 SWAP1 SWAP4 POP JUMP JUMPDEST PUSH1 0x0 DUP3 DUP3 MSTORE PUSH1 0x20 DUP3 ADD SWAP1 POP SWAP3 SWAP2 POP POP JUMP JUMPDEST PUSH32 0x555344543D300000000000000000000000000000000000000000000000000000 PUSH1 0x0 DUP3 ADD MSTORE POP JUMP JUMPDEST PUSH1 0x0 PUSH3 0x5B3 PUSH1 0x6 DUP4 PUSH3 0x56A JUMP JUMPDEST SWAP2 POP PUSH3 0x5C0 DUP3 PUSH3 0x57B JUMP JUMPDEST PUSH1 0x20 DUP3 ADD SWAP1 POP SWAP2 SWAP1 POP JUMP JUMPDEST PUSH1 0x0 PUSH1 0x20 DUP3 ADD SWAP1 POP DUP2 DUP2 SUB PUSH1 0x0 DUP4 ADD MSTORE PUSH3 0x5E6 DUP2 PUSH3 0x5A4 JUMP JUMPDEST SWAP1 POP SWAP2 SWAP1 POP JUMP JUMPDEST PUSH32 0x524F555445523D30000000000000000000000000000000000000000000000000 PUSH1 0x0 DUP3 ADD MSTORE POP JUMP JUMPDEST PUSH1 0x0 PUSH3 0x625 PUSH1 0x8 DUP4 PUSH3 0x56A JUMP JUMPDEST SWAP2 POP PUSH3 0x632 DUP3 PUSH3 0x5ED JUMP JUMPDEST PUSH1 0x20 DUP3 ADD SWAP1 POP SWAP2 SWAP1 POP JUMP JUMPDEST PUSH1 0x0 PUSH1 0x20 DUP3 ADD SWAP1 POP DUP2 DUP2 SUB PUSH1 0x0 DUP4 ADD MSTORE PUSH3 0x658 DUP2 PUSH3 0x616 JUMP JUMPDEST SWAP1 POP SWAP2 SWAP1 POP JUMP JUMPDEST PUSH32 0x57424E423D300000000000000000000000000000000000000000000000000000 PUSH1 0x0 DUP3 ADD MSTORE POP JUMP JUMPDEST PUSH1 0x0 PUSH3 0x697 PUSH1 0x6 DUP4 PUSH3 0x56A JUMP JUMPDEST SWAP2 POP PUSH3 0x6A4 DUP3 PUSH3 0x65F JUMP JUMPDEST PUSH1 0x20 DUP3 ADD SWAP1 POP SWAP2 SWAP1 POP JUMP JUMPDEST PUSH1 0x0 PUSH1 0x20 DUP3 ADD SWAP1 POP DUP2 DUP2 SUB PUSH1 0x0 DUP4 ADD MSTORE PUSH3 0x6CA DUP2 PUSH3 0x688 JUMP JUMPDEST SWAP1 POP SWAP2 SWAP1 POP JUMP JUMPDEST PUSH32 0x43414B453D300000000000000000000000000000000000000000000000000000 PUSH1 0x0 DUP3 ADD MSTORE POP JUMP JUMPDEST PUSH1 0x0 PUSH3 0x709 PUSH1 0x6 DUP4 PUSH3 0x56A JUMP JUMPDEST SWAP2 POP PUSH3 0x716 DUP3 PUSH3 0x6D1 JUMP JUMPDEST PUSH1 0x20 DUP3 ADD SWAP1 POP SWAP2 SWAP1 POP JUMP JUMPDEST PUSH1 0x0 PUSH1 0x20 DUP3 ADD SWAP1 POP DUP2 DUP2 SUB PUSH1 0x0 DUP4 ADD MSTORE PUSH3 0x73C DUP2 PUSH3 0x6FA JUMP JUMPDEST SWAP1 POP SWAP2 SWAP1 POP JUMP JUMPDEST PUSH32 0x464545443D300000000000000000000000000000000000000000000000000000 PUSH1 0x0 DUP3 ADD MSTORE POP JUMP JUMPDEST PUSH1 0x0 PUSH3 0x77B PUSH1 0x6 DUP4 PUSH3 0x56A JUMP JUMPDEST SWAP2 POP PUSH3 0x788 DUP3 PUSH3 0x743 JUMP JUMPDEST PUSH1 0x20 DUP3 ADD SWAP1 POP SWAP2 SWAP1 POP JUMP JUMPDEST PUSH1 0x0 PUSH1 0x20 DUP3 ADD SWAP1 POP DUP2 DUP2 SUB PUSH1 0x0 DUP4 ADD MSTORE PUSH3 0x7AE DUP2 PUSH3 0x76C JUMP JUMPDEST SWAP1 POP SWAP2 SWAP1 POP JUMP JUMPDEST PUSH1 0x80 MLOAD PUSH1 0xA0 MLOAD PUSH1 0xC0 MLOAD PUSH1 0xE0 MLOAD PUSH2 0x100 MLOAD PUSH2 0x4986 PUSH3 0x93C PUSH1 0x0 CODECOPY PUSH1 0x0 DUP2 DUP2 PUSH2 0x248F ADD MSTORE DUP2 DUP2 PUSH2 0x306A ADD MSTORE PUSH2 0x3142 ADD MSTORE PUSH1 0x0 DUP2 DUP2 PUSH2 0x9E0 ADD MSTORE DUP2 DUP2 PUSH2 0xC2F ADD MSTORE DUP2 DUP2 PUSH2 0xD5D ADD MSTORE DUP2 DUP2 PUSH2 0x16C8 ADD MSTORE DUP2 DUP2 PUSH2 0x1829 ADD MSTORE PUSH2 0x1B46 ADD MSTORE PUSH1 0x0 DUP2 DUP2 PUSH2 0x971 ADD MSTORE DUP2 DUP2 PUSH2 0x1047 ADD MSTORE DUP2 DUP2 PUSH2 0x1659 ADD MSTORE DUP2 DUP2 PUSH2 0x1911 ADD MSTORE DUP2 DUP2 PUSH2 0x1AD7 ADD MSTORE DUP2 DUP2 PUSH2 0x203C ADD MSTORE PUSH2 0x275F ADD MSTORE PUSH1 0x0 DUP2 DUP2 PUSH2 0x7E0 ADD MSTORE DUP2 DUP2 PUSH2 0x84C ADD MSTORE DUP2 DUP2 PUSH2 0xA51 ADD MSTORE DUP2 DUP2 PUSH2 0xB3F ADD MSTORE DUP2 DUP2 PUSH2 0xEB6 ADD MSTORE DUP2 DUP2 PUSH2 0xF22 ADD MSTORE DUP2 DUP2 PUSH2 0x10B8 ADD MSTORE DUP2 DUP2 PUSH2 0x11A6 ADD MSTORE DUP2 DUP2 PUSH2 0x14C8 ADD MSTORE DUP2 DUP2 PUSH2 0x1534 ADD MSTORE DUP2 DUP2 PUSH2 0x1739 ADD MSTORE DUP2 DUP2 PUSH2 0x1BB7 ADD MSTORE DUP2 DUP2 PUSH2 0x20AD ADD MSTORE DUP2 DUP2 PUSH2 0x25CE ADD MSTORE DUP2 DUP2 PUSH2 0x263A ADD MSTORE DUP2 DUP2 PUSH2 0x27D0 ADD MSTORE PUSH2 0x29D6 ADD MSTORE PUSH1 0x0 DUP2 DUP2 PUSH2 0x687 ADD MSTORE DUP2 DUP2 PUSH2 0x803 ADD MSTORE DUP2 DUP2 PUSH2 0x86E ADD MSTORE DUP2 DUP2 PUSH2 0x902 ADD MSTORE DUP2 DUP2 PUSH2 0xED9 ADD MSTORE DUP2 DUP2 PUSH2 0xF44 ADD MSTORE DUP2 DUP2 PUSH2 0xFD8 ADD MSTORE DUP2 DUP2 PUSH2 0x14EB ADD MSTORE DUP2 DUP2 PUSH2 0x1556 ADD MSTORE DUP2 DUP2 PUSH2 0x15EA ADD MSTORE DUP2 DUP2 PUSH2 0x1A68 ADD MSTORE DUP2 DUP2 PUSH2 0x1D15 ADD MSTORE DUP2 DUP2 PUSH2 0x1FCD ADD MSTORE DUP2 DUP2 PUSH2 0x22B6 ADD MSTORE DUP2 DUP2 PUSH2 0x25F1 ADD MSTORE DUP2 DUP2 PUSH2 0x265C ADD MSTORE DUP2 DUP2 PUSH2 0x26F0 ADD MSTORE PUSH2 0x2C8F ADD MSTORE PUSH2 0x4986 PUSH1 0x0 RETURN INVALID PUSH1 0x80 PUSH1 0x40 MSTORE PUSH1 0x4 CALLDATASIZE LT PUSH2 0x14F JUMPI PUSH1 0x0 CALLDATALOAD PUSH1 0xE0 SHR DUP1 PUSH4 0xA1D52C99 GT PUSH2 0xB6 JUMPI DUP1 PUSH4 0xC86283C8 GT PUSH2 0x6F JUMPI DUP1 PUSH4 0xC86283C8 EQ PUSH2 0x48B JUMPI DUP1 PUSH4 0xD310D14D EQ PUSH2 0x4B4 JUMPI DUP1 PUSH4 0xDFD3D0BE EQ PUSH2 0x4DF JUMPI DUP1 PUSH4 0xF2FDE38B EQ PUSH2 0x508 JUMPI DUP1 PUSH4 0xF887EA40 EQ PUSH2 0x531 JUMPI DUP1 PUSH4 0xFD165F53 EQ PUSH2 0x55C JUMPI PUSH2 0x156 JUMP JUMPDEST DUP1 PUSH4 0xA1D52C99 EQ PUSH2 0x368 JUMPI DUP1 PUSH4 0xB6B55F25 EQ PUSH2 0x3A5 JUMPI DUP1 PUSH4 0xBCAE7EAC EQ PUSH2 0x3CE JUMPI DUP1 PUSH4 0xBD5F99FC EQ PUSH2 0x40C JUMPI DUP1 PUSH4 0xC352710C EQ PUSH2 0x449 JUMPI DUP1 PUSH4 0xC40CB854 EQ PUSH2 0x460 JUMPI PUSH2 0x156 JUMP JUMPDEST DUP1 PUSH4 0x637D3FDB GT PUSH2 0x108 JUMPI DUP1 PUSH4 0x637D3FDB EQ PUSH2 0x26B JUMPI DUP1 PUSH4 0x715018A6 EQ PUSH2 0x294 JUMPI DUP1 PUSH4 0x79D60F28 EQ PUSH2 0x2AB JUMPI DUP1 PUSH4 0x8DA5CB5B EQ PUSH2 0x2D4 JUMPI DUP1 PUSH4 0x8DD95002 EQ PUSH2 0x2FF JUMPI DUP1 PUSH4 0x91352BBB EQ PUSH2 0x32A JUMPI PUSH2 0x156 JUMP JUMPDEST DUP1 PUSH4 0xBE1D8AF EQ PUSH2 0x15B JUMPI DUP1 PUSH4 0x27E235E3 EQ PUSH2 0x186 JUMPI DUP1 PUSH4 0x2E1A7D4D EQ PUSH2 0x1C3 JUMPI DUP1 PUSH4 0x2F48AB7D EQ PUSH2 0x1EC JUMPI DUP1 PUSH4 0x4675FED9 EQ PUSH2 0x217 JUMPI DUP1 PUSH4 0x4CA6EF28 EQ PUSH2 0x240 JUMPI PUSH2 0x156 JUMP JUMPDEST CALLDATASIZE PUSH2 0x156 JUMPI STOP JUMPDEST PUSH1 0x0 DUP1 REVERT JUMPDEST CALLVALUE DUP1 ISZERO PUSH2 0x167 JUMPI PUSH1 0x0 DUP1 REVERT JUMPDEST POP PUSH2 0x170 PUSH2 0x59E JUMP JUMPDEST PUSH1 0x40 MLOAD PUSH2 0x17D SWAP2 SWAP1 PUSH2 0x357C JUMP JUMPDEST PUSH1 0x40 MLOAD DUP1 SWAP2 SUB SWAP1 RETURN JUMPDEST CALLVALUE DUP1 ISZERO PUSH2 0x192 JUMPI PUSH1 0x0 DUP1 REVERT JUMPDEST POP PUSH2 0x1AD PUSH1 0x4 DUP1 CALLDATASIZE SUB DUP2 ADD SWAP1 PUSH2 0x1A8 SWAP2 SWAP1 PUSH2 0x3609 JUMP JUMPDEST PUSH2 0x5A3 JUMP JUMPDEST PUSH1 0x40 MLOAD PUSH2 0x1BA SWAP2 SWAP1 PUSH2 0x364F JUMP JUMPDEST PUSH1 0x40 MLOAD DUP1 SWAP2 SUB SWAP1 RETURN JUMPDEST CALLVALUE DUP1 ISZERO PUSH2 0x1CF JUMPI PUSH1 0x0 DUP1 REVERT JUMPDEST POP PUSH2 0x1EA PUSH1 0x4 DUP1 CALLDATASIZE SUB DUP2 ADD SWAP1 PUSH2 0x1E5 SWAP2 SWAP1 PUSH2 0x3696 JUMP JUMPDEST PUSH2 0x5BB JUMP JUMPDEST STOP JUMPDEST CALLVALUE DUP1 ISZERO PUSH2 0x1F8 JUMPI PUSH1 0x0 DUP1 REVERT JUMPDEST POP PUSH2 0x201 PUSH2 0x685 JUMP JUMPDEST PUSH1 0x40 MLOAD PUSH2 0x20E SWAP2 SWAP1 PUSH2 0x3722 JUMP JUMPDEST PUSH1 0x40 MLOAD DUP1 SWAP2 SUB SWAP1 RETURN JUMPDEST CALLVALUE DUP1 ISZERO PUSH2 0x223 JUMPI PUSH1 0x0 DUP1 REVERT JUMPDEST POP PUSH2 0x23E PUSH1 0x4 DUP1 CALLDATASIZE SUB DUP2 ADD SWAP1 PUSH2 0x239 SWAP2 SWAP1 PUSH2 0x3769 JUMP JUMPDEST PUSH2 0x6A9 JUMP JUMPDEST STOP JUMPDEST CALLVALUE DUP1 ISZERO PUSH2 0x24C JUMPI PUSH1 0x0 DUP1 REVERT JUMPDEST POP PUSH2 0x255 PUSH2 0xD5B JUMP JUMPDEST PUSH1 0x40 MLOAD PUSH2 0x262 SWAP2 SWAP1 PUSH2 0x37CB JUMP JUMPDEST PUSH1 0x40 MLOAD DUP1 SWAP2 SUB SWAP1 RETURN JUMPDEST CALLVALUE DUP1 ISZERO PUSH2 0x277 JUMPI PUSH1 0x0 DUP1 REVERT JUMPDEST POP PUSH2 0x292 PUSH1 0x4 DUP1 CALLDATASIZE SUB DUP2 ADD SWAP1 PUSH2 0x28D SWAP2 SWAP1 PUSH2 0x3769 JUMP JUMPDEST PUSH2 0xD7F JUMP JUMPDEST STOP JUMPDEST CALLVALUE DUP1 ISZERO PUSH2 0x2A0 JUMPI PUSH1 0x0 DUP1 REVERT JUMPDEST POP PUSH2 0x2A9 PUSH2 0x1397 JUMP JUMPDEST STOP JUMPDEST CALLVALUE DUP1 ISZERO PUSH2 0x2B7 JUMPI PUSH1 0x0 DUP1 REVERT JUMPDEST POP PUSH2 0x2D2 PUSH1 0x4 DUP1 CALLDATASIZE SUB DUP2 ADD SWAP1 PUSH2 0x2CD SWAP2 SWAP1 PUSH2 0x37E6 JUMP JUMPDEST PUSH2 0x13AB JUMP JUMPDEST STOP JUMPDEST CALLVALUE DUP1 ISZERO PUSH2 0x2E0 JUMPI PUSH1 0x0 DUP1 REVERT JUMPDEST POP PUSH2 0x2E9 PUSH2 0x18E5 JUMP JUMPDEST PUSH1 0x40 MLOAD PUSH2 0x2F6 SWAP2 SWAP1 PUSH2 0x37CB JUMP JUMPDEST PUSH1 0x40 MLOAD DUP1 SWAP2 SUB SWAP1 RETURN JUMPDEST CALLVALUE DUP1 ISZERO PUSH2 0x30B JUMPI PUSH1 0x0 DUP1 REVERT JUMPDEST POP PUSH2 0x314 PUSH2 0x190F JUMP JUMPDEST PUSH1 0x40 MLOAD PUSH2 0x321 SWAP2 SWAP1 PUSH2 0x37CB JUMP JUMPDEST PUSH1 0x40 MLOAD DUP1 SWAP2 SUB SWAP1 RETURN JUMPDEST CALLVALUE DUP1 ISZERO PUSH2 0x336 JUMPI PUSH1 0x0 DUP1 REVERT JUMPDEST POP PUSH2 0x351 PUSH1 0x4 DUP1 CALLDATASIZE SUB DUP2 ADD SWAP1 PUSH2 0x34C SWAP2 SWAP1 PUSH2 0x3609 JUMP JUMPDEST PUSH2 0x1933 JUMP JUMPDEST PUSH1 0x40 MLOAD PUSH2 0x35F SWAP3 SWAP2 SWAP1 PUSH2 0x3875 JUMP JUMPDEST PUSH1 0x40 MLOAD DUP1 SWAP2 SUB SWAP1 RETURN JUMPDEST CALLVALUE DUP1 ISZERO PUSH2 0x374 JUMPI PUSH1 0x0 DUP1 REVERT JUMPDEST POP PUSH2 0x38F PUSH1 0x4 DUP1 CALLDATASIZE SUB DUP2 ADD SWAP1 PUSH2 0x38A SWAP2 SWAP1 PUSH2 0x3696 JUMP JUMPDEST PUSH2 0x19D4 JUMP JUMPDEST PUSH1 0x40 MLOAD PUSH2 0x39C SWAP2 SWAP1 PUSH2 0x364F JUMP JUMPDEST PUSH1 0x40 MLOAD DUP1 SWAP2 SUB SWAP1 RETURN JUMPDEST CALLVALUE DUP1 ISZERO PUSH2 0x3B1 JUMPI PUSH1 0x0 DUP1 REVERT JUMPDEST POP PUSH2 0x3CC PUSH1 0x4 DUP1 CALLDATASIZE SUB DUP2 ADD SWAP1 PUSH2 0x3C7 SWAP2 SWAP1 PUSH2 0x3696 JUMP JUMPDEST PUSH2 0x1CC2 JUMP JUMPDEST STOP JUMPDEST CALLVALUE DUP1 ISZERO PUSH2 0x3DA JUMPI PUSH1 0x0 DUP1 REVERT JUMPDEST POP PUSH2 0x3F5 PUSH1 0x4 DUP1 CALLDATASIZE SUB DUP2 ADD SWAP1 PUSH2 0x3F0 SWAP2 SWAP1 PUSH2 0x3609 JUMP JUMPDEST PUSH2 0x1F01 JUMP JUMPDEST PUSH1 0x40 MLOAD PUSH2 0x403 SWAP3 SWAP2 SWAP1 PUSH2 0x3875 JUMP JUMPDEST PUSH1 0x40 MLOAD DUP1 SWAP2 SUB SWAP1 RETURN JUMPDEST CALLVALUE DUP1 ISZERO PUSH2 0x418 JUMPI PUSH1 0x0 DUP1 REVERT JUMPDEST POP PUSH2 0x433 PUSH1 0x4 DUP1 CALLDATASIZE SUB DUP2 ADD SWAP1 PUSH2 0x42E SWAP2 SWAP1 PUSH2 0x3696 JUMP JUMPDEST PUSH2 0x1F39 JUMP JUMPDEST PUSH1 0x40 MLOAD PUSH2 0x440 SWAP2 SWAP1 PUSH2 0x364F JUMP JUMPDEST PUSH1 0x40 MLOAD DUP1 SWAP2 SUB SWAP1 RETURN JUMPDEST CALLVALUE DUP1 ISZERO PUSH2 0x455 JUMPI PUSH1 0x0 DUP1 REVERT JUMPDEST POP PUSH2 0x45E PUSH2 0x21B8 JUMP JUMPDEST STOP JUMPDEST CALLVALUE DUP1 ISZERO PUSH2 0x46C JUMPI PUSH1 0x0 DUP1 REVERT JUMPDEST POP PUSH2 0x475 PUSH2 0x22B2 JUMP JUMPDEST PUSH1 0x40 MLOAD PUSH2 0x482 SWAP2 SWAP1 PUSH2 0x364F JUMP JUMPDEST PUSH1 0x40 MLOAD DUP1 SWAP2 SUB SWAP1 RETURN JUMPDEST CALLVALUE DUP1 ISZERO PUSH2 0x497 JUMPI PUSH1 0x0 DUP1 REVERT JUMPDEST POP PUSH2 0x4B2 PUSH1 0x4 DUP1 CALLDATASIZE SUB DUP2 ADD SWAP1 PUSH2 0x4AD SWAP2 SWAP1 PUSH2 0x389E JUMP JUMPDEST PUSH2 0x2353 JUMP JUMPDEST STOP JUMPDEST CALLVALUE DUP1 ISZERO PUSH2 0x4C0 JUMPI PUSH1 0x0 DUP1 REVERT JUMPDEST POP PUSH2 0x4C9 PUSH2 0x248D JUMP JUMPDEST PUSH1 0x40 MLOAD PUSH2 0x4D6 SWAP2 SWAP1 PUSH2 0x38FF JUMP JUMPDEST PUSH1 0x40 MLOAD DUP1 SWAP2 SUB SWAP1 RETURN JUMPDEST CALLVALUE DUP1 ISZERO PUSH2 0x4EB JUMPI PUSH1 0x0 DUP1 REVERT JUMPDEST POP PUSH2 0x506 PUSH1 0x4 DUP1 CALLDATASIZE SUB DUP2 ADD SWAP1 PUSH2 0x501 SWAP2 SWAP1 PUSH2 0x37E6 JUMP JUMPDEST PUSH2 0x24B1 JUMP JUMPDEST STOP JUMPDEST CALLVALUE DUP1 ISZERO PUSH2 0x514 JUMPI PUSH1 0x0 DUP1 REVERT JUMPDEST POP PUSH2 0x52F PUSH1 0x4 DUP1 CALLDATASIZE SUB DUP2 ADD SWAP1 PUSH2 0x52A SWAP2 SWAP1 PUSH2 0x3609 JUMP JUMPDEST PUSH2 0x2951 JUMP JUMPDEST STOP JUMPDEST CALLVALUE DUP1 ISZERO PUSH2 0x53D JUMPI PUSH1 0x0 DUP1 REVERT JUMPDEST POP PUSH2 0x546 PUSH2 0x29D4 JUMP JUMPDEST PUSH1 0x40 MLOAD PUSH2 0x553 SWAP2 SWAP1 PUSH2 0x393B JUMP JUMPDEST PUSH1 0x40 MLOAD DUP1 SWAP2 SUB SWAP1 RETURN JUMPDEST CALLVALUE DUP1 ISZERO PUSH2 0x568 JUMPI PUSH1 0x0 DUP1 REVERT JUMPDEST POP PUSH2 0x583 PUSH1 0x4 DUP1 CALLDATASIZE SUB DUP2 ADD SWAP1 PUSH2 0x57E SWAP2 SWAP1 PUSH2 0x3609 JUMP JUMPDEST PUSH2 0x29F8 JUMP JUMPDEST PUSH1 0x40 MLOAD PUSH2 0x595 SWAP7 SWAP6 SWAP5 SWAP4 SWAP3 SWAP2 SWAP1 PUSH2 0x398D JUMP JUMPDEST PUSH1 0x40 MLOAD DUP1 SWAP2 SUB SWAP1 RETURN JUMPDEST PUSH1 0x32 DUP2 JUMP JUMPDEST PUSH1 0x2 PUSH1 0x20 MSTORE DUP1 PUSH1 0x0 MSTORE PUSH1 0x40 PUSH1 0x0 KECCAK256 PUSH1 0x0 SWAP2 POP SWAP1 POP SLOAD DUP2 JUMP JUMPDEST PUSH2 0x5C3 PUSH2 0x2B29 JUMP JUMPDEST PUSH2 0x5CD DUP2 CALLER PUSH2 0x2B78 JUMP JUMPDEST PUSH1 0x0 PUSH1 0x2 PUSH1 0x0 CALLER PUSH20 0xFFFFFFFFFFFFFFFFFFFFFFFFFFFFFFFFFFFFFFFF AND PUSH20 0xFFFFFFFFFFFFFFFFFFFFFFFFFFFFFFFFFFFFFFFF AND DUP2 MSTORE PUSH1 0x20 ADD SWAP1 DUP2 MSTORE PUSH1 0x20 ADD PUSH1 0x0 KECCAK256 SLOAD SUB PUSH2 0x67A JUMPI PUSH1 0x3 PUSH1 0x0 CALLER PUSH20 0xFFFFFFFFFFFFFFFFFFFFFFFFFFFFFFFFFFFFFFFF AND PUSH20 0xFFFFFFFFFFFFFFFFFFFFFFFFFFFFFFFFFFFFFFFF AND DUP2 MSTORE PUSH1 0x20 ADD SWAP1 DUP2 MSTORE PUSH1 0x20 ADD PUSH1 0x0 KECCAK256 PUSH1 0x0 DUP1 DUP3 ADD PUSH1 0x0 SWAP1 SSTORE PUSH1 0x1 DUP3 ADD PUSH1 0x0 PUSH2 0x100 EXP DUP2 SLOAD SWAP1 PUSH8 0xFFFFFFFFFFFFFFFF MUL NOT AND SWAP1 SSTORE POP POP JUMPDEST PUSH2 0x682 PUSH2 0x2D3D JUMP JUMPDEST POP JUMP JUMPDEST PUSH32 0x0 DUP2 JUMP JUMPDEST PUSH2 0x6B1 PUSH2 0x2B29 JUMP JUMPDEST PUSH1 0x0 DUP1 PUSH1 0x0 DUP1 PUSH2 0x6C0 DUP8 PUSH2 0x29F8 JUMP JUMPDEST SWAP6 POP POP SWAP5 POP SWAP5 POP POP SWAP4 POP DUP4 PUSH2 0x70A JUMPI PUSH1 0x40 MLOAD PUSH32 0x8C379A000000000000000000000000000000000000000000000000000000000 DUP2 MSTORE PUSH1 0x4 ADD PUSH2 0x701 SWAP1 PUSH2 0x3A4B JUMP JUMPDEST PUSH1 0x40 MLOAD DUP1 SWAP2 SUB SWAP1 REVERT JUMPDEST PUSH2 0x3E8 DUP7 PUSH2 0xFFFF AND GT ISZERO PUSH2 0x753 JUMPI PUSH1 0x40 MLOAD PUSH32 0x8C379A000000000000000000000000000000000000000000000000000000000 DUP2 MSTORE PUSH1 0x4 ADD PUSH2 0x74A SWAP1 PUSH2 0x3AB7 JUMP JUMPDEST PUSH1 0x40 MLOAD DUP1 SWAP2 SUB SWAP1 REVERT JUMPDEST PUSH1 0x0 DUP2 GT PUSH2 0x796 JUMPI PUSH1 0x40 MLOAD PUSH32 0x8C379A000000000000000000000000000000000000000000000000000000000 DUP2 MSTORE PUSH1 0x4 ADD PUSH2 0x78D SWAP1 PUSH2 0x3B23 JUMP JUMPDEST PUSH1 0x40 MLOAD DUP1 SWAP2 SUB SWAP1 REVERT JUMPDEST PUSH1 0x0 PUSH1 0x2 PUSH1 0x0 DUP10 PUSH20 0xFFFFFFFFFFFFFFFFFFFFFFFFFFFFFFFFFFFFFFFF AND PUSH20 0xFFFFFFFFFFFFFFFFFFFFFFFFFFFFFFFFFFFFFFFF AND DUP2 MSTORE PUSH1 0x20 ADD SWAP1 DUP2 MSTORE PUSH1 0x20 ADD PUSH1 0x0 KECCAK256 DUP2 SWAP1 SSTORE POP PUSH2 0x847 PUSH32 0x0 PUSH1 0x0 PUSH32 0x0 PUSH20 0xFFFFFFFFFFFFFFFFFFFFFFFFFFFFFFFFFFFFFFFF AND PUSH2 0x2D47 SWAP1 SWAP3 SWAP2 SWAP1 PUSH4 0xFFFFFFFF AND JUMP JUMPDEST PUSH2 0x8B2 PUSH32 0x0 DUP3 PUSH32 0x0 PUSH20 0xFFFFFFFFFFFFFFFFFFFFFFFFFFFFFFFFFFFFFFFF AND PUSH2 0x2D47 SWAP1 SWAP3 SWAP2 SWAP1 PUSH4 0xFFFFFFFF AND JUMP JUMPDEST PUSH1 0x0 PUSH1 0x3 PUSH8 0xFFFFFFFFFFFFFFFF DUP2 GT ISZERO PUSH2 0x8CF JUMPI PUSH2 0x8CE PUSH2 0x3B43 JUMP JUMPDEST JUMPDEST PUSH1 0x40 MLOAD SWAP1 DUP1 DUP3 MSTORE DUP1 PUSH1 0x20 MUL PUSH1 0x20 ADD DUP3 ADD PUSH1 0x40 MSTORE DUP1 ISZERO PUSH2 0x8FD JUMPI DUP2 PUSH1 0x20 ADD PUSH1 0x20 DUP3 MUL DUP1 CALLDATASIZE DUP4 CALLDATACOPY DUP1 DUP3 ADD SWAP2 POP POP SWAP1 POP JUMPDEST POP SWAP1 POP PUSH32 0x0 DUP2 PUSH1 0x0 DUP2 MLOAD DUP2 LT PUSH2 0x935 JUMPI PUSH2 0x934 PUSH2 0x3B72 JUMP JUMPDEST JUMPDEST PUSH1 0x20 MUL PUSH1 0x20 ADD ADD SWAP1 PUSH20 0xFFFFFFFFFFFFFFFFFFFFFFFFFFFFFFFFFFFFFFFF AND SWAP1 DUP2 PUSH20 0xFFFFFFFFFFFFFFFFFFFFFFFFFFFFFFFFFFFFFFFF AND DUP2 MSTORE POP POP PUSH32 0x0 DUP2 PUSH1 0x1 DUP2 MLOAD DUP2 LT PUSH2 0x9A4 JUMPI PUSH2 0x9A3 PUSH2 0x3B72 JUMP JUMPDEST JUMPDEST PUSH1 0x20 MUL PUSH1 0x20 ADD ADD SWAP1 PUSH20 0xFFFFFFFFFFFFFFFFFFFFFFFFFFFFFFFFFFFFFFFF AND SWAP1 DUP2 PUSH20 0xFFFFFFFFFFFFFFFFFFFFFFFFFFFFFFFFFFFFFFFF AND DUP2 MSTORE POP POP PUSH32 0x0 DUP2 PUSH1 0x2 DUP2 MLOAD DUP2 LT PUSH2 0xA13 JUMPI PUSH2 0xA12 PUSH2 0x3B72 JUMP JUMPDEST JUMPDEST PUSH1 0x20 MUL PUSH1 0x20 ADD ADD SWAP1 PUSH20 0xFFFFFFFFFFFFFFFFFFFFFFFFFFFFFFFFFFFFFFFF AND SWAP1 DUP2 PUSH20 0xFFFFFFFFFFFFFFFFFFFFFFFFFFFFFFFFFFFFFFFF AND DUP2 MSTORE POP POP PUSH1 0x0 PUSH32 0x0 PUSH20 0xFFFFFFFFFFFFFFFFFFFFFFFFFFFFFFFFFFFFFFFF AND PUSH4 0xD06CA61F DUP5 DUP5 PUSH1 0x40 MLOAD DUP4 PUSH4 0xFFFFFFFF AND PUSH1 0xE0 SHL DUP2 MSTORE PUSH1 0x4 ADD PUSH2 0xAAA SWAP3 SWAP2 SWAP1 PUSH2 0x3C5F JUMP JUMPDEST PUSH1 0x0 PUSH1 0x40 MLOAD DUP1 DUP4 SUB DUP2 DUP7 GAS STATICCALL ISZERO DUP1 ISZERO PUSH2 0xAC7 JUMPI RETURNDATASIZE PUSH1 0x0 DUP1 RETURNDATACOPY RETURNDATASIZE PUSH1 0x0 REVERT JUMPDEST POP POP POP POP PUSH1 0x40 MLOAD RETURNDATASIZE PUSH1 0x0 DUP3 RETURNDATACOPY RETURNDATASIZE PUSH1 0x1F NOT PUSH1 0x1F DUP3 ADD AND DUP3 ADD DUP1 PUSH1 0x40 MSTORE POP DUP2 ADD SWAP1 PUSH2 0xAF0 SWAP2 SWAP1 PUSH2 0x3DCE JUMP JUMPDEST SWAP1 POP PUSH1 0x0 PUSH2 0x2710 DUP10 PUSH2 0xFFFF AND PUSH2 0x2710 PUSH2 0xB09 SWAP2 SWAP1 PUSH2 0x3E46 JUMP JUMPDEST DUP4 PUSH1 0x2 DUP2 MLOAD DUP2 LT PUSH2 0xB1D JUMPI PUSH2 0xB1C PUSH2 0x3B72 JUMP JUMPDEST JUMPDEST PUSH1 0x20 MUL PUSH1 0x20 ADD ADD MLOAD PUSH2 0xB2F SWAP2 SWAP1 PUSH2 0x3E7A JUMP JUMPDEST PUSH2 0xB39 SWAP2 SWAP1 PUSH2 0x3EEB JUMP JUMPDEST SWAP1 POP PUSH1 0x0 PUSH32 0x0 PUSH20 0xFFFFFFFFFFFFFFFFFFFFFFFFFFFFFFFFFFFFFFFF AND PUSH4 0x38ED1739 DUP7 DUP5 DUP8 DUP16 DUP15 PUSH1 0x40 MLOAD DUP7 PUSH4 0xFFFFFFFF AND PUSH1 0xE0 SHL DUP2 MSTORE PUSH1 0x4 ADD PUSH2 0xB9E SWAP6 SWAP5 SWAP4 SWAP3 SWAP2 SWAP1 PUSH2 0x3F1C JUMP JUMPDEST PUSH1 0x0 PUSH1 0x40 MLOAD DUP1 DUP4 SUB DUP2 PUSH1 0x0 DUP8 GAS CALL ISZERO DUP1 ISZERO PUSH2 0xBBD JUMPI RETURNDATASIZE PUSH1 0x0 DUP1 RETURNDATACOPY RETURNDATASIZE PUSH1 0x0 REVERT JUMPDEST POP POP POP POP PUSH1 0x40 MLOAD RETURNDATASIZE PUSH1 0x0 DUP3 RETURNDATACOPY RETURNDATASIZE PUSH1 0x1F NOT PUSH1 0x1F DUP3 ADD AND DUP3 ADD DUP1 PUSH1 0x40 MSTORE POP DUP2 ADD SWAP1 PUSH2 0xBE6 SWAP2 SWAP1 PUSH2 0x3DCE JUMP JUMPDEST SWAP1 POP PUSH1 0x3 DUP2 MLOAD LT ISZERO PUSH2 0xC2D JUMPI PUSH1 0x40 MLOAD PUSH32 0x8C379A000000000000000000000000000000000000000000000000000000000 DUP2 MSTORE PUSH1 0x4 ADD PUSH2 0xC24 SWAP1 PUSH2 0x3FC2 JUMP JUMPDEST PUSH1 0x40 MLOAD DUP1 SWAP2 SUB SWAP1 REVERT JUMPDEST PUSH32 0x0 PUSH20 0xFFFFFFFFFFFFFFFFFFFFFFFFFFFFFFFFFFFFFFFF AND DUP12 PUSH20 0xFFFFFFFFFFFFFFFFFFFFFFFFFFFFFFFFFFFFFFFF AND PUSH32 0xA0C29CBC03A94EE377A9B2CB21978307A58A2588CECB8CABF9A1EFE263A2DF7A DUP8 DUP5 PUSH1 0x1 DUP7 MLOAD PUSH2 0xCAC SWAP2 SWAP1 PUSH2 0x3E46 JUMP JUMPDEST DUP2 MLOAD DUP2 LT PUSH2 0xCBD JUMPI PUSH2 0xCBC PUSH2 0x3B72 JUMP JUMPDEST JUMPDEST PUSH1 0x20 MUL PUSH1 0x20 ADD ADD MLOAD DUP12 DUP12 TIMESTAMP PUSH1 0x40 MLOAD PUSH2 0xCD9 SWAP6 SWAP5 SWAP4 SWAP3 SWAP2 SWAP1 PUSH2 0x3FE2 JUMP JUMPDEST PUSH1 0x40 MLOAD DUP1 SWAP2 SUB SWAP1 LOG3 PUSH1 0x3 PUSH1 0x0 DUP13 PUSH20 0xFFFFFFFFFFFFFFFFFFFFFFFFFFFFFFFFFFFFFFFF AND PUSH20 0xFFFFFFFFFFFFFFFFFFFFFFFFFFFFFFFFFFFFFFFF AND DUP2 MSTORE PUSH1 0x20 ADD SWAP1 DUP2 MSTORE PUSH1 0x20 ADD PUSH1 0x0 KECCAK256 PUSH1 0x0 DUP1 DUP3 ADD PUSH1 0x0 SWAP1 SSTORE PUSH1 0x1 DUP3 ADD PUSH1 0x0 PUSH2 0x100 EXP DUP2 SLOAD SWAP1 PUSH8 0xFFFFFFFFFFFFFFFF MUL NOT AND SWAP1 SSTORE POP POP POP POP POP POP POP POP POP POP PUSH2 0xD56 PUSH2 0x2D3D JUMP JUMPDEST POP POP POP JUMP JUMPDEST PUSH32 0x0 DUP2 JUMP JUMPDEST PUSH2 0xD87 PUSH2 0x2B29 JUMP JUMPDEST PUSH1 0x0 DUP1 PUSH1 0x0 DUP1 PUSH2 0xD96 DUP8 PUSH2 0x29F8 JUMP JUMPDEST SWAP6 POP POP SWAP5 POP SWAP5 POP POP SWAP4 POP DUP4 PUSH2 0xDE0 JUMPI PUSH1 0x40 MLOAD PUSH32 0x8C379A000000000000000000000000000000000000000000000000000000000 DUP2 MSTORE PUSH1 0x4 ADD PUSH2 0xDD7 SWAP1 PUSH2 0x3A4B JUMP JUMPDEST PUSH1 0x40 MLOAD DUP1 SWAP2 SUB SWAP1 REVERT JUMPDEST PUSH2 0x3E8 DUP7 PUSH2 0xFFFF AND GT ISZERO PUSH2 0xE29 JUMPI PUSH1 0x40 MLOAD PUSH32 0x8C379A000000000000000000000000000000000000000000000000000000000 DUP2 MSTORE PUSH1 0x4 ADD PUSH2 0xE20 SWAP1 PUSH2 0x3AB7 JUMP JUMPDEST PUSH1 0x40 MLOAD DUP1 SWAP2 SUB SWAP1 REVERT JUMPDEST PUSH1 0x0 DUP2 GT PUSH2 0xE6C JUMPI PUSH1 0x40 MLOAD PUSH32 0x8C379A000000000000000000000000000000000000000000000000000000000 DUP2 MSTORE PUSH1 0x4 ADD PUSH2 0xE63 SWAP1 PUSH2 0x3B23 JUMP JUMPDEST PUSH1 0x40 MLOAD DUP1 SWAP2 SUB SWAP1 REVERT JUMPDEST PUSH1 0x0 PUSH1 0x2 PUSH1 0x0 DUP10 PUSH20 0xFFFFFFFFFFFFFFFFFFFFFFFFFFFFFFFFFFFFFFFF AND PUSH20 0xFFFFFFFFFFFFFFFFFFFFFFFFFFFFFFFFFFFFFFFF AND DUP2 MSTORE PUSH1 0x20 ADD SWAP1 DUP2 MSTORE PUSH1 0x20 ADD PUSH1 0x0 KECCAK256 DUP2 SWAP1 SSTORE POP PUSH2 0xF1D PUSH32 0x0 PUSH1 0x0 PUSH32 0x0 PUSH20 0xFFFFFFFFFFFFFFFFFFFFFFFFFFFFFFFFFFFFFFFF AND PUSH2 0x2D47 SWAP1 SWAP3 SWAP2 SWAP1 PUSH4 0xFFFFFFFF AND JUMP JUMPDEST PUSH2 0xF88 PUSH32 0x0 DUP3 PUSH32 0x0 PUSH20 0xFFFFFFFFFFFFFFFFFFFFFFFFFFFFFFFFFFFFFFFF AND PUSH2 0x2D47 SWAP1 SWAP3 SWAP2 SWAP1 PUSH4 0xFFFFFFFF AND JUMP JUMPDEST PUSH1 0x0 PUSH1 0x2 PUSH8 0xFFFFFFFFFFFFFFFF DUP2 GT ISZERO PUSH2 0xFA5 JUMPI PUSH2 0xFA4 PUSH2 0x3B43 JUMP JUMPDEST JUMPDEST PUSH1 0x40 MLOAD SWAP1 DUP1 DUP3 MSTORE DUP1 PUSH1 0x20 MUL PUSH1 0x20 ADD DUP3 ADD PUSH1 0x40 MSTORE DUP1 ISZERO PUSH2 0xFD3 JUMPI DUP2 PUSH1 0x20 ADD PUSH1 0x20 DUP3 MUL DUP1 CALLDATASIZE DUP4 CALLDATACOPY DUP1 DUP3 ADD SWAP2 POP POP SWAP1 POP JUMPDEST POP SWAP1 POP PUSH32 0x0 DUP2 PUSH1 0x0 DUP2 MLOAD DUP2 LT PUSH2 0x100B JUMPI PUSH2 0x100A PUSH2 0x3B72 JUMP JUMPDEST JUMPDEST PUSH1 0x20 MUL PUSH1 0x20 ADD ADD SWAP1 PUSH20 0xFFFFFFFFFFFFFFFFFFFFFFFFFFFFFFFFFFFFFFFF AND SWAP1 DUP2 PUSH20 0xFFFFFFFFFFFFFFFFFFFFFFFFFFFFFFFFFFFFFFFF AND DUP2 MSTORE POP POP PUSH32 0x0 DUP2 PUSH1 0x1 DUP2 MLOAD DUP2 LT PUSH2 0x107A JUMPI PUSH2 0x1079 PUSH2 0x3B72 JUMP JUMPDEST JUMPDEST PUSH1 0x20 MUL PUSH1 0x20 ADD ADD SWAP1 PUSH20 0xFFFFFFFFFFFFFFFFFFFFFFFFFFFFFFFFFFFFFFFF AND SWAP1 DUP2 PUSH20 0xFFFFFFFFFFFFFFFFFFFFFFFFFFFFFFFFFFFFFFFF AND DUP2 MSTORE POP POP PUSH1 0x0 PUSH32 0x0 PUSH20 0xFFFFFFFFFFFFFFFFFFFFFFFFFFFFFFFFFFFFFFFF AND PUSH4 0xD06CA61F DUP5 DUP5 PUSH1 0x40 MLOAD DUP4 PUSH4 0xFFFFFFFF AND PUSH1 0xE0 SHL DUP2 MSTORE PUSH1 0x4 ADD PUSH2 0x1111 SWAP3 SWAP2 SWAP1 PUSH2 0x3C5F JUMP JUMPDEST PUSH1 0x0 PUSH1 0x40 MLOAD DUP1 DUP4 SUB DUP2 DUP7 GAS STATICCALL ISZERO DUP1 ISZERO PUSH2 0x112E JUMPI RETURNDATASIZE PUSH1 0x0 DUP1 RETURNDATACOPY RETURNDATASIZE PUSH1 0x0 REVERT JUMPDEST POP POP POP POP PUSH1 0x40 MLOAD RETURNDATASIZE PUSH1 0x0 DUP3 RETURNDATACOPY RETURNDATASIZE PUSH1 0x1F NOT PUSH1 0x1F DUP3 ADD AND DUP3 ADD DUP1 PUSH1 0x40 MSTORE POP DUP2 ADD SWAP1 PUSH2 0x1157 SWAP2 SWAP1 PUSH2 0x3DCE JUMP JUMPDEST SWAP1 POP PUSH1 0x0 PUSH2 0x2710 DUP10 PUSH2 0xFFFF AND PUSH2 0x2710 PUSH2 0x1170 SWAP2 SWAP1 PUSH2 0x3E46 JUMP JUMPDEST DUP4 PUSH1 0x1 DUP2 MLOAD DUP2 LT PUSH2 0x1184 JUMPI PUSH2 0x1183 PUSH2 0x3B72 JUMP JUMPDEST JUMPDEST PUSH1 0x20 MUL PUSH1 0x20 ADD ADD MLOAD PUSH2 0x1196 SWAP2 SWAP1 PUSH2 0x3E7A JUMP JUMPDEST PUSH2 0x11A0 SWAP2 SWAP1 PUSH2 0x3EEB JUMP JUMPDEST SWAP1 POP PUSH1 0x0 PUSH32 0x0 PUSH20 0xFFFFFFFFFFFFFFFFFFFFFFFFFFFFFFFFFFFFFFFF AND PUSH4 0x18CBAFE5 DUP7 DUP5 DUP8 DUP16 DUP15 PUSH1 0x40 MLOAD DUP7 PUSH4 0xFFFFFFFF AND PUSH1 0xE0 SHL DUP2 MSTORE PUSH1 0x4 ADD PUSH2 0x1205 SWAP6 SWAP5 SWAP4 SWAP3 SWAP2 SWAP1 PUSH2 0x3F1C JUMP JUMPDEST PUSH1 0x0 PUSH1 0x40 MLOAD DUP1 DUP4 SUB DUP2 PUSH1 0x0 DUP8 GAS CALL ISZERO DUP1 ISZERO PUSH2 0x1224 JUMPI RETURNDATASIZE PUSH1 0x0 DUP1 RETURNDATACOPY RETURNDATASIZE PUSH1 0x0 REVERT JUMPDEST POP POP POP POP PUSH1 0x40 MLOAD RETURNDATASIZE PUSH1 0x0 DUP3 RETURNDATACOPY RETURNDATASIZE PUSH1 0x1F NOT PUSH1 0x1F DUP3 ADD AND DUP3 ADD DUP1 PUSH1 0x40 MSTORE POP DUP2 ADD SWAP1 PUSH2 0x124D SWAP2 SWAP1 PUSH2 0x3DCE JUMP JUMPDEST SWAP1 POP PUSH1 0x2 DUP2 MLOAD LT ISZERO PUSH2 0x1294 JUMPI PUSH1 0x40 MLOAD PUSH32 0x8C379A000000000000000000000000000000000000000000000000000000000 DUP2 MSTORE PUSH1 0x4 ADD PUSH2 0x128B SWAP1 PUSH2 0x3FC2 JUMP JUMPDEST PUSH1 0x40 MLOAD DUP1 SWAP2 SUB SWAP1 REVERT JUMPDEST PUSH1 0x0 PUSH20 0xFFFFFFFFFFFFFFFFFFFFFFFFFFFFFFFFFFFFFFFF AND DUP12 PUSH20 0xFFFFFFFFFFFFFFFFFFFFFFFFFFFFFFFFFFFFFFFF AND PUSH32 0xA0C29CBC03A94EE377A9B2CB21978307A58A2588CECB8CABF9A1EFE263A2DF7A DUP8 DUP5 PUSH1 0x1 DUP2 MLOAD DUP2 LT PUSH2 0x12F9 JUMPI PUSH2 0x12F8 PUSH2 0x3B72 JUMP JUMPDEST JUMPDEST PUSH1 0x20 MUL PUSH1 0x20 ADD ADD MLOAD DUP12 DUP12 TIMESTAMP PUSH1 0x40 MLOAD PUSH2 0x1315 SWAP6 SWAP5 SWAP4 SWAP3 SWAP2 SWAP1 PUSH2 0x3FE2 JUMP JUMPDEST PUSH1 0x40 MLOAD DUP1 SWAP2 SUB SWAP1 LOG3 PUSH1 0x3 PUSH1 0x0 DUP13 PUSH20 0xFFFFFFFFFFFFFFFFFFFFFFFFFFFFFFFFFFFFFFFF AND PUSH20 0xFFFFFFFFFFFFFFFFFFFFFFFFFFFFFFFFFFFFFFFF AND DUP2 MSTORE PUSH1 0x20 ADD SWAP1 DUP2 MSTORE PUSH1 0x20 ADD PUSH1 0x0 KECCAK256 PUSH1 0x0 DUP1 DUP3 ADD PUSH1 0x0 SWAP1 SSTORE PUSH1 0x1 DUP3 ADD PUSH1 0x0 PUSH2 0x100 EXP DUP2 SLOAD SWAP1 PUSH8 0xFFFFFFFFFFFFFFFF MUL NOT AND SWAP1 SSTORE POP POP POP POP POP POP POP POP POP POP PUSH2 0x1392 PUSH2 0x2D3D JUMP JUMPDEST POP POP POP JUMP JUMPDEST PUSH2 0x139F PUSH2 0x2E96 JUMP JUMPDEST PUSH2 0x13A9 PUSH1 0x0 PUSH2 0x2F14 JUMP JUMPDEST JUMP JUMPDEST PUSH2 0x13B3 PUSH2 0x2B29 JUMP JUMPDEST PUSH1 0x0 DUP4 GT PUSH2 0x13F6 JUMPI PUSH1 0x40 MLOAD PUSH32 0x8C379A000000000000000000000000000000000000000000000000000000000 DUP2 MSTORE PUSH1 0x4 ADD PUSH2 0x13ED SWAP1 PUSH2 0x4081 JUMP JUMPDEST PUSH1 0x40 MLOAD DUP1 SWAP2 SUB SWAP1 REVERT JUMPDEST PUSH1 0x0 PUSH1 0x2 PUSH1 0x0 CALLER PUSH20 0xFFFFFFFFFFFFFFFFFFFFFFFFFFFFFFFFFFFFFFFF AND PUSH20 0xFFFFFFFFFFFFFFFFFFFFFFFFFFFFFFFFFFFFFFFF AND DUP2 MSTORE PUSH1 0x20 ADD SWAP1 DUP2 MSTORE PUSH1 0x20 ADD PUSH1 0x0 KECCAK256 SLOAD SWAP1 POP DUP4 DUP2 LT ISZERO PUSH2 0x147D JUMPI PUSH1 0x40 MLOAD PUSH32 0x8C379A000000000000000000000000000000000000000000000000000000000 DUP2 MSTORE PUSH1 0x4 ADD PUSH2 0x1474 SWAP1 PUSH2 0x40ED JUMP JUMPDEST PUSH1 0x40 MLOAD DUP1 SWAP2 SUB SWAP1 REVERT JUMPDEST DUP4 DUP2 SUB PUSH1 0x2 PUSH1 0x0 CALLER PUSH20 0xFFFFFFFFFFFFFFFFFFFFFFFFFFFFFFFFFFFFFFFF AND PUSH20 0xFFFFFFFFFFFFFFFFFFFFFFFFFFFFFFFFFFFFFFFF AND DUP2 MSTORE PUSH1 0x20 ADD SWAP1 DUP2 MSTORE PUSH1 0x20 ADD PUSH1 0x0 KECCAK256 DUP2 SWAP1 SSTORE POP PUSH2 0x152F PUSH32 0x0 PUSH1 0x0 PUSH32 0x0 PUSH20 0xFFFFFFFFFFFFFFFFFFFFFFFFFFFFFFFFFFFFFFFF AND PUSH2 0x2D47 SWAP1 SWAP3 SWAP2 SWAP1 PUSH4 0xFFFFFFFF AND JUMP JUMPDEST PUSH2 0x159A PUSH32 0x0 DUP6 PUSH32 0x0 PUSH20 0xFFFFFFFFFFFFFFFFFFFFFFFFFFFFFFFFFFFFFFFF AND PUSH2 0x2D47 SWAP1 SWAP3 SWAP2 SWAP1 PUSH4 0xFFFFFFFF AND JUMP JUMPDEST PUSH1 0x0 PUSH1 0x3 PUSH8 0xFFFFFFFFFFFFFFFF DUP2 GT ISZERO PUSH2 0x15B7 JUMPI PUSH2 0x15B6 PUSH2 0x3B43 JUMP JUMPDEST JUMPDEST PUSH1 0x40 MLOAD SWAP1 DUP1 DUP3 MSTORE DUP1 PUSH1 0x20 MUL PUSH1 0x20 ADD DUP3 ADD PUSH1 0x40 MSTORE DUP1 ISZERO PUSH2 0x15E5 JUMPI DUP2 PUSH1 0x20 ADD PUSH1 0x20 DUP3 MUL DUP1 CALLDATASIZE DUP4 CALLDATACOPY DUP1 DUP3 ADD SWAP2 POP POP SWAP1 POP JUMPDEST POP SWAP1 POP PUSH32 0x0 DUP2 PUSH1 0x0 DUP2 MLOAD DUP2 LT PUSH2 0x161D JUMPI PUSH2 0x161C PUSH2 0x3B72 JUMP JUMPDEST JUMPDEST PUSH1 0x20 MUL PUSH1 0x20 ADD ADD SWAP1 PUSH20 0xFFFFFFFFFFFFFFFFFFFFFFFFFFFFFFFFFFFFFFFF AND SWAP1 DUP2 PUSH20 0xFFFFFFFFFFFFFFFFFFFFFFFFFFFFFFFFFFFFFFFF AND DUP2 MSTORE POP POP PUSH32 0x0 DUP2 PUSH1 0x1 DUP2 MLOAD DUP2 LT PUSH2 0x168C JUMPI PUSH2 0x168B PUSH2 0x3B72 JUMP JUMPDEST JUMPDEST PUSH1 0x20 MUL PUSH1 0x20 ADD ADD SWAP1 PUSH20 0xFFFFFFFFFFFFFFFFFFFFFFFFFFFFFFFFFFFFFFFF AND SWAP1 DUP2 PUSH20 0xFFFFFFFFFFFFFFFFFFFFFFFFFFFFFFFFFFFFFFFF AND DUP2 MSTORE POP POP PUSH32 0x0 DUP2 PUSH1 0x2 DUP2 MLOAD DUP2 LT PUSH2 0x16FB JUMPI PUSH2 0x16FA PUSH2 0x3B72 JUMP JUMPDEST JUMPDEST PUSH1 0x20 MUL PUSH1 0x20 ADD ADD SWAP1 PUSH20 0xFFFFFFFFFFFFFFFFFFFFFFFFFFFFFFFFFFFFFFFF AND SWAP1 DUP2 PUSH20 0xFFFFFFFFFFFFFFFFFFFFFFFFFFFFFFFFFFFFFFFF AND DUP2 MSTORE POP POP PUSH1 0x0 PUSH32 0x0 PUSH20 0xFFFFFFFFFFFFFFFFFFFFFFFFFFFFFFFFFFFFFFFF AND PUSH4 0x38ED1739 DUP8 DUP8 DUP6 CALLER DUP10 PUSH1 0x40 MLOAD DUP7 PUSH4 0xFFFFFFFF AND PUSH1 0xE0 SHL DUP2 MSTORE PUSH1 0x4 ADD PUSH2 0x1798 SWAP6 SWAP5 SWAP4 SWAP3 SWAP2 SWAP1 PUSH2 0x3F1C JUMP JUMPDEST PUSH1 0x0 PUSH1 0x40 MLOAD DUP1 DUP4 SUB DUP2 PUSH1 0x0 DUP8 GAS CALL ISZERO DUP1 ISZERO PUSH2 0x17B7 JUMPI RETURNDATASIZE PUSH1 0x0 DUP1 RETURNDATACOPY RETURNDATASIZE PUSH1 0x0 REVERT JUMPDEST POP POP POP POP PUSH1 0x40 MLOAD RETURNDATASIZE PUSH1 0x0 DUP3 RETURNDATACOPY RETURNDATASIZE PUSH1 0x1F NOT PUSH1 0x1F DUP3 ADD AND DUP3 ADD DUP1 PUSH1 0x40 MSTORE POP DUP2 ADD SWAP1 PUSH2 0x17E0 SWAP2 SWAP1 PUSH2 0x3DCE JUMP JUMPDEST SWAP1 POP PUSH1 0x3 DUP2 MLOAD LT ISZERO PUSH2 0x1827 JUMPI PUSH1 0x40 MLOAD PUSH32 0x8C379A000000000000000000000000000000000000000000000000000000000 DUP2 MSTORE PUSH1 0x4 ADD PUSH2 0x181E SWAP1 PUSH2 0x3FC2 JUMP JUMPDEST PUSH1 0x40 MLOAD DUP1 SWAP2 SUB SWAP1 REVERT JUMPDEST PUSH32 0x0 PUSH20 0xFFFFFFFFFFFFFFFFFFFFFFFFFFFFFFFFFFFFFFFF AND CALLER PUSH20 0xFFFFFFFFFFFFFFFFFFFFFFFFFFFFFFFFFFFFFFFF AND PUSH32 0xA078C4190ABE07940190EFFC1846BE0CCF03AD6007BC9E93F9697D0B460BEFBB DUP9 DUP5 PUSH1 0x1 DUP7 MLOAD PUSH2 0x18A6 SWAP2 SWAP1 PUSH2 0x3E46 JUMP JUMPDEST DUP2 MLOAD DUP2 LT PUSH2 0x18B7 JUMPI PUSH2 0x18B6 PUSH2 0x3B72 JUMP JUMPDEST JUMPDEST PUSH1 0x20 MUL PUSH1 0x20 ADD ADD MLOAD PUSH1 0x40 MLOAD PUSH2 0x18CD SWAP3 SWAP2 SWAP1 PUSH2 0x410D JUMP JUMPDEST PUSH1 0x40 MLOAD DUP1 SWAP2 SUB SWAP1 LOG3 POP POP POP PUSH2 0x18E0 PUSH2 0x2D3D JUMP JUMPDEST POP POP POP JUMP JUMPDEST PUSH1 0x0 PUSH1 0x1 PUSH1 0x0 SWAP1 SLOAD SWAP1 PUSH2 0x100 EXP SWAP1 DIV PUSH20 0xFFFFFFFFFFFFFFFFFFFFFFFFFFFFFFFFFFFFFFFF AND SWAP1 POP SWAP1 JUMP JUMPDEST PUSH32 0x0 DUP2 JUMP JUMPDEST PUSH1 0x0 DUP1 PUSH1 0x0 PUSH1 0x3 PUSH1 0x0 DUP6 PUSH20 0xFFFFFFFFFFFFFFFFFFFFFFFFFFFFFFFFFFFFFFFF AND PUSH20 0xFFFFFFFFFFFFFFFFFFFFFFFFFFFFFFFFFFFFFFFF AND DUP2 MSTORE PUSH1 0x20 ADD SWAP1 DUP2 MSTORE PUSH1 0x20 ADD PUSH1 0x0 KECCAK256 PUSH1 0x40 MLOAD DUP1 PUSH1 0x40 ADD PUSH1 0x40 MSTORE SWAP1 DUP2 PUSH1 0x0 DUP3 ADD SLOAD DUP2 MSTORE PUSH1 0x20 ADD PUSH1 0x1 DUP3 ADD PUSH1 0x0 SWAP1 SLOAD SWAP1 PUSH2 0x100 EXP SWAP1 DIV PUSH8 0xFFFFFFFFFFFFFFFF AND PUSH8 0xFFFFFFFFFFFFFFFF AND PUSH8 0xFFFFFFFFFFFFFFFF AND DUP2 MSTORE POP POP SWAP1 POP DUP1 PUSH1 0x0 ADD MLOAD DUP2 PUSH1 0x20 ADD MLOAD SWAP3 POP SWAP3 POP POP SWAP2 POP SWAP2 JUMP JUMPDEST PUSH1 0x0 DUP1 DUP3 GT PUSH2 0x1A18 JUMPI PUSH1 0x40 MLOAD PUSH32 0x8C379A000000000000000000000000000000000000000000000000000000000 DUP2 MSTORE PUSH1 0x4 ADD PUSH2 0x1A0F SWAP1 PUSH2 0x4081 JUMP JUMPDEST PUSH1 0x40 MLOAD DUP1 SWAP2 SUB SWAP1 REVERT JUMPDEST PUSH1 0x0 PUSH1 0x3 PUSH8 0xFFFFFFFFFFFFFFFF DUP2 GT ISZERO PUSH2 0x1A35 JUMPI PUSH2 0x1A34 PUSH2 0x3B43 JUMP JUMPDEST JUMPDEST PUSH1 0x40 MLOAD SWAP1 DUP1 DUP3 MSTORE DUP1 PUSH1 0x20 MUL PUSH1 0x20 ADD DUP3 ADD PUSH1 0x40 MSTORE DUP1 ISZERO PUSH2 0x1A63 JUMPI DUP2 PUSH1 0x20 ADD PUSH1 0x20 DUP3 MUL DUP1 CALLDATASIZE DUP4 CALLDATACOPY DUP1 DUP3 ADD SWAP2 POP POP SWAP1 POP JUMPDEST POP SWAP1 POP PUSH32 0x0 DUP2 PUSH1 0x0 DUP2 MLOAD DUP2 LT PUSH2 0x1A9B JUMPI PUSH2 0x1A9A PUSH2 0x3B72 JUMP JUMPDEST JUMPDEST PUSH1 0x20 MUL PUSH1 0x20 ADD ADD SWAP1 PUSH20 0xFFFFFFFFFFFFFFFFFFFFFFFFFFFFFFFFFFFFFFFF AND SWAP1 DUP2 PUSH20 0xFFFFFFFFFFFFFFFFFFFFFFFFFFFFFFFFFFFFFFFF AND DUP2 MSTORE POP POP PUSH32 0x0 DUP2 PUSH1 0x1 DUP2 MLOAD DUP2 LT PUSH2 0x1B0A JUMPI PUSH2 0x1B09 PUSH2 0x3B72 JUMP JUMPDEST JUMPDEST PUSH1 0x20 MUL PUSH1 0x20 ADD ADD SWAP1 PUSH20 0xFFFFFFFFFFFFFFFFFFFFFFFFFFFFFFFFFFFFFFFF AND SWAP1 DUP2 PUSH20 0xFFFFFFFFFFFFFFFFFFFFFFFFFFFFFFFFFFFFFFFF AND DUP2 MSTORE POP POP PUSH32 0x0 DUP2 PUSH1 0x2 DUP2 MLOAD DUP2 LT PUSH2 0x1B79 JUMPI PUSH2 0x1B78 PUSH2 0x3B72 JUMP JUMPDEST JUMPDEST PUSH1 0x20 MUL PUSH1 0x20 ADD ADD SWAP1 PUSH20 0xFFFFFFFFFFFFFFFFFFFFFFFFFFFFFFFFFFFFFFFF AND SWAP1 DUP2 PUSH20 0xFFFFFFFFFFFFFFFFFFFFFFFFFFFFFFFFFFFFFFFF AND DUP2 MSTORE POP POP PUSH1 0x0 PUSH32 0x0 PUSH20 0xFFFFFFFFFFFFFFFFFFFFFFFFFFFFFFFFFFFFFFFF AND PUSH4 0xD06CA61F DUP6 DUP5 PUSH1 0x40 MLOAD DUP4 PUSH4 0xFFFFFFFF AND PUSH1 0xE0 SHL DUP2 MSTORE PUSH1 0x4 ADD PUSH2 0x1C10 SWAP3 SWAP2 SWAP1 PUSH2 0x3C5F JUMP JUMPDEST PUSH1 0x0 PUSH1 0x40 MLOAD DUP1 DUP4 SUB DUP2 DUP7 GAS STATICCALL ISZERO DUP1 ISZERO PUSH2 0x1C2D JUMPI RETURNDATASIZE PUSH1 0x0 DUP1 RETURNDATACOPY RETURNDATASIZE PUSH1 0x0 REVERT JUMPDEST POP POP POP POP PUSH1 0x40 MLOAD RETURNDATASIZE PUSH1 0x0 DUP3 RETURNDATACOPY RETURNDATASIZE PUSH1 0x1F NOT PUSH1 0x1F DUP3 ADD AND DUP3 ADD DUP1 PUSH1 0x40 MSTORE POP DUP2 ADD SWAP1 PUSH2 0x1C56 SWAP2 SWAP1 PUSH2 0x3DCE JUMP JUMPDEST SWAP1 POP PUSH1 0x3 DUP2 MLOAD LT ISZERO PUSH2 0x1C9D JUMPI PUSH1 0x40 MLOAD PUSH32 0x8C379A000000000000000000000000000000000000000000000000000000000 DUP2 MSTORE PUSH1 0x4 ADD PUSH2 0x1C94 SWAP1 PUSH2 0x3FC2 JUMP JUMPDEST PUSH1 0x40 MLOAD DUP1 SWAP2 SUB SWAP1 REVERT JUMPDEST DUP1 PUSH1 0x2 DUP2 MLOAD DUP2 LT PUSH2 0x1CB1 JUMPI PUSH2 0x1CB0 PUSH2 0x3B72 JUMP JUMPDEST JUMPDEST PUSH1 0x20 MUL PUSH1 0x20 ADD ADD MLOAD SWAP3 POP POP POP SWAP2 SWAP1 POP JUMP JUMPDEST PUSH2 0x1CCA PUSH2 0x2B29 JUMP JUMPDEST PUSH1 0x0 DUP2 GT PUSH2 0x1D0D JUMPI PUSH1 0x40 MLOAD PUSH32 0x8C379A000000000000000000000000000000000000000000000000000000000 DUP2 MSTORE PUSH1 0x4 ADD PUSH2 0x1D04 SWAP1 PUSH2 0x4081 JUMP JUMPDEST PUSH1 0x40 MLOAD DUP1 SWAP2 SUB SWAP1 REVERT JUMPDEST PUSH2 0x1D5A CALLER ADDRESS DUP4 PUSH32 0x0 PUSH20 0xFFFFFFFFFFFFFFFFFFFFFFFFFFFFFFFFFFFFFFFF AND PUSH2 0x2FDA SWAP1 SWAP4 SWAP3 SWAP2 SWAP1 PUSH4 0xFFFFFFFF AND JUMP JUMPDEST DUP1 PUSH1 0x2 PUSH1 0x0 CALLER PUSH20 0xFFFFFFFFFFFFFFFFFFFFFFFFFFFFFFFFFFFFFFFF AND PUSH20 0xFFFFFFFFFFFFFFFFFFFFFFFFFFFFFFFFFFFFFFFF AND DUP2 MSTORE PUSH1 0x20 ADD SWAP1 DUP2 MSTORE PUSH1 0x20 ADD PUSH1 0x0 KECCAK256 PUSH1 0x0 DUP3 DUP3 SLOAD PUSH2 0x1DA9 SWAP2 SWAP1 PUSH2 0x4136 JUMP JUMPDEST SWAP3 POP POP DUP2 SWAP1 SSTORE POP PUSH1 0x0 PUSH2 0x1DBA PUSH2 0x3063 JUMP JUMPDEST POP SWAP1 POP PUSH1 0x40 MLOAD DUP1 PUSH1 0x40 ADD PUSH1 0x40 MSTORE DUP1 DUP3 DUP2 MSTORE PUSH1 0x20 ADD TIMESTAMP PUSH8 0xFFFFFFFFFFFFFFFF AND DUP2 MSTORE POP PUSH1 0x3 PUSH1 0x0 CALLER PUSH20 0xFFFFFFFFFFFFFFFFFFFFFFFFFFFFFFFFFFFFFFFF AND PUSH20 0xFFFFFFFFFFFFFFFFFFFFFFFFFFFFFFFFFFFFFFFF AND DUP2 MSTORE PUSH1 0x20 ADD SWAP1 DUP2 MSTORE PUSH1 0x20 ADD PUSH1 0x0 KECCAK256 PUSH1 0x0 DUP3 ADD MLOAD DUP2 PUSH1 0x0 ADD SSTORE PUSH1 0x20 DUP3 ADD MLOAD DUP2 PUSH1 0x1 ADD PUSH1 0x0 PUSH2 0x100 EXP DUP2 SLOAD DUP2 PUSH8 0xFFFFFFFFFFFFFFFF MUL NOT AND SWAP1 DUP4 PUSH8 0xFFFFFFFFFFFFFFFF AND MUL OR SWAP1 SSTORE POP SWAP1 POP POP CALLER PUSH20 0xFFFFFFFFFFFFFFFFFFFFFFFFFFFFFFFFFFFFFFFF AND PUSH32 0xCE584EB1DEEFCAED6CFAA5762BCB28A12FF7E564B0A1A75D80386083C0AC13F8 DUP3 TIMESTAMP PUSH1 0x40 MLOAD PUSH2 0x1E9F SWAP3 SWAP2 SWAP1 PUSH2 0x3875 JUMP JUMPDEST PUSH1 0x40 MLOAD DUP1 SWAP2 SUB SWAP1 LOG2 CALLER PUSH20 0xFFFFFFFFFFFFFFFFFFFFFFFFFFFFFFFFFFFFFFFF AND PUSH32 0x2DA466A7B24304F47E87FA2E1E5A81B9831CE54FEC19055CE277CA2F39BA42C4 DUP4 PUSH1 0x40 MLOAD PUSH2 0x1EED SWAP2 SWAP1 PUSH2 0x364F JUMP JUMPDEST PUSH1 0x40 MLOAD DUP1 SWAP2 SUB SWAP1 LOG2 POP PUSH2 0x1EFE PUSH2 0x2D3D JUMP JUMPDEST POP JUMP JUMPDEST PUSH1 0x3 PUSH1 0x20 MSTORE DUP1 PUSH1 0x0 MSTORE PUSH1 0x40 PUSH1 0x0 KECCAK256 PUSH1 0x0 SWAP2 POP SWAP1 POP DUP1 PUSH1 0x0 ADD SLOAD SWAP1 DUP1 PUSH1 0x1 ADD PUSH1 0x0 SWAP1 SLOAD SWAP1 PUSH2 0x100 EXP SWAP1 DIV PUSH8 0xFFFFFFFFFFFFFFFF AND SWAP1 POP DUP3 JUMP JUMPDEST PUSH1 0x0 DUP1 DUP3 GT PUSH2 0x1F7D JUMPI PUSH1 0x40 MLOAD PUSH32 0x8C379A000000000000000000000000000000000000000000000000000000000 DUP2 MSTORE PUSH1 0x4 ADD PUSH2 0x1F74 SWAP1 PUSH2 0x4081 JUMP JUMPDEST PUSH1 0x40 MLOAD DUP1 SWAP2 SUB SWAP1 REVERT JUMPDEST PUSH1 0x0 PUSH1 0x2 PUSH8 0xFFFFFFFFFFFFFFFF DUP2 GT ISZERO PUSH2 0x1F9A JUMPI PUSH2 0x1F99 PUSH2 0x3B43 JUMP JUMPDEST JUMPDEST PUSH1 0x40 MLOAD SWAP1 DUP1 DUP3 MSTORE DUP1 PUSH1 0x20 MUL PUSH1 0x20 ADD DUP3 ADD PUSH1 0x40 MSTORE DUP1 ISZERO PUSH2 0x1FC8 JUMPI DUP2 PUSH1 0x20 ADD PUSH1 0x20 DUP3 MUL DUP1 CALLDATASIZE DUP4 CALLDATACOPY DUP1 DUP3 ADD SWAP2 POP POP SWAP1 POP JUMPDEST POP SWAP1 POP PUSH32 0x0 DUP2 PUSH1 0x0 DUP2 MLOAD DUP2 LT PUSH2 0x2000 JUMPI PUSH2 0x1FFF PUSH2 0x3B72 JUMP JUMPDEST JUMPDEST PUSH1 0x20 MUL PUSH1 0x20 ADD ADD SWAP1 PUSH20 0xFFFFFFFFFFFFFFFFFFFFFFFFFFFFFFFFFFFFFFFF AND SWAP1 DUP2 PUSH20 0xFFFFFFFFFFFFFFFFFFFFFFFFFFFFFFFFFFFFFFFF AND DUP2 MSTORE POP POP PUSH32 0x0 DUP2 PUSH1 0x1 DUP2 MLOAD DUP2 LT PUSH2 0x206F JUMPI PUSH2 0x206E PUSH2 0x3B72 JUMP JUMPDEST JUMPDEST PUSH1 0x20 MUL PUSH1 0x20 ADD ADD SWAP1 PUSH20 0xFFFFFFFFFFFFFFFFFFFFFFFFFFFFFFFFFFFFFFFF AND SWAP1 DUP2 PUSH20 0xFFFFFFFFFFFFFFFFFFFFFFFFFFFFFFFFFFFFFFFF AND DUP2 MSTORE POP POP PUSH1 0x0 PUSH32 0x0 PUSH20 0xFFFFFFFFFFFFFFFFFFFFFFFFFFFFFFFFFFFFFFFF AND PUSH4 0xD06CA61F DUP6 DUP5 PUSH1 0x40 MLOAD DUP4 PUSH4 0xFFFFFFFF AND PUSH1 0xE0 SHL DUP2 MSTORE PUSH1 0x4 ADD PUSH2 0x2106 SWAP3 SWAP2 SWAP1 PUSH2 0x3C5F JUMP JUMPDEST PUSH1 0x0 PUSH1 0x40 MLOAD DUP1 DUP4 SUB DUP2 DUP7 GAS STATICCALL ISZERO DUP1 ISZERO PUSH2 0x2123 JUMPI RETURNDATASIZE PUSH1 0x0 DUP1 RETURNDATACOPY RETURNDATASIZE PUSH1 0x0 REVERT JUMPDEST POP POP POP POP PUSH1 0x40 MLOAD RETURNDATASIZE PUSH1 0x0 DUP3 RETURNDATACOPY RETURNDATASIZE PUSH1 0x1F NOT PUSH1 0x1F DUP3 ADD AND DUP3 ADD DUP1 PUSH1 0x40 MSTORE POP DUP2 ADD SWAP1 PUSH2 0x214C SWAP2 SWAP1 PUSH2 0x3DCE JUMP JUMPDEST SWAP1 POP PUSH1 0x2 DUP2 MLOAD LT ISZERO PUSH2 0x2193 JUMPI PUSH1 0x40 MLOAD PUSH32 0x8C379A000000000000000000000000000000000000000000000000000000000 DUP2 MSTORE PUSH1 0x4 ADD PUSH2 0x218A SWAP1 PUSH2 0x3FC2 JUMP JUMPDEST PUSH1 0x40 MLOAD DUP1 SWAP2 SUB SWAP1 REVERT JUMPDEST DUP1 PUSH1 0x1 DUP2 MLOAD DUP2 LT PUSH2 0x21A7 JUMPI PUSH2 0x21A6 PUSH2 0x3B72 JUMP JUMPDEST JUMPDEST PUSH1 0x20 MUL PUSH1 0x20 ADD ADD MLOAD SWAP3 POP POP POP SWAP2 SWAP1 POP JUMP JUMPDEST PUSH1 0x0 PUSH2 0x21C2 PUSH2 0x3063 JUMP JUMPDEST POP SWAP1 POP PUSH1 0x40 MLOAD DUP1 PUSH1 0x40 ADD PUSH1 0x40 MSTORE DUP1 DUP3 DUP2 MSTORE PUSH1 0x20 ADD TIMESTAMP PUSH8 0xFFFFFFFFFFFFFFFF AND DUP2 MSTORE POP PUSH1 0x3 PUSH1 0x0 CALLER PUSH20 0xFFFFFFFFFFFFFFFFFFFFFFFFFFFFFFFFFFFFFFFF AND PUSH20 0xFFFFFFFFFFFFFFFFFFFFFFFFFFFFFFFFFFFFFFFF AND DUP2 MSTORE PUSH1 0x20 ADD SWAP1 DUP2 MSTORE PUSH1 0x20 ADD PUSH1 0x0 KECCAK256 PUSH1 0x0 DUP3 ADD MLOAD DUP2 PUSH1 0x0 ADD SSTORE PUSH1 0x20 DUP3 ADD MLOAD DUP2 PUSH1 0x1 ADD PUSH1 0x0 PUSH2 0x100 EXP DUP2 SLOAD DUP2 PUSH8 0xFFFFFFFFFFFFFFFF MUL NOT AND SWAP1 DUP4 PUSH8 0xFFFFFFFFFFFFFFFF AND MUL OR SWAP1 SSTORE POP SWAP1 POP POP CALLER PUSH20 0xFFFFFFFFFFFFFFFFFFFFFFFFFFFFFFFFFFFFFFFF AND PUSH32 0xCE584EB1DEEFCAED6CFAA5762BCB28A12FF7E564B0A1A75D80386083C0AC13F8 DUP3 TIMESTAMP PUSH1 0x40 MLOAD PUSH2 0x22A7 SWAP3 SWAP2 SWAP1 PUSH2 0x3875 JUMP JUMPDEST PUSH1 0x40 MLOAD DUP1 SWAP2 SUB SWAP1 LOG2 POP JUMP JUMPDEST PUSH1 0x0 PUSH32 0x0 PUSH20 0xFFFFFFFFFFFFFFFFFFFFFFFFFFFFFFFFFFFFFFFF AND PUSH4 0x70A08231 ADDRESS PUSH1 0x40 MLOAD DUP3 PUSH4 0xFFFFFFFF AND PUSH1 0xE0 SHL DUP2 MSTORE PUSH1 0x4 ADD PUSH2 0x230D SWAP2 SWAP1 PUSH2 0x37CB JUMP JUMPDEST PUSH1 0x20 PUSH1 0x40 MLOAD DUP1 DUP4 SUB DUP2 DUP7 GAS STATICCALL ISZERO DUP1 ISZERO PUSH2 0x232A JUMPI RETURNDATASIZE PUSH1 0x0 DUP1 RETURNDATACOPY RETURNDATASIZE PUSH1 0x0 REVERT JUMPDEST POP POP POP POP PUSH1 0x40 MLOAD RETURNDATASIZE PUSH1 0x1F NOT PUSH1 0x1F DUP3 ADD AND DUP3 ADD DUP1 PUSH1 0x40 MSTORE POP DUP2 ADD SWAP1 PUSH2 0x234E SWAP2 SWAP1 PUSH2 0x416A JUMP JUMPDEST SWAP1 POP SWAP1 JUMP JUMPDEST PUSH2 0x235B PUSH2 0x2B29 JUMP JUMPDEST PUSH1 0x0 PUSH20 0xFFFFFFFFFFFFFFFFFFFFFFFFFFFFFFFFFFFFFFFF AND DUP2 PUSH20 0xFFFFFFFFFFFFFFFFFFFFFFFFFFFFFFFFFFFFFFFF AND SUB PUSH2 0x23CA JUMPI PUSH1 0x40 MLOAD PUSH32 0x8C379A000000000000000000000000000000000000000000000000000000000 DUP2 MSTORE PUSH1 0x4 ADD PUSH2 0x23C1 SWAP1 PUSH2 0x41E3 JUMP JUMPDEST PUSH1 0x40 MLOAD DUP1 SWAP2 SUB SWAP1 REVERT JUMPDEST PUSH2 0x23D4 DUP3 DUP3 PUSH2 0x2B78 JUMP JUMPDEST PUSH1 0x0 PUSH1 0x2 PUSH1 0x0 CALLER PUSH20 0xFFFFFFFFFFFFFFFFFFFFFFFFFFFFFFFFFFFFFFFF AND PUSH20 0xFFFFFFFFFFFFFFFFFFFFFFFFFFFFFFFFFFFFFFFF AND DUP2 MSTORE PUSH1 0x20 ADD SWAP1 DUP2 MSTORE PUSH1 0x20 ADD PUSH1 0x0 KECCAK256 SLOAD SUB PUSH2 0x2481 JUMPI PUSH1 0x3 PUSH1 0x0 CALLER PUSH20 0xFFFFFFFFFFFFFFFFFFFFFFFFFFFFFFFFFFFFFFFF AND PUSH20 0xFFFFFFFFFFFFFFFFFFFFFFFFFFFFFFFFFFFFFFFF AND DUP2 MSTORE PUSH1 0x20 ADD SWAP1 DUP2 MSTORE PUSH1 0x20 ADD PUSH1 0x0 KECCAK256 PUSH1 0x0 DUP1 DUP3 ADD PUSH1 0x0 SWAP1 SSTORE PUSH1 0x1 DUP3 ADD PUSH1 0x0 PUSH2 0x100 EXP DUP2 SLOAD SWAP1 PUSH8 0xFFFFFFFFFFFFFFFF MUL NOT AND SWAP1 SSTORE POP POP JUMPDEST PUSH2 0x2489 PUSH2 0x2D3D JUMP JUMPDEST POP POP JUMP JUMPDEST PUSH32 0x0 DUP2 JUMP JUMPDEST PUSH2 0x24B9 PUSH2 0x2B29 JUMP JUMPDEST PUSH1 0x0 DUP4 GT PUSH2 0x24FC JUMPI PUSH1 0x40 MLOAD PUSH32 0x8C379A000000000000000000000000000000000000000000000000000000000 DUP2 MSTORE PUSH1 0x4 ADD PUSH2 0x24F3 SWAP1 PUSH2 0x4081 JUMP JUMPDEST PUSH1 0x40 MLOAD DUP1 SWAP2 SUB SWAP1 REVERT JUMPDEST PUSH1 0x0 PUSH1 0x2 PUSH1 0x0 CALLER PUSH20 0xFFFFFFFFFFFFFFFFFFFFFFFFFFFFFFFFFFFFFFFF AND PUSH20 0xFFFFFFFFFFFFFFFFFFFFFFFFFFFFFFFFFFFFFFFF AND DUP2 MSTORE PUSH1 0x20 ADD SWAP1 DUP2 MSTORE PUSH1 0x20 ADD PUSH1 0x0 KECCAK256 SLOAD SWAP1 POP DUP4 DUP2 LT ISZERO PUSH2 0x2583 JUMPI PUSH1 0x40 MLOAD PUSH32 0x8C379A000000000000000000000000000000000000000000000000000000000 DUP2 MSTORE PUSH1 0x4 ADD PUSH2 0x257A SWAP1 PUSH2 0x40ED JUMP JUMPDEST PUSH1 0x40 MLOAD DUP1 SWAP2 SUB SWAP1 REVERT JUMPDEST DUP4 DUP2 SUB PUSH1 0x2 PUSH1 0x0 CALLER PUSH20 0xFFFFFFFFFFFFFFFFFFFFFFFFFFFFFFFFFFFFFFFF AND PUSH20 0xFFFFFFFFFFFFFFFFFFFFFFFFFFFFFFFFFFFFFFFF AND DUP2 MSTORE PUSH1 0x20 ADD SWAP1 DUP2 MSTORE PUSH1 0x20 ADD PUSH1 0x0 KECCAK256 DUP2 SWAP1 SSTORE POP PUSH2 0x2635 PUSH32 0x0 PUSH1 0x0 PUSH32 0x0 PUSH20 0xFFFFFFFFFFFFFFFFFFFFFFFFFFFFFFFFFFFFFFFF AND PUSH2 0x2D47 SWAP1 SWAP3 SWAP2 SWAP1 PUSH4 0xFFFFFFFF AND JUMP JUMPDEST PUSH2 0x26A0 PUSH32 0x0 DUP6 PUSH32 0x0 PUSH20 0xFFFFFFFFFFFFFFFFFFFFFFFFFFFFFFFFFFFFFFFF AND PUSH2 0x2D47 SWAP1 SWAP3 SWAP2 SWAP1 PUSH4 0xFFFFFFFF AND JUMP JUMPDEST PUSH1 0x0 PUSH1 0x2 PUSH8 0xFFFFFFFFFFFFFFFF DUP2 GT ISZERO PUSH2 0x26BD JUMPI PUSH2 0x26BC PUSH2 0x3B43 JUMP JUMPDEST JUMPDEST PUSH1 0x40 MLOAD SWAP1 DUP1 DUP3 MSTORE DUP1 PUSH1 0x20 MUL PUSH1 0x20 ADD DUP3 ADD PUSH1 0x40 MSTORE DUP1 ISZERO PUSH2 0x26EB JUMPI DUP2 PUSH1 0x20 ADD PUSH1 0x20 DUP3 MUL DUP1 CALLDATASIZE DUP4 CALLDATACOPY DUP1 DUP3 ADD SWAP2 POP POP SWAP1 POP JUMPDEST POP SWAP1 POP PUSH32 0x0 DUP2 PUSH1 0x0 DUP2 MLOAD DUP2 LT PUSH2 0x2723 JUMPI PUSH2 0x2722 PUSH2 0x3B72 JUMP JUMPDEST JUMPDEST PUSH1 0x20 MUL PUSH1 0x20 ADD ADD SWAP1 PUSH20 0xFFFFFFFFFFFFFFFFFFFFFFFFFFFFFFFFFFFFFFFF AND SWAP1 DUP2 PUSH20 0xFFFFFFFFFFFFFFFFFFFFFFFFFFFFFFFFFFFFFFFF AND DUP2 MSTORE POP POP PUSH32 0x0 DUP2 PUSH1 0x1 DUP2 MLOAD DUP2 LT PUSH2 0x2792 JUMPI PUSH2 0x2791 PUSH2 0x3B72 JUMP JUMPDEST JUMPDEST PUSH1 0x20 MUL PUSH1 0x20 ADD ADD SWAP1 PUSH20 0xFFFFFFFFFFFFFFFFFFFFFFFFFFFFFFFFFFFFFFFF AND SWAP1 DUP2 PUSH20 0xFFFFFFFFFFFFFFFFFFFFFFFFFFFFFFFFFFFFFFFF AND DUP2 MSTORE POP POP PUSH1 0x0 PUSH32 0x0 PUSH20 0xFFFFFFFFFFFFFFFFFFFFFFFFFFFFFFFFFFFFFFFF AND PUSH4 0x18CBAFE5 DUP8 DUP8 DUP6 CALLER DUP10 PUSH1 0x40 MLOAD DUP7 PUSH4 0xFFFFFFFF AND PUSH1 0xE0 SHL DUP2 MSTORE PUSH1 0x4 ADD PUSH2 0x282F SWAP6 SWAP5 SWAP4 SWAP3 SWAP2 SWAP1 PUSH2 0x3F1C JUMP JUMPDEST PUSH1 0x0 PUSH1 0x40 MLOAD DUP1 DUP4 SUB DUP2 PUSH1 0x0 DUP8 GAS CALL ISZERO DUP1 ISZERO PUSH2 0x284E JUMPI RETURNDATASIZE PUSH1 0x0 DUP1 RETURNDATACOPY RETURNDATASIZE PUSH1 0x0 REVERT JUMPDEST POP POP POP POP PUSH1 0x40 MLOAD RETURNDATASIZE PUSH1 0x0 DUP3 RETURNDATACOPY RETURNDATASIZE PUSH1 0x1F NOT PUSH1 0x1F DUP3 ADD AND DUP3 ADD DUP1 PUSH1 0x40 MSTORE POP DUP2 ADD SWAP1 PUSH2 0x2877 SWAP2 SWAP1 PUSH2 0x3DCE JUMP JUMPDEST SWAP1 POP PUSH1 0x2 DUP2 MLOAD LT ISZERO PUSH2 0x28BE JUMPI PUSH1 0x40 MLOAD PUSH32 0x8C379A000000000000000000000000000000000000000000000000000000000 DUP2 MSTORE PUSH1 0x4 ADD PUSH2 0x28B5 SWAP1 PUSH2 0x3FC2 JUMP JUMPDEST PUSH1 0x40 MLOAD DUP1 SWAP2 SUB SWAP1 REVERT JUMPDEST PUSH1 0x0 PUSH20 0xFFFFFFFFFFFFFFFFFFFFFFFFFFFFFFFFFFFFFFFF AND CALLER PUSH20 0xFFFFFFFFFFFFFFFFFFFFFFFFFFFFFFFFFFFFFFFF AND PUSH32 0xA078C4190ABE07940190EFFC1846BE0CCF03AD6007BC9E93F9697D0B460BEFBB DUP9 DUP5 PUSH1 0x1 DUP2 MLOAD DUP2 LT PUSH2 0x2923 JUMPI PUSH2 0x2922 PUSH2 0x3B72 JUMP JUMPDEST JUMPDEST PUSH1 0x20 MUL PUSH1 0x20 ADD ADD MLOAD PUSH1 0x40 MLOAD PUSH2 0x2939 SWAP3 SWAP2 SWAP1 PUSH2 0x410D JUMP JUMPDEST PUSH1 0x40 MLOAD DUP1 SWAP2 SUB SWAP1 LOG3 POP POP POP PUSH2 0x294C PUSH2 0x2D3D JUMP JUMPDEST POP POP POP JUMP JUMPDEST PUSH2 0x2959 PUSH2 0x2E96 JUMP JUMPDEST PUSH1 0x0 PUSH20 0xFFFFFFFFFFFFFFFFFFFFFFFFFFFFFFFFFFFFFFFF AND DUP2 PUSH20 0xFFFFFFFFFFFFFFFFFFFFFFFFFFFFFFFFFFFFFFFF AND SUB PUSH2 0x29C8 JUMPI PUSH1 0x40 MLOAD PUSH32 0x8C379A000000000000000000000000000000000000000000000000000000000 DUP2 MSTORE PUSH1 0x4 ADD PUSH2 0x29BF SWAP1 PUSH2 0x4275 JUMP JUMPDEST PUSH1 0x40 MLOAD DUP1 SWAP2 SUB SWAP1 REVERT JUMPDEST PUSH2 0x29D1 DUP2 PUSH2 0x2F14 JUMP JUMPDEST POP JUMP JUMPDEST PUSH32 0x0 DUP2 JUMP JUMPDEST PUSH1 0x0 DUP1 PUSH1 0x0 DUP1 PUSH1 0x0 DUP1 PUSH1 0x0 PUSH1 0x3 PUSH1 0x0 DUP10 PUSH20 0xFFFFFFFFFFFFFFFFFFFFFFFFFFFFFFFFFFFFFFFF AND PUSH20 0xFFFFFFFFFFFFFFFFFFFFFFFFFFFFFFFFFFFFFFFF AND DUP2 MSTORE PUSH1 0x20 ADD SWAP1 DUP2 MSTORE PUSH1 0x20 ADD PUSH1 0x0 KECCAK256 PUSH1 0x40 MLOAD DUP1 PUSH1 0x40 ADD PUSH1 0x40 MSTORE SWAP1 DUP2 PUSH1 0x0 DUP3 ADD SLOAD DUP2 MSTORE PUSH1 0x20 ADD PUSH1 0x1 DUP3 ADD PUSH1 0x0 SWAP1 SLOAD SWAP1 PUSH2 0x100 EXP SWAP1 DIV PUSH8 0xFFFFFFFFFFFFFFFF AND PUSH8 0xFFFFFFFFFFFFFFFF AND PUSH8 0xFFFFFFFFFFFFFFFF AND DUP2 MSTORE POP POP SWAP1 POP DUP1 PUSH1 0x0 ADD MLOAD SWAP5 POP PUSH1 0x2 PUSH1 0x0 DUP10 PUSH20 0xFFFFFFFFFFFFFFFFFFFFFFFFFFFFFFFFFFFFFFFF AND PUSH20 0xFFFFFFFFFFFFFFFFFFFFFFFFFFFFFFFFFFFFFFFF AND DUP2 MSTORE PUSH1 0x20 ADD SWAP1 DUP2 MSTORE PUSH1 0x20 ADD PUSH1 0x0 KECCAK256 SLOAD SWAP2 POP PUSH2 0x2ADC PUSH2 0x3063 JUMP JUMPDEST DUP1 SWAP5 POP DUP2 SWAP6 POP POP POP PUSH2 0x2AEE DUP6 DUP6 PUSH2 0x31D9 JUMP JUMPDEST SWAP6 POP PUSH1 0x0 DUP3 GT DUP1 ISZERO PUSH2 0x2B00 JUMPI POP PUSH1 0x0 DUP6 SGT JUMPDEST DUP1 ISZERO PUSH2 0x2B0C JUMPI POP PUSH1 0x0 DUP5 SGT JUMPDEST DUP1 ISZERO PUSH2 0x2B1D JUMPI POP PUSH1 0x32 PUSH2 0xFFFF AND DUP7 LT ISZERO JUMPDEST SWAP7 POP POP SWAP2 SWAP4 SWAP6 POP SWAP2 SWAP4 SWAP6 JUMP JUMPDEST PUSH1 0x2 PUSH1 0x0 SLOAD SUB PUSH2 0x2B6E JUMPI PUSH1 0x40 MLOAD PUSH32 0x8C379A000000000000000000000000000000000000000000000000000000000 DUP2 MSTORE PUSH1 0x4 ADD PUSH2 0x2B65 SWAP1 PUSH2 0x42E1 JUMP JUMPDEST PUSH1 0x40 MLOAD DUP1 SWAP2 SUB SWAP1 REVERT JUMPDEST PUSH1 0x2 PUSH1 0x0 DUP2 SWAP1 SSTORE POP JUMP JUMPDEST PUSH1 0x0 DUP3 GT PUSH2 0x2BBB JUMPI PUSH1 0x40 MLOAD PUSH32 0x8C379A000000000000000000000000000000000000000000000000000000000 DUP2 MSTORE PUSH1 0x4 ADD PUSH2 0x2BB2 SWAP1 PUSH2 0x4081 JUMP JUMPDEST PUSH1 0x40 MLOAD DUP1 SWAP2 SUB SWAP1 REVERT JUMPDEST PUSH1 0x0 PUSH1 0x2 PUSH1 0x0 CALLER PUSH20 0xFFFFFFFFFFFFFFFFFFFFFFFFFFFFFFFFFFFFFFFF AND PUSH20 0xFFFFFFFFFFFFFFFFFFFFFFFFFFFFFFFFFFFFFFFF AND DUP2 MSTORE PUSH1 0x20 ADD SWAP1 DUP2 MSTORE PUSH1 0x20 ADD PUSH1 0x0 KECCAK256 SLOAD SWAP1 POP DUP3 DUP2 LT ISZERO PUSH2 0x2C42 JUMPI PUSH1 0x40 MLOAD PUSH32 0x8C379A000000000000000000000000000000000000000000000000000000000 DUP2 MSTORE PUSH1 0x4 ADD PUSH2 0x2C39 SWAP1 PUSH2 0x40ED JUMP JUMPDEST PUSH1 0x40 MLOAD DUP1 SWAP2 SUB SWAP1 REVERT JUMPDEST DUP3 DUP2 SUB PUSH1 0x2 PUSH1 0x0 CALLER PUSH20 0xFFFFFFFFFFFFFFFFFFFFFFFFFFFFFFFFFFFFFFFF AND PUSH20 0xFFFFFFFFFFFFFFFFFFFFFFFFFFFFFFFFFFFFFFFF AND DUP2 MSTORE PUSH1 0x20 ADD SWAP1 DUP2 MSTORE PUSH1 0x20 ADD PUSH1 0x0 KECCAK256 DUP2 SWAP1 SSTORE POP PUSH2 0x2CD3 DUP3 DUP5 PUSH32 0x0 PUSH20 0xFFFFFFFFFFFFFFFFFFFFFFFFFFFFFFFFFFFFFFFF AND PUSH2 0x323C SWAP1 SWAP3 SWAP2 SWAP1 PUSH4 0xFFFFFFFF AND JUMP JUMPDEST DUP2 PUSH20 0xFFFFFFFFFFFFFFFFFFFFFFFFFFFFFFFFFFFFFFFF AND CALLER PUSH20 0xFFFFFFFFFFFFFFFFFFFFFFFFFFFFFFFFFFFFFFFF AND PUSH32 0xD1C19FBCD4551A5EDFB66D43D2E337C04837AFDA3482B42BDF569A8FCCDAE5FB DUP6 PUSH1 0x40 MLOAD PUSH2 0x2D30 SWAP2 SWAP1 PUSH2 0x364F JUMP JUMPDEST PUSH1 0x40 MLOAD DUP1 SWAP2 SUB SWAP1 LOG3 POP POP POP JUMP JUMPDEST PUSH1 0x1 PUSH1 0x0 DUP2 SWAP1 SSTORE POP JUMP JUMPDEST PUSH1 0x0 DUP2 EQ DUP1 PUSH2 0x2DD1 JUMPI POP PUSH1 0x0 DUP4 PUSH20 0xFFFFFFFFFFFFFFFFFFFFFFFFFFFFFFFFFFFFFFFF AND PUSH4 0xDD62ED3E ADDRESS DUP6 PUSH1 0x40 MLOAD DUP4 PUSH4 0xFFFFFFFF AND PUSH1 0xE0 SHL DUP2 MSTORE PUSH1 0x4 ADD PUSH2 0x2D8E SWAP3 SWAP2 SWAP1 PUSH2 0x4301 JUMP JUMPDEST PUSH1 0x20 PUSH1 0x40 MLOAD DUP1 DUP4 SUB DUP2 DUP7 GAS STATICCALL ISZERO DUP1 ISZERO PUSH2 0x2DAB JUMPI RETURNDATASIZE PUSH1 0x0 DUP1 RETURNDATACOPY RETURNDATASIZE PUSH1 0x0 REVERT JUMPDEST POP POP POP POP PUSH1 0x40 MLOAD RETURNDATASIZE PUSH1 0x1F NOT PUSH1 0x1F DUP3 ADD AND DUP3 ADD DUP1 PUSH1 0x40 MSTORE POP DUP2 ADD SWAP1 PUSH2 0x2DCF SWAP2 SWAP1 PUSH2 0x416A JUMP JUMPDEST EQ JUMPDEST PUSH2 0x2E10 JUMPI PUSH1 0x40 MLOAD PUSH32 0x8C379A000000000000000000000000000000000000000000000000000000000 DUP2 MSTORE PUSH1 0x4 ADD PUSH2 0x2E07 SWAP1 PUSH2 0x439C JUMP JUMPDEST PUSH1 0x40 MLOAD DUP1 SWAP2 SUB SWAP1 REVERT JUMPDEST PUSH2 0x2E91 DUP4 PUSH4 0x95EA7B3 PUSH1 0xE0 SHL DUP5 DUP5 PUSH1 0x40 MLOAD PUSH1 0x24 ADD PUSH2 0x2E2F SWAP3 SWAP2 SWAP1 PUSH2 0x43BC JUMP JUMPDEST PUSH1 0x40 MLOAD PUSH1 0x20 DUP2 DUP4 SUB SUB DUP2 MSTORE SWAP1 PUSH1 0x40 MSTORE SWAP1 PUSH28 0xFFFFFFFFFFFFFFFFFFFFFFFFFFFFFFFFFFFFFFFFFFFFFFFFFFFFFFFF NOT AND PUSH1 0x20 DUP3 ADD DUP1 MLOAD PUSH28 0xFFFFFFFFFFFFFFFFFFFFFFFFFFFFFFFFFFFFFFFFFFFFFFFFFFFFFFFF DUP4 DUP2 DUP4 AND OR DUP4 MSTORE POP POP POP POP PUSH2 0x32C2 JUMP JUMPDEST POP POP POP JUMP JUMPDEST PUSH2 0x2E9E PUSH2 0x338A JUMP JUMPDEST PUSH20 0xFFFFFFFFFFFFFFFFFFFFFFFFFFFFFFFFFFFFFFFF AND PUSH2 0x2EBC PUSH2 0x18E5 JUMP JUMPDEST PUSH20 0xFFFFFFFFFFFFFFFFFFFFFFFFFFFFFFFFFFFFFFFF AND EQ PUSH2 0x2F12 JUMPI PUSH1 0x40 MLOAD PUSH32 0x8C379A000000000000000000000000000000000000000000000000000000000 DUP2 MSTORE PUSH1 0x4 ADD PUSH2 0x2F09 SWAP1 PUSH2 0x4431 JUMP JUMPDEST PUSH1 0x40 MLOAD DUP1 SWAP2 SUB SWAP1 REVERT JUMPDEST JUMP JUMPDEST PUSH1 0x0 PUSH1 0x1 PUSH1 0x0 SWAP1 SLOAD SWAP1 PUSH2 0x100 EXP SWAP1 DIV PUSH20 0xFFFFFFFFFFFFFFFFFFFFFFFFFFFFFFFFFFFFFFFF AND SWAP1 POP DUP2 PUSH1 0x1 PUSH1 0x0 PUSH2 0x100 EXP DUP2 SLOAD DUP2 PUSH20 0xFFFFFFFFFFFFFFFFFFFFFFFFFFFFFFFFFFFFFFFF MUL NOT AND SWAP1 DUP4 PUSH20 0xFFFFFFFFFFFFFFFFFFFFFFFFFFFFFFFFFFFFFFFF AND MUL OR SWAP1 SSTORE POP DUP2 PUSH20 0xFFFFFFFFFFFFFFFFFFFFFFFFFFFFFFFFFFFFFFFF AND DUP2 PUSH20 0xFFFFFFFFFFFFFFFFFFFFFFFFFFFFFFFFFFFFFFFF AND PUSH32 0x8BE0079C531659141344CD1FD0A4F28419497F9722A3DAAFE3B4186F6B6457E0 PUSH1 0x40 MLOAD PUSH1 0x40 MLOAD DUP1 SWAP2 SUB SWAP1 LOG3 POP POP JUMP JUMPDEST PUSH2 0x305D DUP5 PUSH4 0x23B872DD PUSH1 0xE0 SHL DUP6 DUP6 DUP6 PUSH1 0x40 MLOAD PUSH1 0x24 ADD PUSH2 0x2FFB SWAP4 SWAP3 SWAP2 SWAP1 PUSH2 0x4451 JUMP JUMPDEST PUSH1 0x40 MLOAD PUSH1 0x20 DUP2 DUP4 SUB SUB DUP2 MSTORE SWAP1 PUSH1 0x40 MSTORE SWAP1 PUSH28 0xFFFFFFFFFFFFFFFFFFFFFFFFFFFFFFFFFFFFFFFFFFFFFFFFFFFFFFFF NOT AND PUSH1 0x20 DUP3 ADD DUP1 MLOAD PUSH28 0xFFFFFFFFFFFFFFFFFFFFFFFFFFFFFFFFFFFFFFFFFFFFFFFFFFFFFFFF DUP4 DUP2 DUP4 AND OR DUP4 MSTORE POP POP POP POP PUSH2 0x32C2 JUMP JUMPDEST POP POP POP POP JUMP JUMPDEST PUSH1 0x0 DUP1 PUSH1 0x0 PUSH32 0x0 PUSH20 0xFFFFFFFFFFFFFFFFFFFFFFFFFFFFFFFFFFFFFFFF AND PUSH4 0xFEAF968C PUSH1 0x40 MLOAD DUP2 PUSH4 0xFFFFFFFF AND PUSH1 0xE0 SHL DUP2 MSTORE PUSH1 0x4 ADD PUSH1 0xA0 PUSH1 0x40 MLOAD DUP1 DUP4 SUB DUP2 DUP7 GAS STATICCALL ISZERO DUP1 ISZERO PUSH2 0x30D3 JUMPI RETURNDATASIZE PUSH1 0x0 DUP1 RETURNDATACOPY RETURNDATASIZE PUSH1 0x0 REVERT JUMPDEST POP POP POP POP PUSH1 0x40 MLOAD RETURNDATASIZE PUSH1 0x1F NOT PUSH1 0x1F DUP3 ADD AND DUP3 ADD DUP1 PUSH1 0x40 MSTORE POP DUP2 ADD SWAP1 PUSH2 0x30F7 SWAP2 SWAP1 PUSH2 0x44F6 JUMP JUMPDEST POP POP POP SWAP2 POP POP PUSH1 0x0 DUP2 SGT PUSH2 0x3140 JUMPI PUSH1 0x40 MLOAD PUSH32 0x8C379A000000000000000000000000000000000000000000000000000000000 DUP2 MSTORE PUSH1 0x4 ADD PUSH2 0x3137 SWAP1 PUSH2 0x45BD JUMP JUMPDEST PUSH1 0x40 MLOAD DUP1 SWAP2 SUB SWAP1 REVERT JUMPDEST PUSH32 0x0 PUSH20 0xFFFFFFFFFFFFFFFFFFFFFFFFFFFFFFFFFFFFFFFF AND PUSH4 0x313CE567 PUSH1 0x40 MLOAD DUP2 PUSH4 0xFFFFFFFF AND PUSH1 0xE0 SHL DUP2 MSTORE PUSH1 0x4 ADD PUSH1 0x20 PUSH1 0x40 MLOAD DUP1 DUP4 SUB DUP2 DUP7 GAS STATICCALL ISZERO DUP1 ISZERO PUSH2 0x31AB JUMPI RETURNDATASIZE PUSH1 0x0 DUP1 RETURNDATACOPY RETURNDATASIZE PUSH1 0x0 REVERT JUMPDEST POP POP POP POP PUSH1 0x40 MLOAD RETURNDATASIZE PUSH1 0x1F NOT PUSH1 0x1F DUP3 ADD AND DUP3 ADD DUP1 PUSH1 0x40 MSTORE POP DUP2 ADD SWAP1 PUSH2 0x31CF SWAP2 SWAP1 PUSH2 0x4609 JUMP JUMPDEST SWAP2 POP DUP1 SWAP3 POP POP SWAP1 SWAP2 JUMP JUMPDEST PUSH1 0x0 DUP1 DUP4 SGT ISZERO DUP1 PUSH2 0x31EB JUMPI POP PUSH1 0x0 DUP3 SGT ISZERO JUMPDEST ISZERO PUSH2 0x31F9 JUMPI PUSH1 0x0 SWAP1 POP PUSH2 0x3236 JUMP JUMPDEST DUP3 DUP3 SLT PUSH2 0x3209 JUMPI PUSH1 0x0 SWAP1 POP PUSH2 0x3236 JUMP JUMPDEST PUSH1 0x0 DUP3 DUP5 PUSH2 0x3217 SWAP2 SWAP1 PUSH2 0x4636 JUMP JUMPDEST SWAP1 POP DUP4 PUSH2 0x2710 DUP3 PUSH2 0x3228 SWAP2 SWAP1 PUSH2 0x3E7A JUMP JUMPDEST PUSH2 0x3232 SWAP2 SWAP1 PUSH2 0x3EEB JUMP JUMPDEST SWAP2 POP POP JUMPDEST SWAP3 SWAP2 POP POP JUMP JUMPDEST PUSH2 0x32BD DUP4 PUSH4 0xA9059CBB PUSH1 0xE0 SHL DUP5 DUP5 PUSH1 0x40 MLOAD PUSH1 0x24 ADD PUSH2 0x325B SWAP3 SWAP2 SWAP1 PUSH2 0x43BC JUMP JUMPDEST PUSH1 0x40 MLOAD PUSH1 0x20 DUP2 DUP4 SUB SUB DUP2 MSTORE SWAP1 PUSH1 0x40 MSTORE SWAP1 PUSH28 0xFFFFFFFFFFFFFFFFFFFFFFFFFFFFFFFFFFFFFFFFFFFFFFFFFFFFFFFF NOT AND PUSH1 0x20 DUP3 ADD DUP1 MLOAD PUSH28 0xFFFFFFFFFFFFFFFFFFFFFFFFFFFFFFFFFFFFFFFFFFFFFFFFFFFFFFFF DUP4 DUP2 DUP4 AND OR DUP4 MSTORE POP POP POP POP PUSH2 0x32C2 JUMP JUMPDEST POP POP POP JUMP JUMPDEST PUSH1 0x0 PUSH2 0x3324 DUP3 PUSH1 0x40 MLOAD DUP1 PUSH1 0x40 ADD PUSH1 0x40 MSTORE DUP1 PUSH1 0x20 DUP2 MSTORE PUSH1 0x20 ADD PUSH32 0x5361666545524332303A206C6F772D6C6576656C2063616C6C206661696C6564 DUP2 MSTORE POP DUP6 PUSH20 0xFFFFFFFFFFFFFFFFFFFFFFFFFFFFFFFFFFFFFFFF AND PUSH2 0x3392 SWAP1 SWAP3 SWAP2 SWAP1 PUSH4 0xFFFFFFFF AND JUMP JUMPDEST SWAP1 POP PUSH1 0x0 DUP2 MLOAD EQ DUP1 PUSH2 0x3346 JUMPI POP DUP1 DUP1 PUSH1 0x20 ADD SWAP1 MLOAD DUP2 ADD SWAP1 PUSH2 0x3345 SWAP2 SWAP1 PUSH2 0x46A5 JUMP JUMPDEST JUMPDEST PUSH2 0x3385 JUMPI PUSH1 0x40 MLOAD PUSH32 0x8C379A000000000000000000000000000000000000000000000000000000000 DUP2 MSTORE PUSH1 0x4 ADD PUSH2 0x337C SWAP1 PUSH2 0x4744 JUMP JUMPDEST PUSH1 0x40 MLOAD DUP1 SWAP2 SUB SWAP1 REVERT JUMPDEST POP POP POP JUMP JUMPDEST PUSH1 0x0 CALLER SWAP1 POP SWAP1 JUMP JUMPDEST PUSH1 0x60 PUSH2 0x33A1 DUP5 DUP5 PUSH1 0x0 DUP6 PUSH2 0x33AA JUMP JUMPDEST SWAP1 POP SWAP4 SWAP3 POP POP POP JUMP JUMPDEST PUSH1 0x60 DUP3 SELFBALANCE LT ISZERO PUSH2 0x33EF JUMPI PUSH1 0x40 MLOAD PUSH32 0x8C379A000000000000000000000000000000000000000000000000000000000 DUP2 MSTORE PUSH1 0x4 ADD PUSH2 0x33E6 SWAP1 PUSH2 0x47D6 JUMP JUMPDEST PUSH1 0x40 MLOAD DUP1 SWAP2 SUB SWAP1 REVERT JUMPDEST PUSH1 0x0 DUP1 DUP7 PUSH20 0xFFFFFFFFFFFFFFFFFFFFFFFFFFFFFFFFFFFFFFFF AND DUP6 DUP8 PUSH1 0x40 MLOAD PUSH2 0x3418 SWAP2 SWAP1 PUSH2 0x4867 JUMP JUMPDEST PUSH1 0x0 PUSH1 0x40 MLOAD DUP1 DUP4 SUB DUP2 DUP6 DUP8 GAS CALL SWAP3 POP POP POP RETURNDATASIZE DUP1 PUSH1 0x0 DUP2 EQ PUSH2 0x3455 JUMPI PUSH1 0x40 MLOAD SWAP2 POP PUSH1 0x1F NOT PUSH1 0x3F RETURNDATASIZE ADD AND DUP3 ADD PUSH1 0x40 MSTORE RETURNDATASIZE DUP3 MSTORE RETURNDATASIZE PUSH1 0x0 PUSH1 0x20 DUP5 ADD RETURNDATACOPY PUSH2 0x345A JUMP JUMPDEST PUSH1 0x60 SWAP2 POP JUMPDEST POP SWAP2 POP SWAP2 POP PUSH2 0x346B DUP8 DUP4 DUP4 DUP8 PUSH2 0x3477 JUMP JUMPDEST SWAP3 POP POP POP SWAP5 SWAP4 POP POP POP POP JUMP JUMPDEST PUSH1 0x60 DUP4 ISZERO PUSH2 0x34D9 JUMPI PUSH1 0x0 DUP4 MLOAD SUB PUSH2 0x34D1 JUMPI PUSH2 0x3491 DUP6 PUSH2 0x34EC JUMP JUMPDEST PUSH2 0x34D0 JUMPI PUSH1 0x40 MLOAD PUSH32 0x8C379A000000000000000000000000000000000000000000000000000000000 DUP2 MSTORE PUSH1 0x4 ADD PUSH2 0x34C7 SWAP1 PUSH2 0x48CA JUMP JUMPDEST PUSH1 0x40 MLOAD DUP1 SWAP2 SUB SWAP1 REVERT JUMPDEST JUMPDEST DUP3 SWAP1 POP PUSH2 0x34E4 JUMP JUMPDEST PUSH2 0x34E3 DUP4 DUP4 PUSH2 0x350F JUMP JUMPDEST JUMPDEST SWAP5 SWAP4 POP POP POP POP JUMP JUMPDEST PUSH1 0x0 DUP1 DUP3 PUSH20 0xFFFFFFFFFFFFFFFFFFFFFFFFFFFFFFFFFFFFFFFF AND EXTCODESIZE GT SWAP1 POP SWAP2 SWAP1 POP JUMP JUMPDEST PUSH1 0x0 DUP3 MLOAD GT ISZERO PUSH2 0x3522 JUMPI DUP2 MLOAD DUP1 DUP4 PUSH1 0x20 ADD REVERT JUMPDEST DUP1 PUSH1 0x40 MLOAD PUSH32 0x8C379A000000000000000000000000000000000000000000000000000000000 DUP2 MSTORE PUSH1 0x4 ADD PUSH2 0x3556 SWAP2 SWAP1 PUSH2 0x492E JUMP JUMPDEST PUSH1 0x40 MLOAD DUP1 SWAP2 SUB SWAP1 REVERT JUMPDEST PUSH1 0x0 PUSH2 0xFFFF DUP3 AND SWAP1 POP SWAP2 SWAP1 POP JUMP JUMPDEST PUSH2 0x3576 DUP2 PUSH2 0x355F JUMP JUMPDEST DUP3 MSTORE POP POP JUMP JUMPDEST PUSH1 0x0 PUSH1 0x20 DUP3 ADD SWAP1 POP PUSH2 0x3591 PUSH1 0x0 DUP4 ADD DUP5 PUSH2 0x356D JUMP JUMPDEST SWAP3 SWAP2 POP POP JUMP JUMPDEST PUSH1 0x0 PUSH1 0x40 MLOAD SWAP1 POP SWAP1 JUMP JUMPDEST PUSH1 0x0 DUP1 REVERT JUMPDEST PUSH1 0x0 DUP1 REVERT JUMPDEST PUSH1 0x0 PUSH20 0xFFFFFFFFFFFFFFFFFFFFFFFFFFFFFFFFFFFFFFFF DUP3 AND SWAP1 POP SWAP2 SWAP1 POP JUMP JUMPDEST PUSH1 0x0 PUSH2 0x35D6 DUP3 PUSH2 0x35AB JUMP JUMPDEST SWAP1 POP SWAP2 SWAP1 POP JUMP JUMPDEST PUSH2 0x35E6 DUP2 PUSH2 0x35CB JUMP JUMPDEST DUP2 EQ PUSH2 0x35F1 JUMPI PUSH1 0x0 DUP1 REVERT JUMPDEST POP JUMP JUMPDEST PUSH1 0x0 DUP2 CALLDATALOAD SWAP1 POP PUSH2 0x3603 DUP2 PUSH2 0x35DD JUMP JUMPDEST SWAP3 SWAP2 POP POP JUMP JUMPDEST PUSH1 0x0 PUSH1 0x20 DUP3 DUP5 SUB SLT ISZERO PUSH2 0x361F JUMPI PUSH2 0x361E PUSH2 0x35A1 JUMP JUMPDEST JUMPDEST PUSH1 0x0 PUSH2 0x362D DUP5 DUP3 DUP6 ADD PUSH2 0x35F4 JUMP JUMPDEST SWAP2 POP POP SWAP3 SWAP2 POP POP JUMP JUMPDEST PUSH1 0x0 DUP2 SWAP1 POP SWAP2 SWAP1 POP JUMP JUMPDEST PUSH2 0x3649 DUP2 PUSH2 0x3636 JUMP JUMPDEST DUP3 MSTORE POP POP JUMP JUMPDEST PUSH1 0x0 PUSH1 0x20 DUP3 ADD SWAP1 POP PUSH2 0x3664 PUSH1 0x0 DUP4 ADD DUP5 PUSH2 0x3640 JUMP JUMPDEST SWAP3 SWAP2 POP POP JUMP JUMPDEST PUSH2 0x3673 DUP2 PUSH2 0x3636 JUMP JUMPDEST DUP2 EQ PUSH2 0x367E JUMPI PUSH1 0x0 DUP1 REVERT JUMPDEST POP JUMP JUMPDEST PUSH1 0x0 DUP2 CALLDATALOAD SWAP1 POP PUSH2 0x3690 DUP2 PUSH2 0x366A JUMP JUMPDEST SWAP3 SWAP2 POP POP JUMP JUMPDEST PUSH1 0x0 PUSH1 0x20 DUP3 DUP5 SUB SLT ISZERO PUSH2 0x36AC JUMPI PUSH2 0x36AB PUSH2 0x35A1 JUMP JUMPDEST JUMPDEST PUSH1 0x0 PUSH2 0x36BA DUP5 DUP3 DUP6 ADD PUSH2 0x3681 JUMP JUMPDEST SWAP2 POP POP SWAP3 SWAP2 POP POP JUMP JUMPDEST PUSH1 0x0 DUP2 SWAP1 POP SWAP2 SWAP1 POP JUMP JUMPDEST PUSH1 0x0 PUSH2 0x36E8 PUSH2 0x36E3 PUSH2 0x36DE DUP5 PUSH2 0x35AB JUMP JUMPDEST PUSH2 0x36C3 JUMP JUMPDEST PUSH2 0x35AB JUMP JUMPDEST SWAP1 POP SWAP2 SWAP1 POP JUMP JUMPDEST PUSH1 0x0 PUSH2 0x36FA DUP3 PUSH2 0x36CD JUMP JUMPDEST SWAP1 POP SWAP2 SWAP1 POP JUMP JUMPDEST PUSH1 0x0 PUSH2 0x370C DUP3 PUSH2 0x36EF JUMP JUMPDEST SWAP1 POP SWAP2 SWAP1 POP JUMP JUMPDEST PUSH2 0x371C DUP2 PUSH2 0x3701 JUMP JUMPDEST DUP3 MSTORE POP POP JUMP JUMPDEST PUSH1 0x0 PUSH1 0x20 DUP3 ADD SWAP1 POP PUSH2 0x3737 PUSH1 0x0 DUP4 ADD DUP5 PUSH2 0x3713 JUMP JUMPDEST SWAP3 SWAP2 POP POP JUMP JUMPDEST PUSH2 0x3746 DUP2 PUSH2 0x355F JUMP JUMPDEST DUP2 EQ PUSH2 0x3751 JUMPI PUSH1 0x0 DUP1 REVERT JUMPDEST POP JUMP JUMPDEST PUSH1 0x0 DUP2 CALLDATALOAD SWAP1 POP PUSH2 0x3763 DUP2 PUSH2 0x373D JUMP JUMPDEST SWAP3 SWAP2 POP POP JUMP JUMPDEST PUSH1 0x0 DUP1 PUSH1 0x0 PUSH1 0x60 DUP5 DUP7 SUB SLT ISZERO PUSH2 0x3782 JUMPI PUSH2 0x3781 PUSH2 0x35A1 JUMP JUMPDEST JUMPDEST PUSH1 0x0 PUSH2 0x3790 DUP7 DUP3 DUP8 ADD PUSH2 0x35F4 JUMP JUMPDEST SWAP4 POP POP PUSH1 0x20 PUSH2 0x37A1 DUP7 DUP3 DUP8 ADD PUSH2 0x3754 JUMP JUMPDEST SWAP3 POP POP PUSH1 0x40 PUSH2 0x37B2 DUP7 DUP3 DUP8 ADD PUSH2 0x3681 JUMP JUMPDEST SWAP2 POP POP SWAP3 POP SWAP3 POP SWAP3 JUMP JUMPDEST PUSH2 0x37C5 DUP2 PUSH2 0x35CB JUMP JUMPDEST DUP3 MSTORE POP POP JUMP JUMPDEST PUSH1 0x0 PUSH1 0x20 DUP3 ADD SWAP1 POP PUSH2 0x37E0 PUSH1 0x0 DUP4 ADD DUP5 PUSH2 0x37BC JUMP JUMPDEST SWAP3 SWAP2 POP POP JUMP JUMPDEST PUSH1 0x0 DUP1 PUSH1 0x0 PUSH1 0x60 DUP5 DUP7 SUB SLT ISZERO PUSH2 0x37FF JUMPI PUSH2 0x37FE PUSH2 0x35A1 JUMP JUMPDEST JUMPDEST PUSH1 0x0 PUSH2 0x380D DUP7 DUP3 DUP8 ADD PUSH2 0x3681 JUMP JUMPDEST SWAP4 POP POP PUSH1 0x20 PUSH2 0x381E DUP7 DUP3 DUP8 ADD PUSH2 0x3681 JUMP JUMPDEST SWAP3 POP POP PUSH1 0x40 PUSH2 0x382F DUP7 DUP3 DUP8 ADD PUSH2 0x3681 JUMP JUMPDEST SWAP2 POP POP SWAP3 POP SWAP3 POP SWAP3 JUMP JUMPDEST PUSH1 0x0 DUP2 SWAP1 POP SWAP2 SWAP1 POP JUMP JUMPDEST PUSH2 0x384C DUP2 PUSH2 0x3839 JUMP JUMPDEST DUP3 MSTORE POP POP JUMP JUMPDEST PUSH1 0x0 PUSH8 0xFFFFFFFFFFFFFFFF DUP3 AND SWAP1 POP SWAP2 SWAP1 POP JUMP JUMPDEST PUSH2 0x386F DUP2 PUSH2 0x3852 JUMP JUMPDEST DUP3 MSTORE POP POP JUMP JUMPDEST PUSH1 0x0 PUSH1 0x40 DUP3 ADD SWAP1 POP PUSH2 0x388A PUSH1 0x0 DUP4 ADD DUP6 PUSH2 0x3843 JUMP JUMPDEST PUSH2 0x3897 PUSH1 0x20 DUP4 ADD DUP5 PUSH2 0x3866 JUMP JUMPDEST SWAP4 SWAP3 POP POP POP JUMP JUMPDEST PUSH1 0x0 DUP1 PUSH1 0x40 DUP4 DUP6 SUB SLT ISZERO PUSH2 0x38B5 JUMPI PUSH2 0x38B4 PUSH2 0x35A1 JUMP JUMPDEST JUMPDEST PUSH1 0x0 PUSH2 0x38C3 DUP6 DUP3 DUP7 ADD PUSH2 0x3681 JUMP JUMPDEST SWAP3 POP POP PUSH1 0x20 PUSH2 0x38D4 DUP6 DUP3 DUP7 ADD PUSH2 0x35F4 JUMP JUMPDEST SWAP2 POP POP SWAP3 POP SWAP3 SWAP1 POP JUMP JUMPDEST PUSH1 0x0 PUSH2 0x38E9 DUP3 PUSH2 0x36EF JUMP JUMPDEST SWAP1 POP SWAP2 SWAP1 POP JUMP JUMPDEST PUSH2 0x38F9 DUP2 PUSH2 0x38DE JUMP JUMPDEST DUP3 MSTORE POP POP JUMP JUMPDEST PUSH1 0x0 PUSH1 0x20 DUP3 ADD SWAP1 POP PUSH2 0x3914 PUSH1 0x0 DUP4 ADD DUP5 PUSH2 0x38F0 JUMP JUMPDEST SWAP3 SWAP2 POP POP JUMP JUMPDEST PUSH1 0x0 PUSH2 0x3925 DUP3 PUSH2 0x36EF JUMP JUMPDEST SWAP1 POP SWAP2 SWAP1 POP JUMP JUMPDEST PUSH2 0x3935 DUP2 PUSH2 0x391A JUMP JUMPDEST DUP3 MSTORE POP POP JUMP JUMPDEST PUSH1 0x0 PUSH1 0x20 DUP3 ADD SWAP1 POP PUSH2 0x3950 PUSH1 0x0 DUP4 ADD DUP5 PUSH2 0x392C JUMP JUMPDEST SWAP3 SWAP2 POP POP JUMP JUMPDEST PUSH1 0x0 DUP2 ISZERO ISZERO SWAP1 POP SWAP2 SWAP1 POP JUMP JUMPDEST PUSH2 0x396B DUP2 PUSH2 0x3956 JUMP JUMPDEST DUP3 MSTORE POP POP JUMP JUMPDEST PUSH1 0x0 PUSH1 0xFF DUP3 AND SWAP1 POP SWAP2 SWAP1 POP JUMP JUMPDEST PUSH2 0x3987 DUP2 PUSH2 0x3971 JUMP JUMPDEST DUP3 MSTORE POP POP JUMP JUMPDEST PUSH1 0x0 PUSH1 0xC0 DUP3 ADD SWAP1 POP PUSH2 0x39A2 PUSH1 0x0 DUP4 ADD DUP10 PUSH2 0x3962 JUMP JUMPDEST PUSH2 0x39AF PUSH1 0x20 DUP4 ADD DUP9 PUSH2 0x3640 JUMP JUMPDEST PUSH2 0x39BC PUSH1 0x40 DUP4 ADD DUP8 PUSH2 0x3843 JUMP JUMPDEST PUSH2 0x39C9 PUSH1 0x60 DUP4 ADD DUP7 PUSH2 0x3843 JUMP JUMPDEST PUSH2 0x39D6 PUSH1 0x80 DUP4 ADD DUP6 PUSH2 0x397E JUMP JUMPDEST PUSH2 0x39E3 PUSH1 0xA0 DUP4 ADD DUP5 PUSH2 0x3640 JUMP JUMPDEST SWAP8 SWAP7 POP POP POP POP POP POP POP JUMP JUMPDEST PUSH1 0x0 DUP3 DUP3 MSTORE PUSH1 0x20 DUP3 ADD SWAP1 POP SWAP3 SWAP2 POP POP JUMP JUMPDEST PUSH32 0x6E6F742072656164790000000000000000000000000000000000000000000000 PUSH1 0x0 DUP3 ADD MSTORE POP JUMP JUMPDEST PUSH1 0x0 PUSH2 0x3A35 PUSH1 0x9 DUP4 PUSH2 0x39EE JUMP JUMPDEST SWAP2 POP PUSH2 0x3A40 DUP3 PUSH2 0x39FF JUMP JUMPDEST PUSH1 0x20 DUP3 ADD SWAP1 POP SWAP2 SWAP1 POP JUMP JUMPDEST PUSH1 0x0 PUSH1 0x20 DUP3 ADD SWAP1 POP DUP2 DUP2 SUB PUSH1 0x0 DUP4 ADD MSTORE PUSH2 0x3A64 DUP2 PUSH2 0x3A28 JUMP JUMPDEST SWAP1 POP SWAP2 SWAP1 POP JUMP JUMPDEST PUSH32 0x736C697020746F6F206869676800000000000000000000000000000000000000 PUSH1 0x0 DUP3 ADD MSTORE POP JUMP JUMPDEST PUSH1 0x0 PUSH2 0x3AA1 PUSH1 0xD DUP4 PUSH2 0x39EE JUMP JUMPDEST SWAP2 POP PUSH2 0x3AAC DUP3 PUSH2 0x3A6B JUMP JUMPDEST PUSH1 0x20 DUP3 ADD SWAP1 POP SWAP2 SWAP1 POP JUMP JUMPDEST PUSH1 0x0 PUSH1 0x20 DUP3 ADD SWAP1 POP DUP2 DUP2 SUB PUSH1 0x0 DUP4 ADD MSTORE PUSH2 0x3AD0 DUP2 PUSH2 0x3A94 JUMP JUMPDEST SWAP1 POP SWAP2 SWAP1 POP JUMP JUMPDEST PUSH32 0x656D707479000000000000000000000000000000000000000000000000000000 PUSH1 0x0 DUP3 ADD MSTORE POP JUMP JUMPDEST PUSH1 0x0 PUSH2 0x3B0D PUSH1 0x5 DUP4 PUSH2 0x39EE JUMP JUMPDEST SWAP2 POP PUSH2 0x3B18 DUP3 PUSH2 0x3AD7 JUMP JUMPDEST PUSH1 0x20 DUP3 ADD SWAP1 POP SWAP2 SWAP1 POP JUMP JUMPDEST PUSH1 0x0 PUSH1 0x20 DUP3 ADD SWAP1 POP DUP2 DUP2 SUB PUSH1 0x0 DUP4 ADD MSTORE PUSH2 0x3B3C DUP2 PUSH2 0x3B00 JUMP JUMPDEST SWAP1 POP SWAP2 SWAP1 POP JUMP JUMPDEST PUSH32 0x4E487B7100000000000000000000000000000000000000000000000000000000 PUSH1 0x0 MSTORE PUSH1 0x41 PUSH1 0x4 MSTORE PUSH1 0x24 PUSH1 0x0 REVERT JUMPDEST PUSH32 0x4E487B7100000000000000000000000000000000000000000000000000000000 PUSH1 0x0 MSTORE PUSH1 0x32 PUSH1 0x4 MSTORE PUSH1 0x24 PUSH1 0x0 REVERT JUMPDEST PUSH1 0x0 DUP2 MLOAD SWAP1 POP SWAP2 SWAP1 POP JUMP JUMPDEST PUSH1 0x0 DUP3 DUP3 MSTORE PUSH1 0x20 DUP3 ADD SWAP1 POP SWAP3 SWAP2 POP POP JUMP JUMPDEST PUSH1 0x0 DUP2 SWAP1 POP PUSH1 0x20 DUP3 ADD SWAP1 POP SWAP2 SWAP1 POP JUMP JUMPDEST PUSH2 0x3BD6 DUP2 PUSH2 0x35CB JUMP JUMPDEST DUP3 MSTORE POP POP JUMP JUMPDEST PUSH1 0x0 PUSH2 0x3BE8 DUP4 DUP4 PUSH2 0x3BCD JUMP JUMPDEST PUSH1 0x20 DUP4 ADD SWAP1 POP SWAP3 SWAP2 POP POP JUMP JUMPDEST PUSH1 0x0 PUSH1 0x20 DUP3 ADD SWAP1 POP SWAP2 SWAP1 POP JUMP JUMPDEST PUSH1 0x0 PUSH2 0x3C0C DUP3 PUSH2 0x3BA1 JUMP JUMPDEST PUSH2 0x3C16 DUP2 DUP6 PUSH2 0x3BAC JUMP JUMPDEST SWAP4 POP PUSH2 0x3C21 DUP4 PUSH2 0x3BBD JUMP JUMPDEST DUP1 PUSH1 0x0 JUMPDEST DUP4 DUP2 LT ISZERO PUSH2 0x3C52 JUMPI DUP2 MLOAD PUSH2 0x3C39 DUP9 DUP3 PUSH2 0x3BDC JUMP JUMPDEST SWAP8 POP PUSH2 0x3C44 DUP4 PUSH2 0x3BF4 JUMP JUMPDEST SWAP3 POP POP PUSH1 0x1 DUP2 ADD SWAP1 POP PUSH2 0x3C25 JUMP JUMPDEST POP DUP6 SWAP4 POP POP POP POP SWAP3 SWAP2 POP POP JUMP JUMPDEST PUSH1 0x0 PUSH1 0x40 DUP3 ADD SWAP1 POP PUSH2 0x3C74 PUSH1 0x0 DUP4 ADD DUP6 PUSH2 0x3640 JUMP JUMPDEST DUP2 DUP2 SUB PUSH1 0x20 DUP4 ADD MSTORE PUSH2 0x3C86 DUP2 DUP5 PUSH2 0x3C01 JUMP JUMPDEST SWAP1 POP SWAP4 SWAP3 POP POP POP JUMP JUMPDEST PUSH1 0x0 DUP1 REVERT JUMPDEST PUSH1 0x0 PUSH1 0x1F NOT PUSH1 0x1F DUP4 ADD AND SWAP1 POP SWAP2 SWAP1 POP JUMP JUMPDEST PUSH2 0x3CAE DUP3 PUSH2 0x3C94 JUMP JUMPDEST DUP2 ADD DUP2 DUP2 LT PUSH8 0xFFFFFFFFFFFFFFFF DUP3 GT OR ISZERO PUSH2 0x3CCD JUMPI PUSH2 0x3CCC PUSH2 0x3B43 JUMP JUMPDEST JUMPDEST DUP1 PUSH1 0x40 MSTORE POP POP POP JUMP JUMPDEST PUSH1 0x0 PUSH2 0x3CE0 PUSH2 0x3597 JUMP JUMPDEST SWAP1 POP PUSH2 0x3CEC DUP3 DUP3 PUSH2 0x3CA5 JUMP JUMPDEST SWAP2 SWAP1 POP JUMP JUMPDEST PUSH1 0x0 PUSH8 0xFFFFFFFFFFFFFFFF DUP3 GT ISZERO PUSH2 0x3D0C JUMPI PUSH2 0x3D0B PUSH2 0x3B43 JUMP JUMPDEST JUMPDEST PUSH1 0x20 DUP3 MUL SWAP1 POP PUSH1 0x20 DUP2 ADD SWAP1 POP SWAP2 SWAP1 POP JUMP JUMPDEST PUSH1 0x0 DUP1 REVERT JUMPDEST PUSH1 0x0 DUP2 MLOAD SWAP1 POP PUSH2 0x3D31 DUP2 PUSH2 0x366A JUMP JUMPDEST SWAP3 SWAP2 POP POP JUMP JUMPDEST PUSH1 0x0 PUSH2 0x3D4A PUSH2 0x3D45 DUP5 PUSH2 0x3CF1 JUMP JUMPDEST PUSH2 0x3CD6 JUMP JUMPDEST SWAP1 POP DUP1 DUP4 DUP3 MSTORE PUSH1 0x20 DUP3 ADD SWAP1 POP PUSH1 0x20 DUP5 MUL DUP4 ADD DUP6 DUP2 GT ISZERO PUSH2 0x3D6D JUMPI PUSH2 0x3D6C PUSH2 0x3D1D JUMP JUMPDEST JUMPDEST DUP4 JUMPDEST DUP2 DUP2 LT ISZERO PUSH2 0x3D96 JUMPI DUP1 PUSH2 0x3D82 DUP9 DUP3 PUSH2 0x3D22 JUMP JUMPDEST DUP5 MSTORE PUSH1 0x20 DUP5 ADD SWAP4 POP POP PUSH1 0x20 DUP2 ADD SWAP1 POP PUSH2 0x3D6F JUMP JUMPDEST POP POP POP SWAP4 SWAP3 POP POP POP JUMP JUMPDEST PUSH1 0x0 DUP3 PUSH1 0x1F DUP4 ADD SLT PUSH2 0x3DB5 JUMPI PUSH2 0x3DB4 PUSH2 0x3C8F JUMP JUMPDEST JUMPDEST DUP2 MLOAD PUSH2 0x3DC5 DUP5 DUP3 PUSH1 0x20 DUP7 ADD PUSH2 0x3D37 JUMP JUMPDEST SWAP2 POP POP SWAP3 SWAP2 POP POP JUMP JUMPDEST PUSH1 0x0 PUSH1 0x20 DUP3 DUP5 SUB SLT ISZERO PUSH2 0x3DE4 JUMPI PUSH2 0x3DE3 PUSH2 0x35A1 JUMP JUMPDEST JUMPDEST PUSH1 0x0 DUP3 ADD MLOAD PUSH8 0xFFFFFFFFFFFFFFFF DUP2 GT ISZERO PUSH2 0x3E02 JUMPI PUSH2 0x3E01 PUSH2 0x35A6 JUMP JUMPDEST JUMPDEST PUSH2 0x3E0E DUP5 DUP3 DUP6 ADD PUSH2 0x3DA0 JUMP JUMPDEST SWAP2 POP POP SWAP3 SWAP2 POP POP JUMP JUMPDEST PUSH32 0x4E487B7100000000000000000000000000000000000000000000000000000000 PUSH1 0x0 MSTORE PUSH1 0x11 PUSH1 0x4 MSTORE PUSH1 0x24 PUSH1 0x0 REVERT JUMPDEST PUSH1 0x0 PUSH2 0x3E51 DUP3 PUSH2 0x3636 JUMP JUMPDEST SWAP2 POP PUSH2 0x3E5C DUP4 PUSH2 0x3636 JUMP JUMPDEST SWAP3 POP DUP3 DUP3 SUB SWAP1 POP DUP2 DUP2 GT ISZERO PUSH2 0x3E74 JUMPI PUSH2 0x3E73 PUSH2 0x3E17 JUMP JUMPDEST JUMPDEST SWAP3 SWAP2 POP POP JUMP JUMPDEST PUSH1 0x0 PUSH2 0x3E85 DUP3 PUSH2 0x3636 JUMP JUMPDEST SWAP2 POP PUSH2 0x3E90 DUP4 PUSH2 0x3636 JUMP JUMPDEST SWAP3 POP DUP3 DUP3 MUL PUSH2 0x3E9E DUP2 PUSH2 0x3636 JUMP JUMPDEST SWAP2 POP DUP3 DUP3 DIV DUP5 EQ DUP4 ISZERO OR PUSH2 0x3EB5 JUMPI PUSH2 0x3EB4 PUSH2 0x3E17 JUMP JUMPDEST JUMPDEST POP SWAP3 SWAP2 POP POP JUMP JUMPDEST PUSH32 0x4E487B7100000000000000000000000000000000000000000000000000000000 PUSH1 0x0 MSTORE PUSH1 0x12 PUSH1 0x4 MSTORE PUSH1 0x24 PUSH1 0x0 REVERT JUMPDEST PUSH1 0x0 PUSH2 0x3EF6 DUP3 PUSH2 0x3636 JUMP JUMPDEST SWAP2 POP PUSH2 0x3F01 DUP4 PUSH2 0x3636 JUMP JUMPDEST SWAP3 POP DUP3 PUSH2 0x3F11 JUMPI PUSH2 0x3F10 PUSH2 0x3EBC JUMP JUMPDEST JUMPDEST DUP3 DUP3 DIV SWAP1 POP SWAP3 SWAP2 POP POP JUMP JUMPDEST PUSH1 0x0 PUSH1 0xA0 DUP3 ADD SWAP1 POP PUSH2 0x3F31 PUSH1 0x0 DUP4 ADD DUP9 PUSH2 0x3640 JUMP JUMPDEST PUSH2 0x3F3E PUSH1 0x20 DUP4 ADD DUP8 PUSH2 0x3640 JUMP JUMPDEST DUP2 DUP2 SUB PUSH1 0x40 DUP4 ADD MSTORE PUSH2 0x3F50 DUP2 DUP7 PUSH2 0x3C01 JUMP JUMPDEST SWAP1 POP PUSH2 0x3F5F PUSH1 0x60 DUP4 ADD DUP6 PUSH2 0x37BC JUMP JUMPDEST PUSH2 0x3F6C PUSH1 0x80 DUP4 ADD DUP5 PUSH2 0x3640 JUMP JUMPDEST SWAP7 SWAP6 POP POP POP POP POP POP JUMP JUMPDEST PUSH32 0x62616420616D6F756E7473000000000000000000000000000000000000000000 PUSH1 0x0 DUP3 ADD MSTORE POP JUMP JUMPDEST PUSH1 0x0 PUSH2 0x3FAC PUSH1 0xB DUP4 PUSH2 0x39EE JUMP JUMPDEST SWAP2 POP PUSH2 0x3FB7 DUP3 PUSH2 0x3F76 JUMP JUMPDEST PUSH1 0x20 DUP3 ADD SWAP1 POP SWAP2 SWAP1 POP JUMP JUMPDEST PUSH1 0x0 PUSH1 0x20 DUP3 ADD SWAP1 POP DUP2 DUP2 SUB PUSH1 0x0 DUP4 ADD MSTORE PUSH2 0x3FDB DUP2 PUSH2 0x3F9F JUMP JUMPDEST SWAP1 POP SWAP2 SWAP1 POP JUMP JUMPDEST PUSH1 0x0 PUSH1 0xA0 DUP3 ADD SWAP1 POP PUSH2 0x3FF7 PUSH1 0x0 DUP4 ADD DUP9 PUSH2 0x3640 JUMP JUMPDEST PUSH2 0x4004 PUSH1 0x20 DUP4 ADD DUP8 PUSH2 0x3640 JUMP JUMPDEST PUSH2 0x4011 PUSH1 0x40 DUP4 ADD DUP7 PUSH2 0x3843 JUMP JUMPDEST PUSH2 0x401E PUSH1 0x60 DUP4 ADD DUP6 PUSH2 0x3843 JUMP JUMPDEST PUSH2 0x402B PUSH1 0x80 DUP4 ADD DUP5 PUSH2 0x3866 JUMP JUMPDEST SWAP7 SWAP6 POP POP POP POP POP POP JUMP JUMPDEST PUSH32 0x616D6F756E743D30000000000000000000000000000000000000000000000000 PUSH1 0x0 DUP3 ADD MSTORE POP JUMP JUMPDEST PUSH1 0x0 PUSH2 0x406B PUSH1 0x8 DUP4 PUSH2 0x39EE JUMP JUMPDEST SWAP2 POP PUSH2 0x4076 DUP3 PUSH2 0x4035 JUMP JUMPDEST PUSH1 0x20 DUP3 ADD SWAP1 POP SWAP2 SWAP1 POP JUMP JUMPDEST PUSH1 0x0 PUSH1 0x20 DUP3 ADD SWAP1 POP DUP2 DUP2 SUB PUSH1 0x0 DUP4 ADD MSTORE PUSH2 0x409A DUP2 PUSH2 0x405E JUMP JUMPDEST SWAP1 POP SWAP2 SWAP1 POP JUMP JUMPDEST PUSH32 0x696E73756666696369656E740000000000000000000000000000000000000000 PUSH1 0x0 DUP3 ADD MSTORE POP JUMP JUMPDEST PUSH1 0x0 PUSH2 0x40D7 PUSH1 0xC DUP4 PUSH2 0x39EE JUMP JUMPDEST SWAP2 POP PUSH2 0x40E2 DUP3 PUSH2 0x40A1 JUMP JUMPDEST PUSH1 0x20 DUP3 ADD SWAP1 POP SWAP2 SWAP1 POP JUMP JUMPDEST PUSH1 0x0 PUSH1 0x20 DUP3 ADD SWAP1 POP DUP2 DUP2 SUB PUSH1 0x0 DUP4 ADD MSTORE PUSH2 0x4106 DUP2 PUSH2 0x40CA JUMP JUMPDEST SWAP1 POP SWAP2 SWAP1 POP JUMP JUMPDEST PUSH1 0x0 PUSH1 0x40 DUP3 ADD SWAP1 POP PUSH2 0x4122 PUSH1 0x0 DUP4 ADD DUP6 PUSH2 0x3640 JUMP JUMPDEST PUSH2 0x412F PUSH1 0x20 DUP4 ADD DUP5 PUSH2 0x3640 JUMP JUMPDEST SWAP4 SWAP3 POP POP POP JUMP JUMPDEST PUSH1 0x0 PUSH2 0x4141 DUP3 PUSH2 0x3636 JUMP JUMPDEST SWAP2 POP PUSH2 0x414C DUP4 PUSH2 0x3636 JUMP JUMPDEST SWAP3 POP DUP3 DUP3 ADD SWAP1 POP DUP1 DUP3 GT ISZERO PUSH2 0x4164 JUMPI PUSH2 0x4163 PUSH2 0x3E17 JUMP JUMPDEST JUMPDEST SWAP3 SWAP2 POP POP JUMP JUMPDEST PUSH1 0x0 PUSH1 0x20 DUP3 DUP5 SUB SLT ISZERO PUSH2 0x4180 JUMPI PUSH2 0x417F PUSH2 0x35A1 JUMP JUMPDEST JUMPDEST PUSH1 0x0 PUSH2 0x418E DUP5 DUP3 DUP6 ADD PUSH2 0x3D22 JUMP JUMPDEST SWAP2 POP POP SWAP3 SWAP2 POP POP JUMP JUMPDEST PUSH32 0x746F3D3000000000000000000000000000000000000000000000000000000000 PUSH1 0x0 DUP3 ADD MSTORE POP JUMP JUMPDEST PUSH1 0x0 PUSH2 0x41CD PUSH1 0x4 DUP4 PUSH2 0x39EE JUMP JUMPDEST SWAP2 POP PUSH2 0x41D8 DUP3 PUSH2 0x4197 JUMP JUMPDEST PUSH1 0x20 DUP3 ADD SWAP1 POP SWAP2 SWAP1 POP JUMP JUMPDEST PUSH1 0x0 PUSH1 0x20 DUP3 ADD SWAP1 POP DUP2 DUP2 SUB PUSH1 0x0 DUP4 ADD MSTORE PUSH2 0x41FC DUP2 PUSH2 0x41C0 JUMP JUMPDEST SWAP1 POP SWAP2 SWAP1 POP JUMP JUMPDEST PUSH32 0x4F776E61626C653A206E6577206F776E657220697320746865207A65726F2061 PUSH1 0x0 DUP3 ADD MSTORE PUSH32 0x6464726573730000000000000000000000000000000000000000000000000000 PUSH1 0x20 DUP3 ADD MSTORE POP JUMP JUMPDEST PUSH1 0x0 PUSH2 0x425F PUSH1 0x26 DUP4 PUSH2 0x39EE JUMP JUMPDEST SWAP2 POP PUSH2 0x426A DUP3 PUSH2 0x4203 JUMP JUMPDEST PUSH1 0x40 DUP3 ADD SWAP1 POP SWAP2 SWAP1 POP JUMP JUMPDEST PUSH1 0x0 PUSH1 0x20 DUP3 ADD SWAP1 POP DUP2 DUP2 SUB PUSH1 0x0 DUP4 ADD MSTORE PUSH2 0x428E DUP2 PUSH2 0x4252 JUMP JUMPDEST SWAP1 POP SWAP2 SWAP1 POP JUMP JUMPDEST PUSH32 0x5265656E7472616E637947756172643A207265656E7472616E742063616C6C00 PUSH1 0x0 DUP3 ADD MSTORE POP JUMP JUMPDEST PUSH1 0x0 PUSH2 0x42CB PUSH1 0x1F DUP4 PUSH2 0x39EE JUMP JUMPDEST SWAP2 POP PUSH2 0x42D6 DUP3 PUSH2 0x4295 JUMP JUMPDEST PUSH1 0x20 DUP3 ADD SWAP1 POP SWAP2 SWAP1 POP JUMP JUMPDEST PUSH1 0x0 PUSH1 0x20 DUP3 ADD SWAP1 POP DUP2 DUP2 SUB PUSH1 0x0 DUP4 ADD MSTORE PUSH2 0x42FA DUP2 PUSH2 0x42BE JUMP JUMPDEST SWAP1 POP SWAP2 SWAP1 POP JUMP JUMPDEST PUSH1 0x0 PUSH1 0x40 DUP3 ADD SWAP1 POP PUSH2 0x4316 PUSH1 0x0 DUP4 ADD DUP6 PUSH2 0x37BC JUMP JUMPDEST PUSH2 0x4323 PUSH1 0x20 DUP4 ADD DUP5 PUSH2 0x37BC JUMP JUMPDEST SWAP4 SWAP3 POP POP POP JUMP JUMPDEST PUSH32 0x5361666545524332303A20617070726F76652066726F6D206E6F6E2D7A65726F PUSH1 0x0 DUP3 ADD MSTORE PUSH32 0x20746F206E6F6E2D7A65726F20616C6C6F77616E636500000000000000000000 PUSH1 0x20 DUP3 ADD MSTORE POP JUMP JUMPDEST PUSH1 0x0 PUSH2 0x4386 PUSH1 0x36 DUP4 PUSH2 0x39EE JUMP JUMPDEST SWAP2 POP PUSH2 0x4391 DUP3 PUSH2 0x432A JUMP JUMPDEST PUSH1 0x40 DUP3 ADD SWAP1 POP SWAP2 SWAP1 POP JUMP JUMPDEST PUSH1 0x0 PUSH1 0x20 DUP3 ADD SWAP1 POP DUP2 DUP2 SUB PUSH1 0x0 DUP4 ADD MSTORE PUSH2 0x43B5 DUP2 PUSH2 0x4379 JUMP JUMPDEST SWAP1 POP SWAP2 SWAP1 POP JUMP JUMPDEST PUSH1 0x0 PUSH1 0x40 DUP3 ADD SWAP1 POP PUSH2 0x43D1 PUSH1 0x0 DUP4 ADD DUP6 PUSH2 0x37BC JUMP JUMPDEST PUSH2 0x43DE PUSH1 0x20 DUP4 ADD DUP5 PUSH2 0x3640 JUMP JUMPDEST SWAP4 SWAP3 POP POP POP JUMP JUMPDEST PUSH32 0x4F776E61626C653A2063616C6C6572206973206E6F7420746865206F776E6572 PUSH1 0x0 DUP3 ADD MSTORE POP JUMP JUMPDEST PUSH1 0x0 PUSH2 0x441B PUSH1 0x20 DUP4 PUSH2 0x39EE JUMP JUMPDEST SWAP2 POP PUSH2 0x4426 DUP3 PUSH2 0x43E5 JUMP JUMPDEST PUSH1 0x20 DUP3 ADD SWAP1 POP SWAP2 SWAP1 POP JUMP JUMPDEST PUSH1 0x0 PUSH1 0x20 DUP3 ADD SWAP1 POP DUP2 DUP2 SUB PUSH1 0x0 DUP4 ADD MSTORE PUSH2 0x444A DUP2 PUSH2 0x440E JUMP JUMPDEST SWAP1 POP SWAP2 SWAP1 POP JUMP JUMPDEST PUSH1 0x0 PUSH1 0x60 DUP3 ADD SWAP1 POP PUSH2 0x4466 PUSH1 0x0 DUP4 ADD DUP7 PUSH2 0x37BC JUMP JUMPDEST PUSH2 0x4473 PUSH1 0x20 DUP4 ADD DUP6 PUSH2 0x37BC JUMP JUMPDEST PUSH2 0x4480 PUSH1 0x40 DUP4 ADD DUP5 PUSH2 0x3640 JUMP JUMPDEST SWAP5 SWAP4 POP POP POP POP JUMP JUMPDEST PUSH1 0x0 PUSH10 0xFFFFFFFFFFFFFFFFFFFF DUP3 AND SWAP1 POP SWAP2 SWAP1 POP JUMP JUMPDEST PUSH2 0x44A7 DUP2 PUSH2 0x4488 JUMP JUMPDEST DUP2 EQ PUSH2 0x44B2 JUMPI PUSH1 0x0 DUP1 REVERT JUMPDEST POP JUMP JUMPDEST PUSH1 0x0 DUP2 MLOAD SWAP1 POP PUSH2 0x44C4 DUP2 PUSH2 0x449E JUMP JUMPDEST SWAP3 SWAP2 POP POP JUMP JUMPDEST PUSH2 0x44D3 DUP2 PUSH2 0x3839 JUMP JUMPDEST DUP2 EQ PUSH2 0x44DE JUMPI PUSH1 0x0 DUP1 REVERT JUMPDEST POP JUMP JUMPDEST PUSH1 0x0 DUP2 MLOAD SWAP1 POP PUSH2 0x44F0 DUP2 PUSH2 0x44CA JUMP JUMPDEST SWAP3 SWAP2 POP POP JUMP JUMPDEST PUSH1 0x0 DUP1 PUSH1 0x0 DUP1 PUSH1 0x0 PUSH1 0xA0 DUP7 DUP9 SUB SLT ISZERO PUSH2 0x4512 JUMPI PUSH2 0x4511 PUSH2 0x35A1 JUMP JUMPDEST JUMPDEST PUSH1 0x0 PUSH2 0x4520 DUP9 DUP3 DUP10 ADD PUSH2 0x44B5 JUMP JUMPDEST SWAP6 POP POP PUSH1 0x20 PUSH2 0x4531 DUP9 DUP3 DUP10 ADD PUSH2 0x44E1 JUMP JUMPDEST SWAP5 POP POP PUSH1 0x40 PUSH2 0x4542 DUP9 DUP3 DUP10 ADD PUSH2 0x3D22 JUMP JUMPDEST SWAP4 POP POP PUSH1 0x60 PUSH2 0x4553 DUP9 DUP3 DUP10 ADD PUSH2 0x3D22 JUMP JUMPDEST SWAP3 POP POP PUSH1 0x80 PUSH2 0x4564 DUP9 DUP3 DUP10 ADD PUSH2 0x44B5 JUMP JUMPDEST SWAP2 POP POP SWAP3 SWAP6 POP SWAP3 SWAP6 SWAP1 SWAP4 POP JUMP JUMPDEST PUSH32 0x70726963653C3D30000000000000000000000000000000000000000000000000 PUSH1 0x0 DUP3 ADD MSTORE POP JUMP JUMPDEST PUSH1 0x0 PUSH2 0x45A7 PUSH1 0x8 DUP4 PUSH2 0x39EE JUMP JUMPDEST SWAP2 POP PUSH2 0x45B2 DUP3 PUSH2 0x4571 JUMP JUMPDEST PUSH1 0x20 DUP3 ADD SWAP1 POP SWAP2 SWAP1 POP JUMP JUMPDEST PUSH1 0x0 PUSH1 0x20 DUP3 ADD SWAP1 POP DUP2 DUP2 SUB PUSH1 0x0 DUP4 ADD MSTORE PUSH2 0x45D6 DUP2 PUSH2 0x459A JUMP JUMPDEST SWAP1 POP SWAP2 SWAP1 POP JUMP JUMPDEST PUSH2 0x45E6 DUP2 PUSH2 0x3971 JUMP JUMPDEST DUP2 EQ PUSH2 0x45F1 JUMPI PUSH1 0x0 DUP1 REVERT JUMPDEST POP JUMP JUMPDEST PUSH1 0x0 DUP2 MLOAD SWAP1 POP PUSH2 0x4603 DUP2 PUSH2 0x45DD JUMP JUMPDEST SWAP3 SWAP2 POP POP JUMP JUMPDEST PUSH1 0x0 PUSH1 0x20 DUP3 DUP5 SUB SLT ISZERO PUSH2 0x461F JUMPI PUSH2 0x461E PUSH2 0x35A1 JUMP JUMPDEST JUMPDEST PUSH1 0x0 PUSH2 0x462D DUP5 DUP3 DUP6 ADD PUSH2 0x45F4 JUMP JUMPDEST SWAP2 POP POP SWAP3 SWAP2 POP POP JUMP JUMPDEST PUSH1 0x0 PUSH2 0x4641 DUP3 PUSH2 0x3839 JUMP JUMPDEST SWAP2 POP PUSH2 0x464C DUP4 PUSH2 0x3839 JUMP JUMPDEST SWAP3 POP DUP3 DUP3 SUB SWAP1 POP DUP2 DUP2 SLT PUSH1 0x0 DUP5 SLT AND DUP3 DUP3 SGT PUSH1 0x0 DUP6 SLT ISZERO AND OR ISZERO PUSH2 0x4673 JUMPI PUSH2 0x4672 PUSH2 0x3E17 JUMP JUMPDEST JUMPDEST SWAP3 SWAP2 POP POP JUMP JUMPDEST PUSH2 0x4682 DUP2 PUSH2 0x3956 JUMP JUMPDEST DUP2 EQ PUSH2 0x468D JUMPI PUSH1 0x0 DUP1 REVERT JUMPDEST POP JUMP JUMPDEST PUSH1 0x0 DUP2 MLOAD SWAP1 POP PUSH2 0x469F DUP2 PUSH2 0x4679 JUMP JUMPDEST SWAP3 SWAP2 POP POP JUMP JUMPDEST PUSH1 0x0 PUSH1 0x20 DUP3 DUP5 SUB SLT ISZERO PUSH2 0x46BB JUMPI PUSH2 0x46BA PUSH2 0x35A1 JUMP JUMPDEST JUMPDEST PUSH1 0x0 PUSH2 0x46C9 DUP5 DUP3 DUP6 ADD PUSH2 0x4690 JUMP JUMPDEST SWAP2 POP POP SWAP3 SWAP2 POP POP JUMP JUMPDEST PUSH32 0x5361666545524332303A204552433230206F7065726174696F6E20646964206E PUSH1 0x0 DUP3 ADD MSTORE PUSH32 0x6F74207375636365656400000000000000000000000000000000000000000000 PUSH1 0x20 DUP3 ADD MSTORE POP JUMP JUMPDEST PUSH1 0x0 PUSH2 0x472E PUSH1 0x2A DUP4 PUSH2 0x39EE JUMP JUMPDEST SWAP2 POP PUSH2 0x4739 DUP3 PUSH2 0x46D2 JUMP JUMPDEST PUSH1 0x40 DUP3 ADD SWAP1 POP SWAP2 SWAP1 POP JUMP JUMPDEST PUSH1 0x0 PUSH1 0x20 DUP3 ADD SWAP1 POP DUP2 DUP2 SUB PUSH1 0x0 DUP4 ADD MSTORE PUSH2 0x475D DUP2 PUSH2 0x4721 JUMP JUMPDEST SWAP1 POP SWAP2 SWAP1 POP JUMP JUMPDEST PUSH32 0x416464726573733A20696E73756666696369656E742062616C616E636520666F PUSH1 0x0 DUP3 ADD MSTORE PUSH32 0x722063616C6C0000000000000000000000000000000000000000000000000000 PUSH1 0x20 DUP3 ADD MSTORE POP JUMP JUMPDEST PUSH1 0x0 PUSH2 0x47C0 PUSH1 0x26 DUP4 PUSH2 0x39EE JUMP JUMPDEST SWAP2 POP PUSH2 0x47CB DUP3 PUSH2 0x4764 JUMP JUMPDEST PUSH1 0x40 DUP3 ADD SWAP1 POP SWAP2 SWAP1 POP JUMP JUMPDEST PUSH1 0x0 PUSH1 0x20 DUP3 ADD SWAP1 POP DUP2 DUP2 SUB PUSH1 0x0 DUP4 ADD MSTORE PUSH2 0x47EF DUP2 PUSH2 0x47B3 JUMP JUMPDEST SWAP1 POP SWAP2 SWAP1 POP JUMP JUMPDEST PUSH1 0x0 DUP2 MLOAD SWAP1 POP SWAP2 SWAP1 POP JUMP JUMPDEST PUSH1 0x0 DUP2 SWAP1 POP SWAP3 SWAP2 POP POP JUMP JUMPDEST PUSH1 0x0 JUMPDEST DUP4 DUP2 LT ISZERO PUSH2 0x482A JUMPI DUP1 DUP3 ADD MLOAD DUP2 DUP5 ADD MSTORE PUSH1 0x20 DUP2 ADD SWAP1 POP PUSH2 0x480F JUMP JUMPDEST PUSH1 0x0 DUP5 DUP5 ADD MSTORE POP POP POP POP JUMP JUMPDEST PUSH1 0x0 PUSH2 0x4841 DUP3 PUSH2 0x47F6 JUMP JUMPDEST PUSH2 0x484B DUP2 DUP6 PUSH2 0x4801 JUMP JUMPDEST SWAP4 POP PUSH2 0x485B DUP2 DUP6 PUSH1 0x20 DUP7 ADD PUSH2 0x480C JUMP JUMPDEST DUP1 DUP5 ADD SWAP2 POP POP SWAP3 SWAP2 POP POP JUMP JUMPDEST PUSH1 0x0 PUSH2 0x4873 DUP3 DUP5 PUSH2 0x4836 JUMP JUMPDEST SWAP2 POP DUP2 SWAP1 POP SWAP3 SWAP2 POP POP JUMP JUMPDEST PUSH32 0x416464726573733A2063616C6C20746F206E6F6E2D636F6E7472616374000000 PUSH1 0x0 DUP3 ADD MSTORE POP JUMP JUMPDEST PUSH1 0x0 PUSH2 0x48B4 PUSH1 0x1D DUP4 PUSH2 0x39EE JUMP JUMPDEST SWAP2 POP PUSH2 0x48BF DUP3 PUSH2 0x487E JUMP JUMPDEST PUSH1 0x20 DUP3 ADD SWAP1 POP SWAP2 SWAP1 POP JUMP JUMPDEST PUSH1 0x0 PUSH1 0x20 DUP3 ADD SWAP1 POP DUP2 DUP2 SUB PUSH1 0x0 DUP4 ADD MSTORE PUSH2 0x48E3 DUP2 PUSH2 0x48A7 JUMP JUMPDEST SWAP1 POP SWAP2 SWAP1 POP JUMP JUMPDEST PUSH1 0x0 DUP2 MLOAD SWAP1 POP SWAP2 SWAP1 POP JUMP JUMPDEST PUSH1 0x0 PUSH2 0x4900 DUP3 PUSH2 0x48EA JUMP JUMPDEST PUSH2 0x490A DUP2 DUP6 PUSH2 0x39EE JUMP JUMPDEST SWAP4 POP PUSH2 0x491A DUP2 DUP6 PUSH1 0x20 DUP7 ADD PUSH2 0x480C JUMP JUMPDEST PUSH2 0x4923 DUP2 PUSH2 0x3C94 JUMP JUMPDEST DUP5 ADD SWAP2 POP POP SWAP3 SWAP2 POP POP JUMP JUMPDEST PUSH1 0x0 PUSH1 0x20 DUP3 ADD SWAP1 POP DUP2 DUP2 SUB PUSH1 0x0 DUP4 ADD MSTORE PUSH2 0x4948 DUP2 DUP5 PUSH2 0x48F5 JUMP JUMPDEST SWAP1 POP SWAP3 SWAP2 POP POP JUMP INVALID LOG2 PUSH5 0x6970667358 0x22 SLT KECCAK256 0xC9 PUSH30 0x5E8C83B035D6C7121B269BAF8E5534CC41C3FEEE00EEB7C180C2F0E15284 PUSH5 0x736F6C6343 STOP ADDMOD XOR STOP CALLER "},"methodIdentifiers":{"CAKE()":"4ca6ef28","DROP_BPS()":"0be1d8af","WBNB()":"8dd95002","balances(address)":"27e235e3","baselineOf(address)":"91352bbb","btcUsdFeed()":"d310d14d","deposit(uint256)":"b6b55f25","owner()":"8da5cb5b","performAutoBNBFor(address,uint16,uint256)":"637d3fdb","performAutoCAKEFor(address,uint16,uint256)":"4675fed9","previewUsdtToBNB(uint256)":"bd5f99fc","previewUsdtToCAKE(uint256)":"a1d52c99","renounceOwnership()":"715018a6","resetBaseline()":"c352710c","router()":"f887ea40","shouldTrigger(address)":"fd165f53","swapUsdtToBNB(uint256,uint256,uint256)":"dfd3d0be","swapUsdtToCAKE(uint256,uint256,uint256)":"79d60f28","totalUsdt()":"c40cb854","transferOwnership(address)":"f2fde38b","usdt()":"2f48ab7d","userBaseline(address)":"bcae7eac","withdraw(uint256)":"2e1a7d4d","withdrawTo(uint256,address)":"c86283c8"}}}}}