{
  "_format": "hh-sol-artifact-1",
  "contractName": "UsdtSafeboxV3",
  "sourceName": "contracts/UsdtSafeboxV3.sol",
  "abi": [
    {
      "inputs": [
        {
          "internalType": "address",
          "name": "usdtAddress",
          "type": "address"
        },
        {
          "internalType": "address",
          "name": "routerAddress",
          "type": "address"
        },
        {
          "internalType": "address",
          "name": "wbnbAddress",
          "type": "address"
        },
        {
          "internalType": "address",
          "name": "cakeAddress",
          "type": "address"
        },
        {
          "internalType": "address",
          "name": "btcUsdFeedAddress",
          "type": "address"
        }
      ],
      "stateMutability": "nonpayable",
      "type": "constructor"
    },
    {
      "anonymous": false,
      "inputs": [
        {
          "indexed": true,
          "internalType": "address",
          "name": "user",
          "type": "address"
        },
        {
          "indexed": true,
          "internalType": "address",
          "name": "tokenOut",
          "type": "address"
        },
        {
          "indexed": false,
          "internalType": "uint256",
          "name": "usdtIn",
          "type": "uint256"
        },
        {
          "indexed": false,
          "internalType": "uint256",
          "name": "outAmount",
          "type": "uint256"
        },
        {
          "indexed": false,
          "internalType": "int256",
          "name": "base",
          "type": "int256"
        },
        {
          "indexed": false,
          "internalType": "int256",
          "name": "nowPx",
          "type": "int256"
        },
        {
          "indexed": false,
          "internalType": "uint64",
          "name": "at",
          "type": "uint64"
        }
      ],
      "name": "AutoSwapTriggered",
      "type": "event"
    },
    {
      "anonymous": false,
      "inputs": [
        {
          "indexed": true,
          "internalType": "address",
          "name": "user",
          "type": "address"
        },
        {
          "indexed": false,
          "internalType": "int256",
          "name": "price",
          "type": "int256"
        },
        {
          "indexed": false,
          "internalType": "uint64",
          "name": "at",
          "type": "uint64"
        }
      ],
      "name": "BaselineSet",
      "type": "event"
    },
    {
      "anonymous": false,
      "inputs": [
        {
          "indexed": true,
          "internalType": "address",
          "name": "user",
          "type": "address"
        },
        {
          "indexed": false,
          "internalType": "uint256",
          "name": "amount",
          "type": "uint256"
        }
      ],
      "name": "Deposited",
      "type": "event"
    },
    {
      "anonymous": false,
      "inputs": [
        {
          "indexed": true,
          "internalType": "address",
          "name": "previousOwner",
          "type": "address"
        },
        {
          "indexed": true,
          "internalType": "address",
          "name": "newOwner",
          "type": "address"
        }
      ],
      "name": "OwnershipTransferred",
      "type": "event"
    },
    {
      "anonymous": false,
      "inputs": [
        {
          "indexed": true,
          "internalType": "address",
          "name": "user",
          "type": "address"
        },
        {
          "indexed": true,
          "internalType": "address",
          "name": "tokenOut",
          "type": "address"
        },
        {
          "indexed": false,
          "internalType": "uint256",
          "name": "usdtIn",
          "type": "uint256"
        },
        {
          "indexed": false,
          "internalType": "uint256",
          "name": "amountOut",
          "type": "uint256"
        }
      ],
      "name": "Swapped",
      "type": "event"
    },
    {
      "anonymous": false,
      "inputs": [
        {
          "indexed": true,
          "internalType": "address",
          "name": "user",
          "type": "address"
        },
        {
          "indexed": true,
          "internalType": "address",
          "name": "to",
          "type": "address"
        },
        {
          "indexed": false,
          "internalType": "uint256",
          "name": "amount",
          "type": "uint256"
        }
      ],
      "name": "Withdrawn",
      "type": "event"
    },
    {
      "inputs": [],
      "name": "CAKE",
      "outputs": [
        {
          "internalType": "address",
          "name": "",
          "type": "address"
        }
      ],
      "stateMutability": "view",
      "type": "function"
    },
    {
      "inputs": [],
      "name": "DROP_BPS",
      "outputs": [
        {
          "internalType": "uint16",
          "name": "",
          "type": "uint16"
        }
      ],
      "stateMutability": "view",
      "type": "function"
    },
    {
      "inputs": [],
      "name": "WBNB",
      "outputs": [
        {
          "internalType": "address",
          "name": "",
          "type": "address"
        }
      ],
      "stateMutability": "view",
      "type": "function"
    },
    {
      "inputs": [
        {
          "internalType": "address",
          "name": "",
          "type": "address"
        }
      ],
      "name": "balances",
      "outputs": [
        {
          "internalType": "uint256",
          "name": "",
          "type": "uint256"
        }
      ],
      "stateMutability": "view",
      "type": "function"
    },
    {
      "inputs": [
        {
          "internalType": "address",
          "name": "user",
          "type": "address"
        }
      ],
      "name": "baselineOf",
      "outputs": [
        {
          "internalType": "int256",
          "name": "price",
          "type": "int256"
        },
        {
          "internalType": "uint64",
          "name": "at",
          "type": "uint64"
        }
      ],
      "stateMutability": "view",
      "type": "function"
    },
    {
      "inputs": [],
      "name": "btcUsdFeed",
      "outputs": [
        {
          "internalType": "contract AggregatorV3Interface",
          "name": "",
          "type": "address"
        }
      ],
      "stateMutability": "view",
      "type": "function"
    },
    {
      "inputs": [
        {
          "internalType": "uint256",
          "name": "amount",
          "type": "uint256"
        }
      ],
      "name": "deposit",
      "outputs": [],
      "stateMutability": "nonpayable",
      "type": "function"
    },
    {
      "inputs": [],
      "name": "owner",
      "outputs": [
        {
          "internalType": "address",
          "name": "",
          "type": "address"
        }
      ],
      "stateMutability": "view",
      "type": "function"
    },
    {
      "inputs": [
        {
          "internalType": "address",
          "name": "user",
          "type": "address"
        },
        {
          "internalType": "uint16",
          "name": "slipBps",
          "type": "uint16"
        },
        {
          "internalType": "uint256",
          "name": "deadline",
          "type": "uint256"
        }
      ],
      "name": "performAutoBNBFor",
      "outputs": [],
      "stateMutability": "nonpayable",
      "type": "function"
    },
    {
      "inputs": [
        {
          "internalType": "address",
          "name": "user",
          "type": "address"
        },
        {
          "internalType": "uint16",
          "name": "slipBps",
          "type": "uint16"
        },
        {
          "internalType": "uint256",
          "name": "deadline",
          "type": "uint256"
        }
      ],
      "name": "performAutoCAKEFor",
      "outputs": [],
      "stateMutability": "nonpayable",
      "type": "function"
    },
    {
      "inputs": [
        {
          "internalType": "uint256",
          "name": "usdtAmount",
          "type": "uint256"
        }
      ],
      "name": "previewUsdtToBNB",
      "outputs": [
        {
          "internalType": "uint256",
          "name": "outBNB",
          "type": "uint256"
        }
      ],
      "stateMutability": "view",
      "type": "function"
    },
    {
      "inputs": [
        {
          "internalType": "uint256",
          "name": "usdtAmount",
          "type": "uint256"
        }
      ],
      "name": "previewUsdtToCAKE",
      "outputs": [
        {
          "internalType": "uint256",
          "name": "outCAKE",
          "type": "uint256"
        }
      ],
      "stateMutability": "view",
      "type": "function"
    },
    {
      "inputs": [],
      "name": "renounceOwnership",
      "outputs": [],
      "stateMutability": "nonpayable",
      "type": "function"
    },
    {
      "inputs": [],
      "name": "resetBaseline",
      "outputs": [],
      "stateMutability": "nonpayable",
      "type": "function"
    },
    {
      "inputs": [],
      "name": "router",
      "outputs": [
        {
          "internalType": "contract IPancakeRouter02",
          "name": "",
          "type": "address"
        }
      ],
      "stateMutability": "view",
      "type": "function"
    },
    {
      "inputs": [
        {
          "internalType": "address",
          "name": "user",
          "type": "address"
        }
      ],
      "name": "shouldTrigger",
      "outputs": [
        {
          "internalType": "bool",
          "name": "ready",
          "type": "bool"
        },
        {
          "internalType": "uint256",
          "name": "dropBps",
          "type": "uint256"
        },
        {
          "internalType": "int256",
          "name": "basePrice",
          "type": "int256"
        },
        {
          "internalType": "int256",
          "name": "nowPrice",
          "type": "int256"
        },
        {
          "internalType": "uint8",
          "name": "feedDecimals",
          "type": "uint8"
        },
        {
          "internalType": "uint256",
          "name": "userVault",
          "type": "uint256"
        }
      ],
      "stateMutability": "view",
      "type": "function"
    },
    {
      "inputs": [
        {
          "internalType": "uint256",
          "name": "usdtAmount",
          "type": "uint256"
        },
        {
          "internalType": "uint256",
          "name": "amountOutMin",
          "type": "uint256"
        },
        {
          "internalType": "uint256",
          "name": "deadline",
          "type": "uint256"
        }
      ],
      "name": "swapUsdtToBNB",
      "outputs": [],
      "stateMutability": "nonpayable",
      "type": "function"
    },
    {
      "inputs": [
        {
          "internalType": "uint256",
          "name": "usdtAmount",
          "type": "uint256"
        },
        {
          "internalType": "uint256",
          "name": "amountOutMin",
          "type": "uint256"
        },
        {
          "internalType": "uint256",
          "name": "deadline",
          "type": "uint256"
        }
      ],
      "name": "swapUsdtToCAKE",
      "outputs": [],
      "stateMutability": "nonpayable",
      "type": "function"
    },
    {
      "inputs": [],
      "name": "totalUsdt",
      "outputs": [
        {
          "internalType": "uint256",
          "name": "",
          "type": "uint256"
        }
      ],
      "stateMutability": "view",
      "type": "function"
    },
    {
      "inputs": [
        {
          "internalType": "address",
          "name": "newOwner",
          "type": "address"
        }
      ],
      "name": "transferOwnership",
      "outputs": [],
      "stateMutability": "nonpayable",
      "type": "function"
    },
    {
      "inputs": [],
      "name": "usdt",
      "outputs": [
        {
          "internalType": "contract IERC20",
          "name": "",
          "type": "address"
        }
      ],
      "stateMutability": "view",
      "type": "function"
    },
    {
      "inputs": [
        {
          "internalType": "address",
          "name": "",
          "type": "address"
        }
      ],
      "name": "userBaseline",
      "outputs": [
        {
          "internalType": "int256",
          "name": "price",
          "type": "int256"
        },
        {
          "internalType": "uint64",
          "name": "setAt",
          "type": "uint64"
        }
      ],
      "stateMutability": "view",
      "type": "function"
    },
    {
      "inputs": [
        {
          "internalType": "uint256",
          "name": "amount",
          "type": "uint256"
        }
      ],
      "name": "withdraw",
      "outputs": [],
      "stateMutability": "nonpayable",
      "type": "function"
    },
    {
      "inputs": [
        {
          "internalType": "uint256",
          "name": "amount",
          "type": "uint256"
        },
        {
          "internalType": "address",
          "name": "to",
          "type": "address"
        }
      ],
      "name": "withdrawTo",
      "outputs": [],
      "stateMutability": "nonpayable",
      "type": "function"
    },
    {
      "stateMutability": "payable",
      "type": "receive"
    }
  ],
  "bytecode": "0x6101206040523480156200001257600080fd5b50604051620052c2380380620052c28339818101604052810190620000389190620004e2565b60016000819055506200006062000054620003aa60201b60201c565b620003b260201b60201c565b600073ffffffffffffffffffffffffffffffffffffffff168573ffffffffffffffffffffffffffffffffffffffff1603620000d2576040517f08c379a0000000000000000000000000000000000000000000000000000000008152600401620000c990620005cb565b60405180910390fd5b600073ffffffffffffffffffffffffffffffffffffffff168473ffffffffffffffffffffffffffffffffffffffff160362000144576040517f08c379a00000000000000000000000000000000000000000000000000000000081526004016200013b906200063d565b60405180910390fd5b600073ffffffffffffffffffffffffffffffffffffffff168373ffffffffffffffffffffffffffffffffffffffff1603620001b6576040517f08c379a0000000000000000000000000000000000000000000000000000000008152600401620001ad90620006af565b60405180910390fd5b600073ffffffffffffffffffffffffffffffffffffffff168273ffffffffffffffffffffffffffffffffffffffff160362000228576040517f08c379a00000000000000000000000000000000000000000000000000000000081526004016200021f9062000721565b60405180910390fd5b600073ffffffffffffffffffffffffffffffffffffffff168173ffffffffffffffffffffffffffffffffffffffff16036200029a576040517f08c379a0000000000000000000000000000000000000000000000000000000008152600401620002919062000793565b60405180910390fd5b8473ffffffffffffffffffffffffffffffffffffffff1660808173ffffffffffffffffffffffffffffffffffffffff16815250508373ffffffffffffffffffffffffffffffffffffffff1660a08173ffffffffffffffffffffffffffffffffffffffff16815250508273ffffffffffffffffffffffffffffffffffffffff1660c08173ffffffffffffffffffffffffffffffffffffffff16815250508173ffffffffffffffffffffffffffffffffffffffff1660e08173ffffffffffffffffffffffffffffffffffffffff16815250508073ffffffffffffffffffffffffffffffffffffffff166101008173ffffffffffffffffffffffffffffffffffffffff16815250505050505050620007b5565b600033905090565b6000600160009054906101000a900473ffffffffffffffffffffffffffffffffffffffff16905081600160006101000a81548173ffffffffffffffffffffffffffffffffffffffff021916908373ffffffffffffffffffffffffffffffffffffffff1602179055508173ffffffffffffffffffffffffffffffffffffffff168173ffffffffffffffffffffffffffffffffffffffff167f8be0079c531659141344cd1fd0a4f28419497f9722a3daafe3b4186f6b6457e060405160405180910390a35050565b600080fd5b600073ffffffffffffffffffffffffffffffffffffffff82169050919050565b6000620004aa826200047d565b9050919050565b620004bc816200049d565b8114620004c857600080fd5b50565b600081519050620004dc81620004b1565b92915050565b600080600080600060a0868803121562000501576200050062000478565b5b60006200051188828901620004cb565b95505060206200052488828901620004cb565b94505060406200053788828901620004cb565b93505060606200054a88828901620004cb565b92505060806200055d88828901620004cb565b9150509295509295909350565b600082825260208201905092915050565b7f555344543d300000000000000000000000000000000000000000000000000000600082015250565b6000620005b36006836200056a565b9150620005c0826200057b565b602082019050919050565b60006020820190508181036000830152620005e681620005a4565b9050919050565b7f524f555445523d30000000000000000000000000000000000000000000000000600082015250565b6000620006256008836200056a565b91506200063282620005ed565b602082019050919050565b60006020820190508181036000830152620006588162000616565b9050919050565b7f57424e423d300000000000000000000000000000000000000000000000000000600082015250565b6000620006976006836200056a565b9150620006a4826200065f565b602082019050919050565b60006020820190508181036000830152620006ca8162000688565b9050919050565b7f43414b453d300000000000000000000000000000000000000000000000000000600082015250565b6000620007096006836200056a565b91506200071682620006d1565b602082019050919050565b600060208201905081810360008301526200073c81620006fa565b9050919050565b7f464545443d300000000000000000000000000000000000000000000000000000600082015250565b60006200077b6006836200056a565b9150620007888262000743565b602082019050919050565b60006020820190508181036000830152620007ae816200076c565b9050919050565b60805160a05160c05160e051610100516149866200093c6000396000818161248f0152818161306a01526131420152600081816109e001528181610c2f01528181610d5d015281816116c8015281816118290152611b4601526000818161097101528181611047015281816116590152818161191101528181611ad70152818161203c015261275f0152600081816107e00152818161084c01528181610a5101528181610b3f01528181610eb601528181610f22015281816110b8015281816111a6015281816114c8015281816115340152818161173901528181611bb7015281816120ad015281816125ce0152818161263a015281816127d001526129d6015260008181610687015281816108030152818161086e0152818161090201528181610ed901528181610f4401528181610fd8015281816114eb01528181611556015281816115ea01528181611a6801528181611d1501528181611fcd015281816122b6015281816125f10152818161265c015281816126f00152612c8f01526149866000f3fe60806040526004361061014f5760003560e01c8063a1d52c99116100b6578063c86283c81161006f578063c86283c81461048b578063d310d14d146104b4578063dfd3d0be146104df578063f2fde38b14610508578063f887ea4014610531578063fd165f531461055c57610156565b8063a1d52c9914610368578063b6b55f25146103a5578063bcae7eac146103ce578063bd5f99fc1461040c578063c352710c14610449578063c40cb8541461046057610156565b8063637d3fdb11610108578063637d3fdb1461026b578063715018a61461029457806379d60f28146102ab5780638da5cb5b146102d45780638dd95002146102ff57806391352bbb1461032a57610156565b80630be1d8af1461015b57806327e235e3146101865780632e1a7d4d146101c35780632f48ab7d146101ec5780634675fed9146102175780634ca6ef281461024057610156565b3661015657005b600080fd5b34801561016757600080fd5b5061017061059e565b60405161017d919061357c565b60405180910390f35b34801561019257600080fd5b506101ad60048036038101906101a89190613609565b6105a3565b6040516101ba919061364f565b60405180910390f35b3480156101cf57600080fd5b506101ea60048036038101906101e59190613696565b6105bb565b005b3480156101f857600080fd5b50610201610685565b60405161020e9190613722565b60405180910390f35b34801561022357600080fd5b5061023e60048036038101906102399190613769565b6106a9565b005b34801561024c57600080fd5b50610255610d5b565b60405161026291906137cb565b60405180910390f35b34801561027757600080fd5b50610292600480360381019061028d9190613769565b610d7f565b005b3480156102a057600080fd5b506102a9611397565b005b3480156102b757600080fd5b506102d260048036038101906102cd91906137e6565b6113ab565b005b3480156102e057600080fd5b506102e96118e5565b6040516102f691906137cb565b60405180910390f35b34801561030b57600080fd5b5061031461190f565b60405161032191906137cb565b60405180910390f35b34801561033657600080fd5b50610351600480360381019061034c9190613609565b611933565b60405161035f929190613875565b60405180910390f35b34801561037457600080fd5b5061038f600480360381019061038a9190613696565b6119d4565b60405161039c919061364f565b60405180910390f35b3480156103b157600080fd5b506103cc60048036038101906103c79190613696565b611cc2565b005b3480156103da57600080fd5b506103f560048036038101906103f09190613609565b611f01565b604051610403929190613875565b60405180910390f35b34801561041857600080fd5b50610433600480360381019061042e9190613696565b611f39565b604051610440919061364f565b60405180910390f35b34801561045557600080fd5b5061045e6121b8565b005b34801561046c57600080fd5b506104756122b2565b604051610482919061364f565b60405180910390f35b34801561049757600080fd5b506104b260048036038101906104ad919061389e565b612353565b005b3480156104c057600080fd5b506104c961248d565b6040516104d691906138ff565b60405180910390f35b3480156104eb57600080fd5b50610506600480360381019061050191906137e6565b6124b1565b005b34801561051457600080fd5b5061052f600480360381019061052a9190613609565b612951565b005b34801561053d57600080fd5b506105466129d4565b604051610553919061393b565b60405180910390f35b34801561056857600080fd5b50610583600480360381019061057e9190613609565b6129f8565b6040516105959695949392919061398d565b60405180910390f35b603281565b60026020528060005260406000206000915090505481565b6105c3612b29565b6105cd8133612b78565b6000600260003373ffffffffffffffffffffffffffffffffffffffff1673ffffffffffffffffffffffffffffffffffffffff168152602001908152602001600020540361067a57600360003373ffffffffffffffffffffffffffffffffffffffff1673ffffffffffffffffffffffffffffffffffffffff1681526020019081526020016000206000808201600090556001820160006101000a81549067ffffffffffffffff021916905550505b610682612d3d565b50565b7f000000000000000000000000000000000000000000000000000000000000000081565b6106b1612b29565b6000806000806106c0876129f8565b955050945094505093508361070a576040517f08c379a000000000000000000000000000000000000000000000000000000000815260040161070190613a4b565b60405180910390fd5b6103e88661ffff161115610753576040517f08c379a000000000000000000000000000000000000000000000000000000000815260040161074a90613ab7565b60405180910390fd5b60008111610796576040517f08c379a000000000000000000000000000000000000000000000000000000000815260040161078d90613b23565b60405180910390fd5b6000600260008973ffffffffffffffffffffffffffffffffffffffff1673ffffffffffffffffffffffffffffffffffffffff168152602001908152602001600020819055506108477f000000000000000000000000000000000000000000000000000000000000000060007f000000000000000000000000000000000000000000000000000000000000000073ffffffffffffffffffffffffffffffffffffffff16612d479092919063ffffffff16565b6108b27f0000000000000000000000000000000000000000000000000000000000000000827f000000000000000000000000000000000000000000000000000000000000000073ffffffffffffffffffffffffffffffffffffffff16612d479092919063ffffffff16565b6000600367ffffffffffffffff8111156108cf576108ce613b43565b5b6040519080825280602002602001820160405280156108fd5781602001602082028036833780820191505090505b5090507f00000000000000000000000000000000000000000000000000000000000000008160008151811061093557610934613b72565b5b602002602001019073ffffffffffffffffffffffffffffffffffffffff16908173ffffffffffffffffffffffffffffffffffffffff16815250507f0000000000000000000000000000000000000000000000000000000000000000816001815181106109a4576109a3613b72565b5b602002602001019073ffffffffffffffffffffffffffffffffffffffff16908173ffffffffffffffffffffffffffffffffffffffff16815250507f000000000000000000000000000000000000000000000000000000000000000081600281518110610a1357610a12613b72565b5b602002602001019073ffffffffffffffffffffffffffffffffffffffff16908173ffffffffffffffffffffffffffffffffffffffff168152505060007f000000000000000000000000000000000000000000000000000000000000000073ffffffffffffffffffffffffffffffffffffffff1663d06ca61f84846040518363ffffffff1660e01b8152600401610aaa929190613c5f565b600060405180830381865afa158015610ac7573d6000803e3d6000fd5b505050506040513d6000823e3d601f19601f82011682018060405250810190610af09190613dce565b905060006127108961ffff16612710610b099190613e46565b83600281518110610b1d57610b1c613b72565b5b6020026020010151610b2f9190613e7a565b610b399190613eeb565b905060007f000000000000000000000000000000000000000000000000000000000000000073ffffffffffffffffffffffffffffffffffffffff166338ed17398684878f8e6040518663ffffffff1660e01b8152600401610b9e959493929190613f1c565b6000604051808303816000875af1158015610bbd573d6000803e3d6000fd5b505050506040513d6000823e3d601f19601f82011682018060405250810190610be69190613dce565b9050600381511015610c2d576040517f08c379a0000000000000000000000000000000000000000000000000000000008152600401610c2490613fc2565b60405180910390fd5b7f000000000000000000000000000000000000000000000000000000000000000073ffffffffffffffffffffffffffffffffffffffff168b73ffffffffffffffffffffffffffffffffffffffff167fa0c29cbc03a94ee377a9b2cb21978307a58a2588cecb8cabf9a1efe263a2df7a878460018651610cac9190613e46565b81518110610cbd57610cbc613b72565b5b60200260200101518b8b42604051610cd9959493929190613fe2565b60405180910390a3600360008c73ffffffffffffffffffffffffffffffffffffffff1673ffffffffffffffffffffffffffffffffffffffff1681526020019081526020016000206000808201600090556001820160006101000a81549067ffffffffffffffff021916905550505050505050505050610d56612d3d565b505050565b7f000000000000000000000000000000000000000000000000000000000000000081565b610d87612b29565b600080600080610d96876129f8565b9550509450945050935083610de0576040517f08c379a0000000000000000000000000000000000000000000000000000000008152600401610dd790613a4b565b60405180910390fd5b6103e88661ffff161115610e29576040517f08c379a0000000000000000000000000000000000000000000000000000000008152600401610e2090613ab7565b60405180910390fd5b60008111610e6c576040517f08c379a0000000000000000000000000000000000000000000000000000000008152600401610e6390613b23565b60405180910390fd5b6000600260008973ffffffffffffffffffffffffffffffffffffffff1673ffffffffffffffffffffffffffffffffffffffff16815260200190815260200160002081905550610f1d7f000000000000000000000000000000000000000000000000000000000000000060007f000000000000000000000000000000000000000000000000000000000000000073ffffffffffffffffffffffffffffffffffffffff16612d479092919063ffffffff16565b610f887f0000000000000000000000000000000000000000000000000000000000000000827f000000000000000000000000000000000000000000000000000000000000000073ffffffffffffffffffffffffffffffffffffffff16612d479092919063ffffffff16565b6000600267ffffffffffffffff811115610fa557610fa4613b43565b5b604051908082528060200260200182016040528015610fd35781602001602082028036833780820191505090505b5090507f00000000000000000000000000000000000000000000000000000000000000008160008151811061100b5761100a613b72565b5b602002602001019073ffffffffffffffffffffffffffffffffffffffff16908173ffffffffffffffffffffffffffffffffffffffff16815250507f00000000000000000000000000000000000000000000000000000000000000008160018151811061107a57611079613b72565b5b602002602001019073ffffffffffffffffffffffffffffffffffffffff16908173ffffffffffffffffffffffffffffffffffffffff168152505060007f000000000000000000000000000000000000000000000000000000000000000073ffffffffffffffffffffffffffffffffffffffff1663d06ca61f84846040518363ffffffff1660e01b8152600401611111929190613c5f565b600060405180830381865afa15801561112e573d6000803e3d6000fd5b505050506040513d6000823e3d601f19601f820116820180604052508101906111579190613dce565b905060006127108961ffff166127106111709190613e46565b8360018151811061118457611183613b72565b5b60200260200101516111969190613e7a565b6111a09190613eeb565b905060007f000000000000000000000000000000000000000000000000000000000000000073ffffffffffffffffffffffffffffffffffffffff166318cbafe58684878f8e6040518663ffffffff1660e01b8152600401611205959493929190613f1c565b6000604051808303816000875af1158015611224573d6000803e3d6000fd5b505050506040513d6000823e3d601f19601f8201168201806040525081019061124d9190613dce565b9050600281511015611294576040517f08c379a000000000000000000000000000000000000000000000000000000000815260040161128b90613fc2565b60405180910390fd5b600073ffffffffffffffffffffffffffffffffffffffff168b73ffffffffffffffffffffffffffffffffffffffff167fa0c29cbc03a94ee377a9b2cb21978307a58a2588cecb8cabf9a1efe263a2df7a87846001815181106112f9576112f8613b72565b5b60200260200101518b8b42604051611315959493929190613fe2565b60405180910390a3600360008c73ffffffffffffffffffffffffffffffffffffffff1673ffffffffffffffffffffffffffffffffffffffff1681526020019081526020016000206000808201600090556001820160006101000a81549067ffffffffffffffff021916905550505050505050505050611392612d3d565b505050565b61139f612e96565b6113a96000612f14565b565b6113b3612b29565b600083116113f6576040517f08c379a00000000000000000000000000000000000000000000000000000000081526004016113ed90614081565b60405180910390fd5b6000600260003373ffffffffffffffffffffffffffffffffffffffff1673ffffffffffffffffffffffffffffffffffffffff1681526020019081526020016000205490508381101561147d576040517f08c379a0000000000000000000000000000000000000000000000000000000008152600401611474906140ed565b60405180910390fd5b838103600260003373ffffffffffffffffffffffffffffffffffffffff1673ffffffffffffffffffffffffffffffffffffffff1681526020019081526020016000208190555061152f7f000000000000000000000000000000000000000000000000000000000000000060007f000000000000000000000000000000000000000000000000000000000000000073ffffffffffffffffffffffffffffffffffffffff16612d479092919063ffffffff16565b61159a7f0000000000000000000000000000000000000000000000000000000000000000857f000000000000000000000000000000000000000000000000000000000000000073ffffffffffffffffffffffffffffffffffffffff16612d479092919063ffffffff16565b6000600367ffffffffffffffff8111156115b7576115b6613b43565b5b6040519080825280602002602001820160405280156115e55781602001602082028036833780820191505090505b5090507f00000000000000000000000000000000000000000000000000000000000000008160008151811061161d5761161c613b72565b5b602002602001019073ffffffffffffffffffffffffffffffffffffffff16908173ffffffffffffffffffffffffffffffffffffffff16815250507f00000000000000000000000000000000000000000000000000000000000000008160018151811061168c5761168b613b72565b5b602002602001019073ffffffffffffffffffffffffffffffffffffffff16908173ffffffffffffffffffffffffffffffffffffffff16815250507f0000000000000000000000000000000000000000000000000000000000000000816002815181106116fb576116fa613b72565b5b602002602001019073ffffffffffffffffffffffffffffffffffffffff16908173ffffffffffffffffffffffffffffffffffffffff168152505060007f000000000000000000000000000000000000000000000000000000000000000073ffffffffffffffffffffffffffffffffffffffff166338ed173987878533896040518663ffffffff1660e01b8152600401611798959493929190613f1c565b6000604051808303816000875af11580156117b7573d6000803e3d6000fd5b505050506040513d6000823e3d601f19601f820116820180604052508101906117e09190613dce565b9050600381511015611827576040517f08c379a000000000000000000000000000000000000000000000000000000000815260040161181e90613fc2565b60405180910390fd5b7f000000000000000000000000000000000000000000000000000000000000000073ffffffffffffffffffffffffffffffffffffffff163373ffffffffffffffffffffffffffffffffffffffff167fa078c4190abe07940190effc1846be0ccf03ad6007bc9e93f9697d0b460befbb8884600186516118a69190613e46565b815181106118b7576118b6613b72565b5b60200260200101516040516118cd92919061410d565b60405180910390a35050506118e0612d3d565b505050565b6000600160009054906101000a900473ffffffffffffffffffffffffffffffffffffffff16905090565b7f000000000000000000000000000000000000000000000000000000000000000081565b6000806000600360008573ffffffffffffffffffffffffffffffffffffffff1673ffffffffffffffffffffffffffffffffffffffff168152602001908152602001600020604051806040016040529081600082015481526020016001820160009054906101000a900467ffffffffffffffff1667ffffffffffffffff1667ffffffffffffffff16815250509050806000015181602001519250925050915091565b6000808211611a18576040517f08c379a0000000000000000000000000000000000000000000000000000000008152600401611a0f90614081565b60405180910390fd5b6000600367ffffffffffffffff811115611a3557611a34613b43565b5b604051908082528060200260200182016040528015611a635781602001602082028036833780820191505090505b5090507f000000000000000000000000000000000000000000000000000000000000000081600081518110611a9b57611a9a613b72565b5b602002602001019073ffffffffffffffffffffffffffffffffffffffff16908173ffffffffffffffffffffffffffffffffffffffff16815250507f000000000000000000000000000000000000000000000000000000000000000081600181518110611b0a57611b09613b72565b5b602002602001019073ffffffffffffffffffffffffffffffffffffffff16908173ffffffffffffffffffffffffffffffffffffffff16815250507f000000000000000000000000000000000000000000000000000000000000000081600281518110611b7957611b78613b72565b5b602002602001019073ffffffffffffffffffffffffffffffffffffffff16908173ffffffffffffffffffffffffffffffffffffffff168152505060007f000000000000000000000000000000000000000000000000000000000000000073ffffffffffffffffffffffffffffffffffffffff1663d06ca61f85846040518363ffffffff1660e01b8152600401611c10929190613c5f565b600060405180830381865afa158015611c2d573d6000803e3d6000fd5b505050506040513d6000823e3d601f19601f82011682018060405250810190611c569190613dce565b9050600381511015611c9d576040517f08c379a0000000000000000000000000000000000000000000000000000000008152600401611c9490613fc2565b60405180910390fd5b80600281518110611cb157611cb0613b72565b5b602002602001015192505050919050565b611cca612b29565b60008111611d0d576040517f08c379a0000000000000000000000000000000000000000000000000000000008152600401611d0490614081565b60405180910390fd5b611d5a3330837f000000000000000000000000000000000000000000000000000000000000000073ffffffffffffffffffffffffffffffffffffffff16612fda909392919063ffffffff16565b80600260003373ffffffffffffffffffffffffffffffffffffffff1673ffffffffffffffffffffffffffffffffffffffff1681526020019081526020016000206000828254611da99190614136565b925050819055506000611dba613063565b50905060405180604001604052808281526020014267ffffffffffffffff16815250600360003373ffffffffffffffffffffffffffffffffffffffff1673ffffffffffffffffffffffffffffffffffffffff1681526020019081526020016000206000820151816000015560208201518160010160006101000a81548167ffffffffffffffff021916908367ffffffffffffffff1602179055509050503373ffffffffffffffffffffffffffffffffffffffff167fce584eb1deefcaed6cfaa5762bcb28a12ff7e564b0a1a75d80386083c0ac13f88242604051611e9f929190613875565b60405180910390a23373ffffffffffffffffffffffffffffffffffffffff167f2da466a7b24304f47e87fa2e1e5a81b9831ce54fec19055ce277ca2f39ba42c483604051611eed919061364f565b60405180910390a250611efe612d3d565b50565b60036020528060005260406000206000915090508060000154908060010160009054906101000a900467ffffffffffffffff16905082565b6000808211611f7d576040517f08c379a0000000000000000000000000000000000000000000000000000000008152600401611f7490614081565b60405180910390fd5b6000600267ffffffffffffffff811115611f9a57611f99613b43565b5b604051908082528060200260200182016040528015611fc85781602001602082028036833780820191505090505b5090507f00000000000000000000000000000000000000000000000000000000000000008160008151811061200057611fff613b72565b5b602002602001019073ffffffffffffffffffffffffffffffffffffffff16908173ffffffffffffffffffffffffffffffffffffffff16815250507f00000000000000000000000000000000000000000000000000000000000000008160018151811061206f5761206e613b72565b5b602002602001019073ffffffffffffffffffffffffffffffffffffffff16908173ffffffffffffffffffffffffffffffffffffffff168152505060007f000000000000000000000000000000000000000000000000000000000000000073ffffffffffffffffffffffffffffffffffffffff1663d06ca61f85846040518363ffffffff1660e01b8152600401612106929190613c5f565b600060405180830381865afa158015612123573d6000803e3d6000fd5b505050506040513d6000823e3d601f19601f8201168201806040525081019061214c9190613dce565b9050600281511015612193576040517f08c379a000000000000000000000000000000000000000000000000000000000815260040161218a90613fc2565b60405180910390fd5b806001815181106121a7576121a6613b72565b5b602002602001015192505050919050565b60006121c2613063565b50905060405180604001604052808281526020014267ffffffffffffffff16815250600360003373ffffffffffffffffffffffffffffffffffffffff1673ffffffffffffffffffffffffffffffffffffffff1681526020019081526020016000206000820151816000015560208201518160010160006101000a81548167ffffffffffffffff021916908367ffffffffffffffff1602179055509050503373ffffffffffffffffffffffffffffffffffffffff167fce584eb1deefcaed6cfaa5762bcb28a12ff7e564b0a1a75d80386083c0ac13f882426040516122a7929190613875565b60405180910390a250565b60007f000000000000000000000000000000000000000000000000000000000000000073ffffffffffffffffffffffffffffffffffffffff166370a08231306040518263ffffffff1660e01b815260040161230d91906137cb565b602060405180830381865afa15801561232a573d6000803e3d6000fd5b505050506040513d601f19601f8201168201806040525081019061234e919061416a565b905090565b61235b612b29565b600073ffffffffffffffffffffffffffffffffffffffff168173ffffffffffffffffffffffffffffffffffffffff16036123ca576040517f08c379a00000000000000000000000000000000000000000000000000000000081526004016123c1906141e3565b60405180910390fd5b6123d48282612b78565b6000600260003373ffffffffffffffffffffffffffffffffffffffff1673ffffffffffffffffffffffffffffffffffffffff168152602001908152602001600020540361248157600360003373ffffffffffffffffffffffffffffffffffffffff1673ffffffffffffffffffffffffffffffffffffffff1681526020019081526020016000206000808201600090556001820160006101000a81549067ffffffffffffffff021916905550505b612489612d3d565b5050565b7f000000000000000000000000000000000000000000000000000000000000000081565b6124b9612b29565b600083116124fc576040517f08c379a00000000000000000000000000000000000000000000000000000000081526004016124f390614081565b60405180910390fd5b6000600260003373ffffffffffffffffffffffffffffffffffffffff1673ffffffffffffffffffffffffffffffffffffffff16815260200190815260200160002054905083811015612583576040517f08c379a000000000000000000000000000000000000000000000000000000000815260040161257a906140ed565b60405180910390fd5b838103600260003373ffffffffffffffffffffffffffffffffffffffff1673ffffffffffffffffffffffffffffffffffffffff168152602001908152602001600020819055506126357f000000000000000000000000000000000000000000000000000000000000000060007f000000000000000000000000000000000000000000000000000000000000000073ffffffffffffffffffffffffffffffffffffffff16612d479092919063ffffffff16565b6126a07f0000000000000000000000000000000000000000000000000000000000000000857f000000000000000000000000000000000000000000000000000000000000000073ffffffffffffffffffffffffffffffffffffffff16612d479092919063ffffffff16565b6000600267ffffffffffffffff8111156126bd576126bc613b43565b5b6040519080825280602002602001820160405280156126eb5781602001602082028036833780820191505090505b5090507f00000000000000000000000000000000000000000000000000000000000000008160008151811061272357612722613b72565b5b602002602001019073ffffffffffffffffffffffffffffffffffffffff16908173ffffffffffffffffffffffffffffffffffffffff16815250507f00000000000000000000000000000000000000000000000000000000000000008160018151811061279257612791613b72565b5b602002602001019073ffffffffffffffffffffffffffffffffffffffff16908173ffffffffffffffffffffffffffffffffffffffff168152505060007f000000000000000000000000000000000000000000000000000000000000000073ffffffffffffffffffffffffffffffffffffffff166318cbafe587878533896040518663ffffffff1660e01b815260040161282f959493929190613f1c565b6000604051808303816000875af115801561284e573d6000803e3d6000fd5b505050506040513d6000823e3d601f19601f820116820180604052508101906128779190613dce565b90506002815110156128be576040517f08c379a00000000000000000000000000000000000000000000000000000000081526004016128b590613fc2565b60405180910390fd5b600073ffffffffffffffffffffffffffffffffffffffff163373ffffffffffffffffffffffffffffffffffffffff167fa078c4190abe07940190effc1846be0ccf03ad6007bc9e93f9697d0b460befbb888460018151811061292357612922613b72565b5b602002602001015160405161293992919061410d565b60405180910390a350505061294c612d3d565b505050565b612959612e96565b600073ffffffffffffffffffffffffffffffffffffffff168173ffffffffffffffffffffffffffffffffffffffff16036129c8576040517f08c379a00000000000000000000000000000000000000000000000000000000081526004016129bf90614275565b60405180910390fd5b6129d181612f14565b50565b7f000000000000000000000000000000000000000000000000000000000000000081565b6000806000806000806000600360008973ffffffffffffffffffffffffffffffffffffffff1673ffffffffffffffffffffffffffffffffffffffff168152602001908152602001600020604051806040016040529081600082015481526020016001820160009054906101000a900467ffffffffffffffff1667ffffffffffffffff1667ffffffffffffffff1681525050905080600001519450600260008973ffffffffffffffffffffffffffffffffffffffff1673ffffffffffffffffffffffffffffffffffffffff168152602001908152602001600020549150612adc613063565b8094508195505050612aee85856131d9565b9550600082118015612b005750600085135b8015612b0c5750600084135b8015612b1d5750603261ffff168610155b96505091939550919395565b600260005403612b6e576040517f08c379a0000000000000000000000000000000000000000000000000000000008152600401612b65906142e1565b60405180910390fd5b6002600081905550565b60008211612bbb576040517f08c379a0000000000000000000000000000000000000000000000000000000008152600401612bb290614081565b60405180910390fd5b6000600260003373ffffffffffffffffffffffffffffffffffffffff1673ffffffffffffffffffffffffffffffffffffffff16815260200190815260200160002054905082811015612c42576040517f08c379a0000000000000000000000000000000000000000000000000000000008152600401612c39906140ed565b60405180910390fd5b828103600260003373ffffffffffffffffffffffffffffffffffffffff1673ffffffffffffffffffffffffffffffffffffffff16815260200190815260200160002081905550612cd382847f000000000000000000000000000000000000000000000000000000000000000073ffffffffffffffffffffffffffffffffffffffff1661323c9092919063ffffffff16565b8173ffffffffffffffffffffffffffffffffffffffff163373ffffffffffffffffffffffffffffffffffffffff167fd1c19fbcd4551a5edfb66d43d2e337c04837afda3482b42bdf569a8fccdae5fb85604051612d30919061364f565b60405180910390a3505050565b6001600081905550565b6000811480612dd1575060008373ffffffffffffffffffffffffffffffffffffffff1663dd62ed3e30856040518363ffffffff1660e01b8152600401612d8e929190614301565b602060405180830381865afa158015612dab573d6000803e3d6000fd5b505050506040513d601f19601f82011682018060405250810190612dcf919061416a565b145b612e10576040517f08c379a0000000000000000000000000000000000000000000000000000000008152600401612e079061439c565b60405180910390fd5b612e918363095ea7b360e01b8484604051602401612e2f9291906143bc565b604051602081830303815290604052907bffffffffffffffffffffffffffffffffffffffffffffffffffffffff19166020820180517bffffffffffffffffffffffffffffffffffffffffffffffffffffffff83818316178352505050506132c2565b505050565b612e9e61338a565b73ffffffffffffffffffffffffffffffffffffffff16612ebc6118e5565b73ffffffffffffffffffffffffffffffffffffffff1614612f12576040517f08c379a0000000000000000000000000000000000000000000000000000000008152600401612f0990614431565b60405180910390fd5b565b6000600160009054906101000a900473ffffffffffffffffffffffffffffffffffffffff16905081600160006101000a81548173ffffffffffffffffffffffffffffffffffffffff021916908373ffffffffffffffffffffffffffffffffffffffff1602179055508173ffffffffffffffffffffffffffffffffffffffff168173ffffffffffffffffffffffffffffffffffffffff167f8be0079c531659141344cd1fd0a4f28419497f9722a3daafe3b4186f6b6457e060405160405180910390a35050565b61305d846323b872dd60e01b858585604051602401612ffb93929190614451565b604051602081830303815290604052907bffffffffffffffffffffffffffffffffffffffffffffffffffffffff19166020820180517bffffffffffffffffffffffffffffffffffffffffffffffffffffffff83818316178352505050506132c2565b50505050565b60008060007f000000000000000000000000000000000000000000000000000000000000000073ffffffffffffffffffffffffffffffffffffffff1663feaf968c6040518163ffffffff1660e01b815260040160a060405180830381865afa1580156130d3573d6000803e3d6000fd5b505050506040513d601f19601f820116820180604052508101906130f791906144f6565b50505091505060008113613140576040517f08c379a0000000000000000000000000000000000000000000000000000000008152600401613137906145bd565b60405180910390fd5b7f000000000000000000000000000000000000000000000000000000000000000073ffffffffffffffffffffffffffffffffffffffff1663313ce5676040518163ffffffff1660e01b8152600401602060405180830381865afa1580156131ab573d6000803e3d6000fd5b505050506040513d601f19601f820116820180604052508101906131cf9190614609565b9150809250509091565b600080831315806131eb575060008213155b156131f95760009050613236565b8282126132095760009050613236565b600082846132179190614636565b905083612710826132289190613e7a565b6132329190613eeb565b9150505b92915050565b6132bd8363a9059cbb60e01b848460405160240161325b9291906143bc565b604051602081830303815290604052907bffffffffffffffffffffffffffffffffffffffffffffffffffffffff19166020820180517bffffffffffffffffffffffffffffffffffffffffffffffffffffffff83818316178352505050506132c2565b505050565b6000613324826040518060400160405280602081526020017f5361666545524332303a206c6f772d6c6576656c2063616c6c206661696c65648152508573ffffffffffffffffffffffffffffffffffffffff166133929092919063ffffffff16565b905060008151148061334657508080602001905181019061334591906146a5565b5b613385576040517f08c379a000000000000000000000000000000000000000000000000000000000815260040161337c90614744565b60405180910390fd5b505050565b600033905090565b60606133a184846000856133aa565b90509392505050565b6060824710156133ef576040517f08c379a00000000000000000000000000000000000000000000000000000000081526004016133e6906147d6565b60405180910390fd5b6000808673ffffffffffffffffffffffffffffffffffffffff1685876040516134189190614867565b60006040518083038185875af1925050503d8060008114613455576040519150601f19603f3d011682016040523d82523d6000602084013e61345a565b606091505b509150915061346b87838387613477565b92505050949350505050565b606083156134d95760008351036134d157613491856134ec565b6134d0576040517f08c379a00000000000000000000000000000000000000000000000000000000081526004016134c7906148ca565b60405180910390fd5b5b8290506134e4565b6134e3838361350f565b5b949350505050565b6000808273ffffffffffffffffffffffffffffffffffffffff163b119050919050565b6000825111156135225781518083602001fd5b806040517f08c379a0000000000000000000000000000000000000000000000000000000008152600401613556919061492e565b60405180910390fd5b600061ffff82169050919050565b6135768161355f565b82525050565b6000602082019050613591600083018461356d565b92915050565b6000604051905090565b600080fd5b600080fd5b600073ffffffffffffffffffffffffffffffffffffffff82169050919050565b60006135d6826135ab565b9050919050565b6135e6816135cb565b81146135f157600080fd5b50565b600081359050613603816135dd565b92915050565b60006020828403121561361f5761361e6135a1565b5b600061362d848285016135f4565b91505092915050565b6000819050919050565b61364981613636565b82525050565b60006020820190506136646000830184613640565b92915050565b61367381613636565b811461367e57600080fd5b50565b6000813590506136908161366a565b92915050565b6000602082840312156136ac576136ab6135a1565b5b60006136ba84828501613681565b91505092915050565b6000819050919050565b60006136e86136e36136de846135ab565b6136c3565b6135ab565b9050919050565b60006136fa826136cd565b9050919050565b600061370c826136ef565b9050919050565b61371c81613701565b82525050565b60006020820190506137376000830184613713565b92915050565b6137468161355f565b811461375157600080fd5b50565b6000813590506137638161373d565b92915050565b600080600060608486031215613782576137816135a1565b5b6000613790868287016135f4565b93505060206137a186828701613754565b92505060406137b286828701613681565b9150509250925092565b6137c5816135cb565b82525050565b60006020820190506137e060008301846137bc565b92915050565b6000806000606084860312156137ff576137fe6135a1565b5b600061380d86828701613681565b935050602061381e86828701613681565b925050604061382f86828701613681565b9150509250925092565b6000819050919050565b61384c81613839565b82525050565b600067ffffffffffffffff82169050919050565b61386f81613852565b82525050565b600060408201905061388a6000830185613843565b6138976020830184613866565b9392505050565b600080604083850312156138b5576138b46135a1565b5b60006138c385828601613681565b92505060206138d4858286016135f4565b9150509250929050565b60006138e9826136ef565b9050919050565b6138f9816138de565b82525050565b600060208201905061391460008301846138f0565b92915050565b6000613925826136ef565b9050919050565b6139358161391a565b82525050565b6000602082019050613950600083018461392c565b92915050565b60008115159050919050565b61396b81613956565b82525050565b600060ff82169050919050565b61398781613971565b82525050565b600060c0820190506139a26000830189613962565b6139af6020830188613640565b6139bc6040830187613843565b6139c96060830186613843565b6139d6608083018561397e565b6139e360a0830184613640565b979650505050505050565b600082825260208201905092915050565b7f6e6f742072656164790000000000000000000000000000000000000000000000600082015250565b6000613a356009836139ee565b9150613a40826139ff565b602082019050919050565b60006020820190508181036000830152613a6481613a28565b9050919050565b7f736c697020746f6f206869676800000000000000000000000000000000000000600082015250565b6000613aa1600d836139ee565b9150613aac82613a6b565b602082019050919050565b60006020820190508181036000830152613ad081613a94565b9050919050565b7f656d707479000000000000000000000000000000000000000000000000000000600082015250565b6000613b0d6005836139ee565b9150613b1882613ad7565b602082019050919050565b60006020820190508181036000830152613b3c81613b00565b9050919050565b7f4e487b7100000000000000000000000000000000000000000000000000000000600052604160045260246000fd5b7f4e487b7100000000000000000000000000000000000000000000000000000000600052603260045260246000fd5b600081519050919050565b600082825260208201905092915050565b6000819050602082019050919050565b613bd6816135cb565b82525050565b6000613be88383613bcd565b60208301905092915050565b6000602082019050919050565b6000613c0c82613ba1565b613c168185613bac565b9350613c2183613bbd565b8060005b83811015613c52578151613c398882613bdc565b9750613c4483613bf4565b925050600181019050613c25565b5085935050505092915050565b6000604082019050613c746000830185613640565b8181036020830152613c868184613c01565b90509392505050565b600080fd5b6000601f19601f8301169050919050565b613cae82613c94565b810181811067ffffffffffffffff82111715613ccd57613ccc613b43565b5b80604052505050565b6000613ce0613597565b9050613cec8282613ca5565b919050565b600067ffffffffffffffff821115613d0c57613d0b613b43565b5b602082029050602081019050919050565b600080fd5b600081519050613d318161366a565b92915050565b6000613d4a613d4584613cf1565b613cd6565b90508083825260208201905060208402830185811115613d6d57613d6c613d1d565b5b835b81811015613d965780613d828882613d22565b845260208401935050602081019050613d6f565b5050509392505050565b600082601f830112613db557613db4613c8f565b5b8151613dc5848260208601613d37565b91505092915050565b600060208284031215613de457613de36135a1565b5b600082015167ffffffffffffffff811115613e0257613e016135a6565b5b613e0e84828501613da0565b91505092915050565b7f4e487b7100000000000000000000000000000000000000000000000000000000600052601160045260246000fd5b6000613e5182613636565b9150613e5c83613636565b9250828203905081811115613e7457613e73613e17565b5b92915050565b6000613e8582613636565b9150613e9083613636565b9250828202613e9e81613636565b91508282048414831517613eb557613eb4613e17565b5b5092915050565b7f4e487b7100000000000000000000000000000000000000000000000000000000600052601260045260246000fd5b6000613ef682613636565b9150613f0183613636565b925082613f1157613f10613ebc565b5b828204905092915050565b600060a082019050613f316000830188613640565b613f3e6020830187613640565b8181036040830152613f508186613c01565b9050613f5f60608301856137bc565b613f6c6080830184613640565b9695505050505050565b7f62616420616d6f756e7473000000000000000000000000000000000000000000600082015250565b6000613fac600b836139ee565b9150613fb782613f76565b602082019050919050565b60006020820190508181036000830152613fdb81613f9f565b9050919050565b600060a082019050613ff76000830188613640565b6140046020830187613640565b6140116040830186613843565b61401e6060830185613843565b61402b6080830184613866565b9695505050505050565b7f616d6f756e743d30000000000000000000000000000000000000000000000000600082015250565b600061406b6008836139ee565b915061407682614035565b602082019050919050565b6000602082019050818103600083015261409a8161405e565b9050919050565b7f696e73756666696369656e740000000000000000000000000000000000000000600082015250565b60006140d7600c836139ee565b91506140e2826140a1565b602082019050919050565b60006020820190508181036000830152614106816140ca565b9050919050565b60006040820190506141226000830185613640565b61412f6020830184613640565b9392505050565b600061414182613636565b915061414c83613636565b925082820190508082111561416457614163613e17565b5b92915050565b6000602082840312156141805761417f6135a1565b5b600061418e84828501613d22565b91505092915050565b7f746f3d3000000000000000000000000000000000000000000000000000000000600082015250565b60006141cd6004836139ee565b91506141d882614197565b602082019050919050565b600060208201905081810360008301526141fc816141c0565b9050919050565b7f4f776e61626c653a206e6577206f776e657220697320746865207a65726f206160008201527f6464726573730000000000000000000000000000000000000000000000000000602082015250565b600061425f6026836139ee565b915061426a82614203565b604082019050919050565b6000602082019050818103600083015261428e81614252565b9050919050565b7f5265656e7472616e637947756172643a207265656e7472616e742063616c6c00600082015250565b60006142cb601f836139ee565b91506142d682614295565b602082019050919050565b600060208201905081810360008301526142fa816142be565b9050919050565b600060408201905061431660008301856137bc565b61432360208301846137bc565b9392505050565b7f5361666545524332303a20617070726f76652066726f6d206e6f6e2d7a65726f60008201527f20746f206e6f6e2d7a65726f20616c6c6f77616e636500000000000000000000602082015250565b60006143866036836139ee565b91506143918261432a565b604082019050919050565b600060208201905081810360008301526143b581614379565b9050919050565b60006040820190506143d160008301856137bc565b6143de6020830184613640565b9392505050565b7f4f776e61626c653a2063616c6c6572206973206e6f7420746865206f776e6572600082015250565b600061441b6020836139ee565b9150614426826143e5565b602082019050919050565b6000602082019050818103600083015261444a8161440e565b9050919050565b600060608201905061446660008301866137bc565b61447360208301856137bc565b6144806040830184613640565b949350505050565b600069ffffffffffffffffffff82169050919050565b6144a781614488565b81146144b257600080fd5b50565b6000815190506144c48161449e565b92915050565b6144d381613839565b81146144de57600080fd5b50565b6000815190506144f0816144ca565b92915050565b600080600080600060a08688031215614512576145116135a1565b5b6000614520888289016144b5565b9550506020614531888289016144e1565b945050604061454288828901613d22565b935050606061455388828901613d22565b9250506080614564888289016144b5565b9150509295509295909350565b7f70726963653c3d30000000000000000000000000000000000000000000000000600082015250565b60006145a76008836139ee565b91506145b282614571565b602082019050919050565b600060208201905081810360008301526145d68161459a565b9050919050565b6145e681613971565b81146145f157600080fd5b50565b600081519050614603816145dd565b92915050565b60006020828403121561461f5761461e6135a1565b5b600061462d848285016145f4565b91505092915050565b600061464182613839565b915061464c83613839565b925082820390508181126000841216828213600085121516171561467357614672613e17565b5b92915050565b61468281613956565b811461468d57600080fd5b50565b60008151905061469f81614679565b92915050565b6000602082840312156146bb576146ba6135a1565b5b60006146c984828501614690565b91505092915050565b7f5361666545524332303a204552433230206f7065726174696f6e20646964206e60008201527f6f74207375636365656400000000000000000000000000000000000000000000602082015250565b600061472e602a836139ee565b9150614739826146d2565b604082019050919050565b6000602082019050818103600083015261475d81614721565b9050919050565b7f416464726573733a20696e73756666696369656e742062616c616e636520666f60008201527f722063616c6c0000000000000000000000000000000000000000000000000000602082015250565b60006147c06026836139ee565b91506147cb82614764565b604082019050919050565b600060208201905081810360008301526147ef816147b3565b9050919050565b600081519050919050565b600081905092915050565b60005b8381101561482a57808201518184015260208101905061480f565b60008484015250505050565b6000614841826147f6565b61484b8185614801565b935061485b81856020860161480c565b80840191505092915050565b60006148738284614836565b915081905092915050565b7f416464726573733a2063616c6c20746f206e6f6e2d636f6e7472616374000000600082015250565b60006148b4601d836139ee565b91506148bf8261487e565b602082019050919050565b600060208201905081810360008301526148e3816148a7565b9050919050565b600081519050919050565b6000614900826148ea565b61490a81856139ee565b935061491a81856020860161480c565b61492381613c94565b840191505092915050565b6000602082019050818103600083015261494881846148f5565b90509291505056fea2646970667358221220c97d5e8c83b035d6c7121b269baf8e5534cc41c3feee00eeb7c180c2f0e1528464736f6c63430008180033",
  "linkReferences": {},
  "deployedLinkReferences": {}
}